{
  "abi": [
    {
      "inputs": [
        {
          "internalType": "address",
          "name": "adapter",
          "type": "address"
        }
      ],
      "stateMutability": "nonpayable",
      "type": "constructor"
    },
    {
      "inputs": [
        {
          "internalType": "uint256",
          "name": "have",
          "type": "uint256"
        },
        {
          "internalType": "uint32",
          "name": "want",
          "type": "uint32"
        }
      ],
      "name": "GasLimitTooBig",
      "type": "error"
    },
    {
      "anonymous": false,
      "inputs": [
        {
          "indexed": true,
          "internalType": "uint256",
          "name": "tableId",
          "type": "uint256"
        },
        {
          "indexed": true,
          "internalType": "address",
          "name": "player",
          "type": "address"
        },
        {
          "indexed": true,
          "internalType": "uint256",
          "name": "round",
          "type": "uint256"
        },
        {
          "indexed": false,
          "internalType": "string",
          "name": "commitment",
          "type": "string"
        }
      ],
      "name": "CardCommitted",
      "type": "event"
    },
    {
      "anonymous": false,
      "inputs": [
        {
          "indexed": true,
          "internalType": "uint256",
          "name": "tableId",
          "type": "uint256"
        },
        {
          "indexed": true,
          "internalType": "address",
          "name": "player",
          "type": "address"
        },
        {
          "indexed": false,
          "internalType": "uint256",
          "name": "set",
          "type": "uint256"
        },
        {
          "indexed": false,
          "internalType": "uint256",
          "name": "round",
          "type": "uint256"
        },
        {
          "indexed": false,
          "internalType": "uint256",
          "name": "index",
          "type": "uint256"
        },
        {
          "indexed": false,
          "internalType": "string",
          "name": "card",
          "type": "string"
        }
      ],
      "name": "CardPlayed",
      "type": "event"
    },
    {
      "anonymous": false,
      "inputs": [
        {
          "indexed": true,
          "internalType": "uint256",
          "name": "tableId",
          "type": "uint256"
        },
        {
          "indexed": true,
          "internalType": "bytes32",
          "name": "requestId",
          "type": "bytes32"
        },
        {
          "indexed": false,
          "internalType": "uint256[]",
          "name": "cardPool",
          "type": "uint256[]"
        },
        {
          "indexed": false,
          "internalType": "uint8",
          "name": "ruleType",
          "type": "uint8"
        },
        {
          "indexed": false,
          "internalType": "uint256",
          "name": "randomness",
          "type": "uint256"
        }
      ],
      "name": "CardPoolGenerated",
      "type": "event"
    },
    {
      "anonymous": false,
      "inputs": [
        {
          "indexed": true,
          "internalType": "uint256",
          "name": "tableId",
          "type": "uint256"
        },
        {
          "indexed": true,
          "internalType": "address",
          "name": "player",
          "type": "address"
        },
        {
          "indexed": false,
          "internalType": "uint256",
          "name": "set",
          "type": "uint256"
        },
        {
          "indexed": false,
          "internalType": "uint256",
          "name": "round",
          "type": "uint256"
        }
      ],
      "name": "CheatDetected",
      "type": "event"
    },
    {
      "anonymous": false,
      "inputs": [
        {
          "indexed": true,
          "internalType": "uint256",
          "name": "tableId",
          "type": "uint256"
        },
        {
          "indexed": true,
          "internalType": "address",
          "name": "winner",
          "type": "address"
        }
      ],
      "name": "GameEnded",
      "type": "event"
    },
    {
      "anonymous": false,
      "inputs": [
        {
          "indexed": true,
          "internalType": "uint256",
          "name": "tableId",
          "type": "uint256"
        },
        {
          "indexed": true,
          "internalType": "address",
          "name": "player",
          "type": "address"
        },
        {
          "indexed": false,
          "internalType": "string[]",
          "name": "hands",
          "type": "string[]"
        }
      ],
      "name": "HandsCommitted",
      "type": "event"
    },
    {
      "anonymous": false,
      "inputs": [
        {
          "indexed": true,
          "internalType": "address",
          "name": "previousOwner",
          "type": "address"
        },
        {
          "indexed": true,
          "internalType": "address",
          "name": "newOwner",
          "type": "address"
        }
      ],
      "name": "OwnershipTransferred",
      "type": "event"
    },
    {
      "anonymous": false,
      "inputs": [
        {
          "indexed": true,
          "internalType": "uint256",
          "name": "tableId",
          "type": "uint256"
        },
        {
          "indexed": true,
          "internalType": "bytes32",
          "name": "requestId",
          "type": "bytes32"
        }
      ],
      "name": "RandomnessRequested",
      "type": "event"
    },
    {
      "anonymous": false,
      "inputs": [
        {
          "indexed": true,
          "internalType": "uint256",
          "name": "tableId",
          "type": "uint256"
        },
        {
          "indexed": true,
          "internalType": "uint256",
          "name": "set",
          "type": "uint256"
        },
        {
          "indexed": true,
          "internalType": "uint256",
          "name": "round",
          "type": "uint256"
        },
        {
          "indexed": false,
          "internalType": "address",
          "name": "winner",
          "type": "address"
        },
        {
          "indexed": false,
          "internalType": "uint256",
          "name": "points",
          "type": "uint256"
        }
      ],
      "name": "RoundEnded",
      "type": "event"
    },
    {
      "anonymous": false,
      "inputs": [
        {
          "indexed": true,
          "internalType": "uint256",
          "name": "tableId",
          "type": "uint256"
        },
        {
          "indexed": true,
          "internalType": "address",
          "name": "player",
          "type": "address"
        },
        {
          "indexed": false,
          "internalType": "uint8",
          "name": "ruleType",
          "type": "uint8"
        }
      ],
      "name": "RuleTypeDetermined",
      "type": "event"
    },
    {
      "anonymous": false,
      "inputs": [
        {
          "indexed": true,
          "internalType": "uint256",
          "name": "tableId",
          "type": "uint256"
        },
        {
          "indexed": true,
          "internalType": "uint256",
          "name": "set",
          "type": "uint256"
        },
        {
          "indexed": false,
          "internalType": "address",
          "name": "winner",
          "type": "address"
        }
      ],
      "name": "SetEnded",
      "type": "event"
    },
    {
      "anonymous": false,
      "inputs": [
        {
          "indexed": true,
          "internalType": "uint256",
          "name": "tableId",
          "type": "uint256"
        },
        {
          "indexed": true,
          "internalType": "address",
          "name": "player",
          "type": "address"
        }
      ],
      "name": "TableCreated",
      "type": "event"
    },
    {
      "anonymous": false,
      "inputs": [
        {
          "indexed": true,
          "internalType": "uint256",
          "name": "tableId",
          "type": "uint256"
        },
        {
          "indexed": true,
          "internalType": "address",
          "name": "player",
          "type": "address"
        }
      ],
      "name": "TableJoined",
      "type": "event"
    },
    {
      "inputs": [],
      "name": "adapter",
      "outputs": [
        {
          "internalType": "address",
          "name": "",
          "type": "address"
        }
      ],
      "stateMutability": "view",
      "type": "function"
    },
    {
      "inputs": [],
      "name": "callbackGasLimit",
      "outputs": [
        {
          "internalType": "uint32",
          "name": "",
          "type": "uint32"
        }
      ],
      "stateMutability": "view",
      "type": "function"
    },
    {
      "inputs": [],
      "name": "callbackMaxGasFee",
      "outputs": [
        {
          "internalType": "uint256",
          "name": "",
          "type": "uint256"
        }
      ],
      "stateMutability": "view",
      "type": "function"
    },
    {
      "inputs": [
        {
          "internalType": "uint256",
          "name": "tableId",
          "type": "uint256"
        }
      ],
      "name": "clearTable",
      "outputs": [],
      "stateMutability": "nonpayable",
      "type": "function"
    },
    {
      "inputs": [
        {
          "internalType": "uint256",
          "name": "tableId",
          "type": "uint256"
        },
        {
          "internalType": "string",
          "name": "commitment",
          "type": "string"
        }
      ],
      "name": "commit",
      "outputs": [],
      "stateMutability": "nonpayable",
      "type": "function"
    },
    {
      "inputs": [
        {
          "internalType": "uint256",
          "name": "tableId",
          "type": "uint256"
        },
        {
          "internalType": "string[]",
          "name": "hands",
          "type": "string[]"
        }
      ],
      "name": "commitHands",
      "outputs": [],
      "stateMutability": "nonpayable",
      "type": "function"
    },
    {
      "inputs": [],
      "name": "createTable",
      "outputs": [],
      "stateMutability": "nonpayable",
      "type": "function"
    },
    {
      "inputs": [
        {
          "internalType": "uint256",
          "name": "tableId",
          "type": "uint256"
        },
        {
          "internalType": "uint8",
          "name": "ruleType",
          "type": "uint8"
        }
      ],
      "name": "determineRuleType",
      "outputs": [],
      "stateMutability": "nonpayable",
      "type": "function"
    },
    {
      "inputs": [
        {
          "internalType": "uint256",
          "name": "tableId",
          "type": "uint256"
        }
      ],
      "name": "getCardPool",
      "outputs": [
        {
          "internalType": "uint256[]",
          "name": "",
          "type": "uint256[]"
        }
      ],
      "stateMutability": "view",
      "type": "function"
    },
    {
      "inputs": [
        {
          "internalType": "uint256",
          "name": "tableId",
          "type": "uint256"
        }
      ],
      "name": "getCurrentState",
      "outputs": [
        {
          "internalType": "uint256",
          "name": "",
          "type": "uint256"
        },
        {
          "internalType": "uint256",
          "name": "",
          "type": "uint256"
        }
      ],
      "stateMutability": "view",
      "type": "function"
    },
    {
      "inputs": [
        {
          "internalType": "uint256",
          "name": "tableId",
          "type": "uint256"
        },
        {
          "internalType": "address",
          "name": "player",
          "type": "address"
        }
      ],
      "name": "getHands",
      "outputs": [
        {
          "internalType": "string[]",
          "name": "",
          "type": "string[]"
        }
      ],
      "stateMutability": "view",
      "type": "function"
    },
    {
      "inputs": [
        {
          "internalType": "uint256",
          "name": "tableId",
          "type": "uint256"
        }
      ],
      "name": "getPlayers",
      "outputs": [
        {
          "internalType": "address[]",
          "name": "",
          "type": "address[]"
        }
      ],
      "stateMutability": "view",
      "type": "function"
    },
    {
      "inputs": [
        {
          "internalType": "uint256",
          "name": "tableId",
          "type": "uint256"
        }
      ],
      "name": "getRandomSeed",
      "outputs": [],
      "stateMutability": "nonpayable",
      "type": "function"
    },
    {
      "inputs": [
        {
          "internalType": "uint256",
          "name": "tableId",
          "type": "uint256"
        }
      ],
      "name": "joinTable",
      "outputs": [],
      "stateMutability": "nonpayable",
      "type": "function"
    },
    {
      "inputs": [],
      "name": "nonce",
      "outputs": [
        {
          "internalType": "uint256",
          "name": "",
          "type": "uint256"
        }
      ],
      "stateMutability": "view",
      "type": "function"
    },
    {
      "inputs": [],
      "name": "owner",
      "outputs": [
        {
          "internalType": "address",
          "name": "",
          "type": "address"
        }
      ],
      "stateMutability": "view",
      "type": "function"
    },
    {
      "inputs": [
        {
          "internalType": "uint256",
          "name": "tableId",
          "type": "uint256"
        },
        {
          "internalType": "uint256",
          "name": "index",
          "type": "uint256"
        },
        {
          "internalType": "string",
          "name": "card",
          "type": "string"
        }
      ],
      "name": "play",
      "outputs": [],
      "stateMutability": "nonpayable",
      "type": "function"
    },
    {
      "inputs": [
        {
          "internalType": "bytes32",
          "name": "requestId",
          "type": "bytes32"
        },
        {
          "internalType": "uint256[]",
          "name": "randomWords",
          "type": "uint256[]"
        }
      ],
      "name": "rawFulfillRandomWords",
      "outputs": [],
      "stateMutability": "nonpayable",
      "type": "function"
    },
    {
      "inputs": [
        {
          "internalType": "bytes32",
          "name": "requestId",
          "type": "bytes32"
        },
        {
          "internalType": "uint256",
          "name": "randomness",
          "type": "uint256"
        }
      ],
      "name": "rawFulfillRandomness",
      "outputs": [],
      "stateMutability": "nonpayable",
      "type": "function"
    },
    {
      "inputs": [
        {
          "internalType": "bytes32",
          "name": "requestId",
          "type": "bytes32"
        },
        {
          "internalType": "uint256[]",
          "name": "shuffledArray",
          "type": "uint256[]"
        }
      ],
      "name": "rawFulfillShuffledArray",
      "outputs": [],
      "stateMutability": "nonpayable",
      "type": "function"
    },
    {
      "inputs": [],
      "name": "renounceOwnership",
      "outputs": [],
      "stateMutability": "nonpayable",
      "type": "function"
    },
    {
      "inputs": [],
      "name": "requestConfirmations",
      "outputs": [
        {
          "internalType": "uint16",
          "name": "",
          "type": "uint16"
        }
      ],
      "stateMutability": "view",
      "type": "function"
    },
    {
      "inputs": [
        {
          "internalType": "address",
          "name": "to",
          "type": "address"
        },
        {
          "internalType": "uint256",
          "name": "value",
          "type": "uint256"
        },
        {
          "internalType": "bytes",
          "name": "data",
          "type": "bytes"
        }
      ],
      "name": "requiredTxGas",
      "outputs": [
        {
          "internalType": "uint256",
          "name": "",
          "type": "uint256"
        }
      ],
      "stateMutability": "nonpayable",
      "type": "function"
    },
    {
      "inputs": [
        {
          "internalType": "uint32",
          "name": "_callbackGasLimit",
          "type": "uint32"
        },
        {
          "internalType": "uint256",
          "name": "_callbackMaxGasFee",
          "type": "uint256"
        }
      ],
      "name": "setCallbackGasConfig",
      "outputs": [],
      "stateMutability": "nonpayable",
      "type": "function"
    },
    {
      "inputs": [
        {
          "internalType": "uint16",
          "name": "_requestConfirmations",
          "type": "uint16"
        }
      ],
      "name": "setRequestConfirmations",
      "outputs": [],
      "stateMutability": "nonpayable",
      "type": "function"
    },
    {
      "inputs": [
        {
          "internalType": "address",
          "name": "newOwner",
          "type": "address"
        }
      ],
      "name": "transferOwnership",
      "outputs": [],
      "stateMutability": "nonpayable",
      "type": "function"
    }
  ],
  "bytecode": {
    "object": "0x60a060405260016000553480156200001657600080fd5b50604051620058c7380380620058c78339810160408190526200003991620000b2565b6001600160a01b038116608052620000513362000058565b50620000e4565b600180546001600160a01b03838116610100818102610100600160a81b031985161790945560405193909204169182907f8be0079c531659141344cd1fd0a4f28419497f9722a3daafe3b4186f6b6457e090600090a35050565b600060208284031215620000c557600080fd5b81516001600160a01b0381168114620000dd57600080fd5b9392505050565b6080516157a462000123600039600081816101b801528181611c3601528181611d4c01528181612f5f01528181613023015261459401526157a46000f3fe608060405234801561001057600080fd5b50600436106101ae5760003560e01c80638824f5a7116100ee578063affed0e011610097578063b7f6062b11610071578063b7f6062b146103d6578063c19961c5146103e9578063d0a1414a14610409578063f2fde38b1461041c57600080fd5b8063affed0e0146103a4578063b0fb162f146103ad578063b2a4c897146103ce57600080fd5b806394985ddd116100c857806394985ddd1461037e5780639e5836f61461032f5780639f15c7851461039157600080fd5b80638824f5a7146103425780638acd01a0146103555780638da5cb5b1461036857600080fd5b80633823bb031161015b5780635748c130116101355780635748c130146102c85780635b76a05a14610314578063715018a61461032757806375bf929b1461032f57600080fd5b80633823bb0314610275578063460e20491461028857806355d28efe146102a857600080fd5b80630f3437141161018c5780630f3437141461021f57806317f768c51461023257806324f746971461024957600080fd5b806303eadcfc146101b357806305ad94c3146101f757806305c840241461020c575b600080fd5b6101da7f000000000000000000000000000000000000000000000000000000000000000081565b6040516001600160a01b0390911681526020015b60405180910390f35b61020a610205366004614c49565b61042f565b005b61020a61021a366004614d27565b6104c1565b61020a61022d366004614d9b565b6110ad565b61023b60025481565b6040519081526020016101ee565b60015461026090600160a81b900463ffffffff1681565b60405163ffffffff90911681526020016101ee565b61020a610283366004614c49565b6113f1565b61029b610296366004614c49565b6116c7565b6040516101ee9190614e58565b6102bb6102b6366004614c49565b611855565b6040516101ee9190614ee0565b6102ff6102d6366004614c49565b60009081526005602052604090206003015460ff62010000820481169263010000009092041690565b604080519283526020830191909152016101ee565b61020a610322366004614ef3565b61190e565b61020a611c0b565b61020a61033d366004614f29565b611c1f565b61020a610350366004614fd6565b611ca8565b61020a610363366004615005565b611cc8565b60015461010090046001600160a01b03166101da565b61020a61038c366004615031565b611d35565b61023b61039f36600461506f565b611dc4565b61023b60005481565b6003546103bb9061ffff1681565b60405161ffff90911681526020016101ee565b61020a611e4a565b61020a6103e4366004614c49565b6120b7565b6103fc6103f73660046150f6565b61217f565b6040516101ee9190615172565b61020a6104173660046151d4565b61247c565b61020a61042a36600461521b565b6129ff565b600081815260056020526040902060030154610100900460ff166001036104535750565b60606000610462600083612a78565b60008181526004602090815260408083208790558683526005909152808220600301805461ff00191661010017905551919250829185917f587602b661da57eff43c58d2ebb4b7c66d08862f786faf29f390136b3309a12891a3505050565b60008381526005602052604090206004015483906001600160a01b03161561051d5760405162461bcd60e51b815260206004820152600a60248201526911d85b5948195b99195960b21b60448201526064015b60405180910390fd5b60008481526005602052604081205490036105715760405162461bcd60e51b81526020600482015260146024820152731518589b1948191bd95cc81b9bdd08195e1a5cdd60621b6044820152606401610514565b6000848152600560205260409020600201546014146105d25760405162461bcd60e51b815260206004820152601a60248201527f4361726420706f6f6c206973206e6f742067656e6572617465640000000000006044820152606401610514565b60008481526005602052604090206003015460ff1660011480610609575060008481526005602052604090206003015460ff166002145b6106555760405162461bcd60e51b815260206004820152601860248201527f52756c652074797065206e6f742064657465726d696e656400000000000000006044820152606401610514565b600583106106955760405162461bcd60e51b815260206004820152600d60248201526c092dcecc2d8d2c840d2dcc8caf609b1b6044820152606401610514565b600084815260056020526040812060038101546001909101805460ff620100008404811694630100000090940416923392916106d3576106d3615236565b60009182526020909120600690910201546001600160a01b031603610a76576000868152600560205260408120600101805490919061071457610714615236565b60009182526020822060016006909202010154900361076b5760405162461bcd60e51b815260206004820152601360248201527212185b991cc81b9bdd0818dbdb5b5a5d1d1959606a1b6044820152606401610514565b6000868152600560205260408120600101805490919061078d5761078d615236565b90600052602060002090600602016003018160ff16815481106107b2576107b2615236565b9060005260206000200180546107c79061524c565b15905061080c5760405162461bcd60e51b815260206004820152601360248201527210d85c9908185b1c9958591e481c1b185e5959606a1b6044820152606401610514565b6000868152600560205260408120600101805490919061082e5761082e615236565b90600052602060002090600602016002018160ff168154811061085357610853615236565b9060005260206000200180546108689061524c565b90506000036108b15760405162461bcd60e51b815260206004820152601560248201527410dbdb5b5a5d1b595b9d081b9bdd081c1b185e5959605a1b6044820152606401610514565b6109c76108e8856040516020016108c89190615286565b6040516020818303038152906040528051906020012060001c60206130dd565b6000888152600560205260408120600101805490919061090a5761090a615236565b90600052602060002090600602016002018360ff168154811061092f5761092f615236565b9060005260206000200180546109449061524c565b80601f01602080910402602001604051908101604052809291908181526020018280546109709061524c565b80156109bd5780601f10610992576101008083540402835291602001916109bd565b820191906000526020600020905b8154815290600101906020018083116109a057829003601f168201915b505050505061328d565b610a135760405162461bcd60e51b815260206004820152601e60248201527f4361726420646f6573206e6f74206d6174636820636f6d6d69746d656e7400006044820152606401610514565b60008681526005602052604081206001018054869290610a3557610a35615236565b90600052602060002090600602016003018260ff1681548110610a5a57610a5a615236565b906000526020600020019081610a7091906152e8565b50610d74565b6000868152600560205260409020600190810180543392908110610a9c57610a9c615236565b60009182526020909120600690910201546001600160a01b031603610d3d5760056000878152602001908152602001600020600101600181548110610ae357610ae3615236565b600091825260208220600160069092020101549003610b3a5760405162461bcd60e51b815260206004820152601360248201527212185b991cc81b9bdd0818dbdb5b5a5d1d1959606a1b6044820152606401610514565b60056000878152602001908152602001600020600101600181548110610b6257610b62615236565b90600052602060002090600602016003018160ff1681548110610b8757610b87615236565b906000526020600020018054610b9c9061524c565b159050610be15760405162461bcd60e51b815260206004820152601360248201527210d85c9908185b1c9958591e481c1b185e5959606a1b6044820152606401610514565b60056000878152602001908152602001600020600101600181548110610c0957610c09615236565b90600052602060002090600602016002018160ff1681548110610c2e57610c2e615236565b906000526020600020018054610c439061524c565b9050600003610c8c5760405162461bcd60e51b815260206004820152601560248201527410dbdb5b5a5d1b595b9d081b9bdd081c1b185e5959605a1b6044820152606401610514565b610ccb610ca3856040516020016108c89190615286565b6005600089815260200190815260200160002060010160018154811061090a5761090a615236565b610d175760405162461bcd60e51b815260206004820152601e60248201527f4361726420646f6573206e6f74206d6174636820636f6d6d69746d656e7400006044820152606401610514565b6000868152600560205260409020600190810180548692908110610a3557610a35615236565b60405162461bcd60e51b815260206004820152600c60248201526b2737ba103090383630bcb2b960a11b6044820152606401610514565b336001600160a01b0316867f57f1ed51fe32a5882172df8be85253f8e2b2bce63a01bd8d00374423436dbf3384848989604051610db494939291906153a8565b60405180910390a360008681526005602052604081206001018054909190610dde57610dde615236565b90600052602060002090600602016003018160ff1681548110610e0357610e03615236565b906000526020600020018054610e189061524c565b1580159150610e89575060056000878152602001908152602001600020600101600181548110610e4a57610e4a615236565b90600052602060002090600602016003018160ff1681548110610e6f57610e6f615236565b906000526020600020018054610e849061524c565b151590505b156110a4576000806000610e9e8986866132e6565b9250925092508015610eb45750505050506110a7565b604080516001600160a01b03851681526020810184905260ff80871692908816918c917fea3598217c46acdf0eb2bb730b2fdcafd0d8756de5818271897eb732451eeac4910160405180910390a48360ff1660050361105957610f168961386f565b610f1f89613b33565b6000610f2a8a613efe565b6001600160a01b031614610f89576000898152600560205260408082206004015490516001600160a01b03909116918b917f3d5fcd8fa3235aeb3897f25c8ea49989174981afcb01b9d03189d1056a16775b9190a350505050506110a7565b6000898152600560209081526040918290206003015491516401000000009092046001600160a01b0316825260ff8716918b917f3bb684f72c05a742d9d163e494d38cec31dc2d83b5e5268ad1970cb29b516645910160405180910390a3600089815260056020526040902060030180546001919060029061101590849062010000900460ff166153e9565b825460ff9182166101009390930a9283029190920219909116179055506000898152600560205260409020600301805463ff000000191663010000001790556110a0565b600089815260056020526040902060039081018054600192906110879084906301000000900460ff166153e9565b92506101000a81548160ff021916908360ff1602179055505b5050505b50505b50505050565b60008281526005602052604090206004015482906001600160a01b0316156111045760405162461bcd60e51b815260206004820152600a60248201526911d85b5948195b99195960b21b6044820152606401610514565b6000838152600560205260409020600201546014146111655760405162461bcd60e51b815260206004820152601a60248201527f4361726420706f6f6c206973206e6f742067656e6572617465640000000000006044820152606401610514565b81516005146111a65760405162461bcd60e51b815260206004820152600d60248201526c496e76616c69642068616e647360981b6044820152606401610514565b600083815260056020526040812060010180543392906111c8576111c8615236565b60009182526020909120600690910201546001600160a01b0316036112b6576000838152600560205260408120600101805490919061120957611209615236565b60009182526020909120600160069092020101541561126a5760405162461bcd60e51b815260206004820152601760248201527f48616e647320616c726561647920636f6d6d69747465640000000000000000006044820152606401610514565b6000838152600560205260408120600101805484929061128c5761128c615236565b906000526020600020906006020160010190805190602001906112b0929190614a7f565b506113aa565b60008381526005602052604090206001908101805433929081106112dc576112dc615236565b60009182526020909120600690910201546001600160a01b031603610d3d576005600084815260200190815260200160002060010160018154811061132357611323615236565b6000918252602090912060016006909202010154156113845760405162461bcd60e51b815260206004820152601760248201527f48616e647320616c726561647920636f6d6d69747465640000000000000000006044820152606401610514565b600083815260056020526040902060019081018054849290811061128c5761128c615236565b336001600160a01b0316837f36ff559a90029c64dbfd676f6796e0b4ac7edf47f2d95aacbfde49c22ff4702f846040516113e49190615172565b60405180910390a3505050565b60008181526005602052604090206004015481906001600160a01b0316156114485760405162461bcd60e51b815260206004820152600a60248201526911d85b5948195b99195960b21b6044820152606401610514565b600082815260056020526040812054900361149c5760405162461bcd60e51b81526020600482015260146024820152731518589b1948191bd95cc81b9bdd08195e1a5cdd60621b6044820152606401610514565b6000828152600560205260409020600101546002116114ed5760405162461bcd60e51b815260206004820152600d60248201526c1518589b19481a5cc8199d5b1b609a1b6044820152606401610514565b6000828152600560209081526040808320815160c081018352338152825185815280850190935260019091019390928301919061153a565b60608152602001906001900390816115255790505b50815260408051600580825260c0820190925260209092019190816020015b606081526020019060019003908161155957905050815260408051600580825260c0820190925260209092019190816020015b606081526020019060019003908161158c575050815260408051600580825260c08201909252602092830192909190820160a0803683370190505081526000602091820181905283546001808201865594825290829020835160069092020180546001600160a01b0319166001600160a01b039092169190911781558282015180519394919361162493928501929190910190614a7f565b5060408201518051611640916002840191602090910190614a7f565b506060820151805161165c916003840191602090910190614a7f565b5060808201518051611678916004840191602090910190614ad5565b5060a091909101516005909101805460ff191660ff909216919091179055604051339083907f8da26e3d4618534e5b0f9beebe60b2b635aaf7133ed1d582dfc4ff91d0be3d6590600090a35050565b6000818152600560205260408120546060910361171d5760405162461bcd60e51b81526020600482015260146024820152731518589b1948191bd95cc81b9bdd08195e1a5cdd60621b6044820152606401610514565b6040805160028082526060820183526000926020830190803683375050506000848152600560205260409020600101549091501561184f576000838152600560205260408120600101805490919061177757611777615236565b6000918252602082206006909102015482516001600160a01b039091169183916117a3576117a3615236565b6001600160a01b039092166020928302919091018201526000848152600590915260409020600190810154111561184f57600560008481526020019081526020016000206001016001815481106117fc576117fc615236565b600091825260209091206006909102015481516001600160a01b03909116908290600190811061182e5761182e615236565b60200260200101906001600160a01b031690816001600160a01b0316815250505b92915050565b600081815260056020526040812054606091036118ab5760405162461bcd60e51b81526020600482015260146024820152731518589b1948191bd95cc81b9bdd08195e1a5cdd60621b6044820152606401610514565b6000828152600560209081526040918290206002018054835181840281018401909452808452909183018282801561190257602002820191906000526020600020905b8154815260200190600101908083116118ee575b50505050509050919050565b60008281526005602052604090206004015482906001600160a01b0316156119655760405162461bcd60e51b815260206004820152600a60248201526911d85b5948195b99195960b21b6044820152606401610514565b60008381526005602052604081205490036119b95760405162461bcd60e51b81526020600482015260146024820152731518589b1948191bd95cc81b9bdd08195e1a5cdd60621b6044820152606401610514565b600083815260056020526040812060010180543392906119db576119db615236565b60009182526020909120600690910201546001600160a01b03161480611a3e57506000838152600560205260409020600190810180543392908110611a2257611a22615236565b60009182526020909120600690910201546001600160a01b0316145b611a795760405162461bcd60e51b815260206004820152600c60248201526b2737ba103090383630bcb2b960a11b6044820152606401610514565b60008381526005602052604090206003015460ff1615611adb5760405162461bcd60e51b815260206004820152601c60248201527f52756c65207479706520616c72656164792064657465726d696e6564000000006044820152606401610514565b8160ff1660011480611af057508160ff166002145b611b305760405162461bcd60e51b8152602060048201526011602482015270496e76616c69642072756c65207479706560781b6044820152606401610514565b600083815260056020526040902060030154336401000000009091046001600160a01b031603611bb55760405162461bcd60e51b815260206004820152602a60248201527f4c617374207365742077696e6e65722063616e6e6f742064657465726d696e656044820152692072756c65207479706560b01b6064820152608401610514565b600083815260056020908152604091829020600301805460ff191660ff86169081179091559151918252339185917fff25e3459847a609630f6b1c4ae8ed5a3efa8900ac082126527000d7e465b60691016113e4565b611c136140c7565b611c1d6000614127565b565b60015460ff1680611c585750336001600160a01b037f000000000000000000000000000000000000000000000000000000000000000016145b611ca45760405162461bcd60e51b815260206004820152601860248201527f4f6e6c7920616461707465722063616e2066756c66696c6c00000000000000006044820152606401610514565b5050565b611cb06140c7565b6003805461ffff191661ffff92909216919091179055565b611cd06140c7565b621e848063ffffffff83161115611d0b57604051631fbf681360e31b815263ffffffff83166004820152621e84806024820152604401610514565b6001805463ffffffff909316600160a81b0263ffffffff60a81b1990931692909217909155600255565b60015460ff1680611d6e5750336001600160a01b037f000000000000000000000000000000000000000000000000000000000000000016145b611dba5760405162461bcd60e51b815260206004820152601860248201527f4f6e6c7920616461707465722063616e2066756c66696c6c00000000000000006044820152606401610514565b611ca4828261418e565b6000805a9050611e0b868686868080601f0160208091040260200160405190810160405280939291908181526020018383808284376000920191909152505050505a614346565b611e1457600080fd5b60005a611e219083615402565b90506000611e2e8261435e565b90508060405162461bcd60e51b81526004016105149190615415565b60004233604051602001611e7a92919091825260601b6bffffffffffffffffffffffff1916602082015260340190565b60408051601f1981840301815282825280516020918201206000818152600580845284822083815582875284870195869052918390529092529251929350611ec89260029091019190614ad5565b50600081815260056020908152604080832060038101805463ffff000019166301010000179055815160c0810183523381528251858152808501909352600190910193909283019190611f2b565b6060815260200190600190039081611f165790505b50815260408051600580825260c0820190925260209092019190816020015b6060815260200190600190039081611f4a57905050815260408051600580825260c0820190925260209092019190816020015b6060815260200190600190039081611f7d575050815260408051600580825260c08201909252602092830192909190820160a0803683370190505081526000602091820181905283546001808201865594825290829020835160069092020180546001600160a01b0319166001600160a01b039092169190911781558282015180519394919361201593928501929190910190614a7f565b5060408201518051612031916002840191602090910190614a7f565b506060820151805161204d916003840191602090910190614a7f565b5060808201518051612069916004840191602090910190614ad5565b5060a091909101516005909101805460ff191660ff909216919091179055604051339082907fe93806e02d09f53787d307ada312314ec4cb949dc9bedc8503f94bd46e45dc6b90600090a350565b6120bf6140c7565b60008181526005602052604081205490036121135760405162461bcd60e51b81526020600482015260146024820152731518589b1948191bd95cc81b9bdd08195e1a5cdd60621b6044820152606401610514565b6000818152600560205260408120818155906121326001830182614b1c565b612140600283016000614b3d565b506003810180547fffffffffffffffff00000000000000000000000000000000000000000000000016905560040180546001600160a01b031916905550565b600082815260056020526040812054606091036121d55760405162461bcd60e51b81526020600482015260146024820152731518589b1948191bd95cc81b9bdd08195e1a5cdd60621b6044820152606401610514565b600083815260056020526040812060010180546001600160a01b038516929061220057612200615236565b60009182526020909120600690910201546001600160a01b031603612329576000838152600560205260408120600101805490919061224157612241615236565b9060005260206000209060060201600101805480602002602001604051908101604052809291908181526020016000905b8282101561231e5783829060005260206000200180546122919061524c565b80601f01602080910402602001604051908101604052809291908181526020018280546122bd9061524c565b801561230a5780601f106122df5761010080835404028352916020019161230a565b820191906000526020600020905b8154815290600101906020018083116122ed57829003601f168201915b505050505081526020019060010190612272565b50505050905061184f565b6000838152600560205260409020600190810180546001600160a01b0385169290811061235857612358615236565b60009182526020909120600690910201546001600160a01b031603610d3d576005600084815260200190815260200160002060010160018154811061239f5761239f615236565b9060005260206000209060060201600101805480602002602001604051908101604052809291908181526020016000905b8282101561231e5783829060005260206000200180546123ef9061524c565b80601f016020809104026020016040519081016040528092919081815260200182805461241b9061524c565b80156124685780601f1061243d57610100808354040283529160200191612468565b820191906000526020600020905b81548152906001019060200180831161244b57829003601f168201915b5050505050815260200190600101906123d0565b60008281526005602052604090206004015482906001600160a01b0316156124d35760405162461bcd60e51b815260206004820152600a60248201526911d85b5948195b99195960b21b6044820152606401610514565b60008381526005602052604081205490036125275760405162461bcd60e51b81526020600482015260146024820152731518589b1948191bd95cc81b9bdd08195e1a5cdd60621b6044820152606401610514565b6000838152600560205260409020600201546014146125885760405162461bcd60e51b815260206004820152601a60248201527f4361726420706f6f6c206973206e6f742067656e6572617465640000000000006044820152606401610514565b60008381526005602052604090206003015460ff16600114806125bf575060008381526005602052604090206003015460ff166002145b61260b5760405162461bcd60e51b815260206004820152601860248201527f52756c652074797065206e6f742064657465726d696e656400000000000000006044820152606401610514565b6000838152600560205260408120600101805490919061262d5761262d615236565b60009182526020909120600160069092020101541580159061268957506005600084815260200190815260200160002060010160018154811061267257612672615236565b600091825260209091206001600690920201015415155b6126cb5760405162461bcd60e51b815260206004820152601360248201527212185b991cc81b9bdd0818dbdb5b5a5d1d1959606a1b6044820152606401610514565b600083815260056020526040812060010180543392906126ed576126ed615236565b60009182526020909120600690910201546001600160a01b031603612860576000838152600560205260408120600101805490919061272e5761272e615236565b90600052602060002090600602016002016005600085815260200190815260200160002060030160039054906101000a900460ff1660ff168154811061277657612776615236565b90600052602060002001805461278b9061524c565b1590506127da5760405162461bcd60e51b815260206004820152601960248201527f436f6d6d69746d656e7420616c726561647920706c61796564000000000000006044820152606401610514565b600083815260056020526040812060010180548492906127fc576127fc615236565b90600052602060002090600602016002016005600086815260200190815260200160002060030160039054906101000a900460ff1660ff168154811061284457612844615236565b90600052602060002001908161285a91906152e8565b5061299f565b600083815260056020526040902060019081018054339290811061288657612886615236565b60009182526020909120600690910201546001600160a01b031603610d3d57600560008481526020019081526020016000206001016001815481106128cd576128cd615236565b90600052602060002090600602016002016005600085815260200190815260200160002060030160039054906101000a900460ff1660ff168154811061291557612915615236565b90600052602060002001805461292a9061524c565b1590506129795760405162461bcd60e51b815260206004820152601960248201527f436f6d6d69746d656e7420616c726561647920706c61796564000000000000006044820152606401610514565b60008381526005602052604090206001908101805484929081106127fc576127fc615236565b60008381526005602052604090819020600301549051630100000090910460ff1690339085907fb2db7434de3de7523f0b39c6767dfae8b79a7d6793d41016337fd5de5f7f378b906129f2908790615415565b60405180910390a4505050565b612a076140c7565b6001600160a01b038116612a6c5760405162461bcd60e51b815260206004820152602660248201527f4f776e61626c653a206e6577206f776e657220697320746865207a65726f206160448201526564647265737360d01b6064820152608401610514565b612a7581614127565b50565b6001805460ff19168117905560008054604080516020808201859052338284015260608083019490945282518083039094018452608090910190915281519101206000612ac4826144b9565b600154909150600160a81b900463ffffffff16600003612f4d5760606000866002811115612af457612af4615428565b03612b60575060408051602481018390527fe5c171541b9a43bf39a8e387606b82493eb141ea04772ea12d8e1aa1e52601006044808301919091528251808303909101815260649091019091526020810180516001600160e01b03166394985ddd60e01b179052612dd6565b6001866002811115612b7457612b74615428565b03612cc357600085806020019051810190612b8f919061543e565b905060008163ffffffff1667ffffffffffffffff811115612bb257612bb2614c62565b604051908082528060200260200182016040528015612bdb578160200160208202803683370190505b50905060005b8263ffffffff16811015612c6a57604080517fe5c171541b9a43bf39a8e387606b82493eb141ea04772ea12d8e1aa1e526010060208201529081018290526060016040516020818303038152906040528051906020012060001c828281518110612c4d57612c4d615236565b602090810291909101015280612c628161545b565b915050612be1565b506040516375bf929b60e01b90612c879086908490602401615474565b60408051601f198184030181529190526020810180516001600160e01b03166001600160e01b0319909316929092179091529250612dd6915050565b6002866002811115612cd757612cd7615428565b03612dd657600085806020019051810190612cf2919061543e565b905060008163ffffffff1667ffffffffffffffff811115612d1557612d15614c62565b604051908082528060200260200182016040528015612d3e578160200160208202803683370190505b50905060005b8263ffffffff16811015612d825780828281518110612d6557612d65615236565b602090810291909101015280612d7a8161545b565b915050612d44565b50604051634f2c1b7b60e11b90612d9f9086908490602401615474565b60408051601f198184030181529190526020810180516001600160e01b03166001600160e01b031990931692909217909152925050505b600080306001600160a01b0316639f15c78560e01b30600086604051602401612e0193929190615495565b60408051601f198184030181529181526020820180516001600160e01b03166001600160e01b0319909416939093179092529051612e3f9190615286565b6000604051808303816000865af19150503d8060008114612e7c576040519150601f19603f3d011682016040523d82523d6000602084013e612e81565b606091505b50915091506000612e91826144eb565b9050621e8480811115612ec357604051631fbf681360e31b815260048101829052621e84806024820152604401610514565b82158015612ed057508015155b612f1c5760405162461bcd60e51b815260206004820181905260248201527f66756c66696c6c52616e646f6d6e657373206472792d72756e206661696c65646044820152606401610514565b612f28617530826154c9565b600160156101000a81548163ffffffff021916908363ffffffff160217905550505050505b60035461ffff16600003612ffe5760007f00000000000000000000000000000000000000000000000000000000000000006001600160a01b031663ef6f42736040518163ffffffff1660e01b815260040160e060405180830381865afa158015612fbb573d6000803e3d6000fd5b505050506040513d601f19601f82011682018060405250810190612fdf91906154ed565b50506003805461ffff191661ffff969096169590951790945550505050505b604051631daa446f60e21b81523060048201526130ca90869086906001600160a01b037f000000000000000000000000000000000000000000000000000000000000000016906376a911bc90602401602060405180830381865afa15801561306a573d6000803e3d6000fd5b505050506040513d601f19601f8201168201806040525081019061308e919061556b565b60035460015460025460009261ffff1691600160a81b900463ffffffff1690156130ba57600254614521565b6130c53a6003615595565b614521565b6001805460ff1916905595945050505050565b606060006130ec836002615595565b6130f79060026155ac565b67ffffffffffffffff81111561310f5761310f614c62565b6040519080825280601f01601f191660200182016040528015613139576020820181803683370190505b509050600360fc1b8160008151811061315457613154615236565b60200101906001600160f81b031916908160001a905350600f60fb1b8160018151811061318357613183615236565b60200101906001600160f81b031916908160001a90535060006131a7846002615595565b6131b29060016155ac565b90505b6001811115613237577f303132333435363738396162636465660000000000000000000000000000000085600f16601081106131f3576131f3615236565b1a60f81b82828151811061320957613209615236565b60200101906001600160f81b031916908160001a90535060049490941c93613230816155bf565b90506131b5565b5083156132865760405162461bcd60e51b815260206004820181905260248201527f537472696e67733a20686578206c656e67746820696e73756666696369656e746044820152606401610514565b9392505050565b6000816040516020016132a09190615286565b60405160208183030381529060405280519060200120836040516020016132c79190615286565b6040516020818303038152906040528051906020012014905092915050565b6000806000806133d46005600089815260200190815260200160002060010160008154811061331757613317615236565b90600052602060002090600602016003018660ff168154811061333c5761333c615236565b9060005260206000200180546133519061524c565b80601f016020809104026020016040519081016040528092919081815260200182805461337d9061524c565b80156133ca5780601f1061339f576101008083540402835291602001916133ca565b820191906000526020600020905b8154815290600101906020018083116133ad57829003601f168201915b505050505061462e565b90506133e087826147b5565b6134d7576000878152600560205260408120600101805490919061340657613406615236565b6000918252602091829020600690910201546040805160ff808b1682528916938101939093526001600160a01b039091169189917ff4f4725e5d1f6fadad9e35abae394b22e313face11d212bb1d06a23b00fa6f5b910160405180910390a36005600088815260200190815260200160002060010160018154811061348d5761348d615236565b600091825260208083206006909202909101548983526005909152604090912060040180546001600160a01b0319166001600160a01b039092169190911790555060019050613866565b6000806134e383614881565b915091506000613539600560008c815260200190815260200160002060010160018154811061351457613514615236565b90600052602060002090600602016003018960ff168154811061333c5761333c615236565b90506135458a826147b5565b61364057600560008b815260200190815260200160002060010160018154811061357157613571615236565b6000918252602091829020600690910201546040805160ff808e1682528c16938101939093526001600160a01b03909116918c917ff4f4725e5d1f6fadad9e35abae394b22e313face11d212bb1d06a23b00fa6f5b910160405180910390a360008a815260056020526040812060010180549091906135f2576135f2615236565b600091825260208083206006909202909101548c83526005909152604090912060040180546001600160a01b0319166001600160a01b03909216919091179055506001935061386692505050565b60008061364c83614881565b60008e815260056020526040902060030154919350915060ff166001036137dc578185036137c0578084111561372d576136868185615402565b975087156137285760008c815260056020526040812060010180548a92906136b0576136b0615236565b90600052602060002090600602016004018b60ff16815481106136d5576136d5615236565b9060005260206000200181905550600560008d815260200190815260200160002060010160008154811061370b5761370b615236565b60009182526020909120600690910201546001600160a01b031698505b61385f565b6137378482615402565b975087156137285760008c8152600560205260409020600190810180548a9290811061376557613765615236565b90600052602060002090600602016004018b60ff168154811061378a5761378a615236565b9060005260206000200181905550600560008d815260200190815260200160002060010160018154811061370b5761370b615236565b808411156137d2576137378185615402565b6136868482615402565b60008c81526005602052604090206003015460ff166002036138235781850361381157808411156137d2576137378185615402565b8084111561372d576136868185615402565b60405162461bcd60e51b8152602060048201526011602482015270496e76616c69642072756c65207479706560781b6044820152606401610514565b5050505050505b93509350939050565b60008181526005602052604081205490036138c35760405162461bcd60e51b81526020600482015260146024820152731518589b1948191bd95cc81b9bdd08195e1a5cdd60621b6044820152606401610514565b60008060005b600581101561399f57600084815260056020526040812060010180549091906138f4576138f4615236565b9060005260206000209060060201600401818154811061391657613916615236565b90600052602060002001548361392c91906155ac565b60008581526005602052604090206001908101805492955091811061395357613953615236565b9060005260206000209060060201600401818154811061397557613975615236565b90600052602060002001548261398b91906155ac565b9150806139978161545b565b9150506138c9565b5080821115613a9c576001600560008581526020019081526020016000206001016000815481106139d2576139d2615236565b60009182526020822060056006909202010180549091906139f790849060ff166153e9565b92506101000a81548160ff021916908360ff16021790555060056000848152602001908152602001600020600101600081548110613a3757613a37615236565b60009182526020808320600692909202909101548583526005909152604090912060030180547fffffffffffffffff0000000000000000000000000000000000000000ffffffff166001600160a01b0390921664010000000002919091179055505050565b80821015613b2e5760008381526005602052604090206001908101805482908110613ac957613ac9615236565b6000918252602082206005600690920201018054909190613aee90849060ff166153e9565b92506101000a81548160ff021916908360ff16021790555060056000848152602001908152602001600020600101600181548110613a3757613a37615236565b505050565b604080516000808252602080830180855285835260059091529290209051613b619260029092019190614ad5565b506000818152600560209081526040808320600301805461ffff191690558051838152918201905290613ba4565b6060815260200190600190039081613b8f5790505b5060008281526005602052604081206001018054909190613bc757613bc7615236565b90600052602060002090600602016001019080519060200190613beb929190614a7f565b5060408051600580825260c0820190925290816020015b6060815260200190600190039081613c0257505060008281526005602052604081206001018054909190613c3857613c38615236565b90600052602060002090600602016002019080519060200190613c5c929190614a7f565b5060408051600580825260c0820190925290816020015b6060815260200190600190039081613c7357505060008281526005602052604081206001018054909190613ca957613ca9615236565b90600052602060002090600602016003019080519060200190613ccd929190614a7f565b5060408051600580825260c08201909252906020820160a08036833750505060008281526005602052604081206001018054909190613d0e57613d0e615236565b90600052602060002090600602016004019080519060200190613d32929190614ad5565b506040805160008082526020820190925290613d5e565b6060815260200190600190039081613d495790505b5060056000838152602001908152602001600020600101600181548110613d8757613d87615236565b90600052602060002090600602016001019080519060200190613dab929190614a7f565b5060408051600580825260c0820190925290816020015b6060815260200190600190039081613dc25750506000828152600560205260409020600190810180549091908110613dfc57613dfc615236565b90600052602060002090600602016002019080519060200190613e20929190614a7f565b5060408051600580825260c0820190925290816020015b6060815260200190600190039081613e375750506000828152600560205260409020600190810180549091908110613e7157613e71615236565b90600052602060002090600602016003019080519060200190613e95929190614a7f565b5060408051600580825260c08201909252906020820160a0803683375050506000828152600560205260409020600190810180549091908110613eda57613eda615236565b90600052602060002090600602016004019080519060200190611ca4929190614ad5565b6000818152600560205260408120548103613f525760405162461bcd60e51b81526020600482015260146024820152731518589b1948191bd95cc81b9bdd08195e1a5cdd60621b6044820152606401610514565b60008281526005602052604081206001018054909190613f7457613f74615236565b600091825260209091206005600690920201015460ff16600203613ff95760008281526005602052604081206001018054909190613fb457613fb4615236565b600091825260208083206006909202909101548483526005909152604090912060040180546001600160a01b0319166001600160a01b039092169190911790556140a8565b6005600083815260200190815260200160002060010160018154811061402157614021615236565b600091825260209091206005600690920201015460ff166002036140a8576005600083815260200190815260200160002060010160018154811061406757614067615236565b600091825260208083206006909202909101548483526005909152604090912060040180546001600160a01b0319166001600160a01b039092169190911790555b506000908152600560205260409020600401546001600160a01b031690565b6001546001600160a01b03610100909104163314611c1d5760405162461bcd60e51b815260206004820181905260248201527f4f776e61626c653a2063616c6c6572206973206e6f7420746865206f776e65726044820152606401610514565b600180546001600160a01b0383811661010081810274ffffffffffffffffffffffffffffffffffffffff001985161790945560405193909204169182907f8be0079c531659141344cd1fd0a4f28419497f9722a3daafe3b4186f6b6457e090600090a35050565b600082815260046020526040812054906141a96034846148a3565b6040805160148082526102a0820190925291925060009190602082016102808036833701905050905060005b6014811015614227578281815181106141f0576141f0615236565b602002602001015182828151811061420a5761420a615236565b60209081029190910101528061421f8161545b565b9150506141d5565b506000838152600560209081526040909120825161424d92600290920191840190614ad5565b5060008381526005602052604090206003015464010000000090046001600160a01b03166142ea5760006142826002866155ec565b61428d9060016155ac565b6000858152600560209081526040808320600301805460ff191660ff86169081179091559051908152929350909186917fff25e3459847a609630f6b1c4ae8ed5a3efa8900ac082126527000d7e465b606910160405180910390a3505b60008381526005602052604090819020600301549051869185917f6d2b20099f9fb6d0bdbb303f3d924200f3065c3b3a04cd44856df15618ba00559161433791869160ff16908a90615600565b60405180910390a35050505050565b6000806000845160208601878987f195945050505050565b60408051606480825260a08201909252606091906000908260208201818036833701905050905060005b84156143f257600061439b600a876155ec565b90506143a8600a87615628565b95506143b58160306155ac565b60f81b83836143c38161545b565b9450815181106143d5576143d5615236565b60200101906001600160f81b031916908160001a90535050614388565b60006143ff8260016155ac565b67ffffffffffffffff81111561441757614417614c62565b6040519080825280601f01601f191660200182016040528015614441576020820181803683370190505b50905060005b8281116144af57836144598285615402565b8151811061446957614469615236565b602001015160f81c60f81b82828151811061448657614486615236565b60200101906001600160f81b031916908160001a905350806144a78161545b565b915050614447565b5095945050505050565b6000816040516020016144ce91815260200190565b604051602081830303815290604052805190602001209050919050565b60006044825110156144ff57506000919050565b60048201915061184f8280602001905181019061451c919061563c565b6149ff565b600080546145309060016155ac565b60008190555060006040518060e001604052808a600281111561455557614555615428565b81526020018981526020018867ffffffffffffffff1681526020018781526020018661ffff1681526020018563ffffffff1681526020018481525090507f00000000000000000000000000000000000000000000000000000000000000006001600160a01b031663a39402d7826040518263ffffffff1660e01b81526004016145de91906156aa565b6020604051808303816000875af11580156145fd573d6000803e3d6000fd5b505050506040513d601f19601f820116820180604052508101906146219190615755565b9998505050505050505050565b6000808290506000600182516146449190615402565b90505b601560f91b6001600160f81b03191682828151811061466857614668615236565b01602001516001600160f81b0319160361468e5780614686816155bf565b915050614647565b60005b601560f91b6001600160f81b0319168382815181106146b2576146b2615236565b01602001516001600160f81b031916036146d857806146d08161545b565b915050614691565b60006146e48284615402565b6146ef9060016155ac565b67ffffffffffffffff81111561470757614707614c62565b6040519080825280601f01601f191660200182016040528015614731576020820181803683370190505b50905060005b81518110156147a1578461474b82856155ac565b8151811061475b5761475b615236565b602001015160f81c60f81b82828151811061477857614778615236565b60200101906001600160f81b031916908160001a905350806147998161545b565b915050614737565b506147ab816149ff565b9695505050505050565b60008281526005602052604081205481036148095760405162461bcd60e51b81526020600482015260146024820152731518589b1948191bd95cc81b9bdd08195e1a5cdd60621b6044820152606401610514565b60005b60008481526005602052604090206002015481101561487757600084815260056020526040902060020180548491908390811061484b5761484b615236565b90600052602060002001540361486557600191505061184f565b8061486f8161545b565b91505061480c565b5060009392505050565b60008061488f600d84615628565b61489a600d856155ec565b91509150915091565b606060008367ffffffffffffffff8111156148c0576148c0614c62565b6040519080825280602002602001820160405280156148e9578160200160208202803683370190505b50905060005b84811015614927578082828151811061490a5761490a615236565b60209081029190910101528061491f8161545b565b9150506148ef565b5080516000805b6000614939846155bf565b93508311156149f45761494c83876155ec565b91508560405160200161496191815260200190565b6040516020818303038152906040528051906020012060001c955083838151811061498e5761498e615236565b602002602001015190508382815181106149aa576149aa615236565b60200260200101518484815181106149c4576149c4615236565b602002602001018181525050808483815181106149e3576149e3615236565b60200260200101818152505061492e565b509195945050505050565b600081815b8151811015614a78576000828281518110614a2157614a21615236565b016020015160f81c905060308110801590614a3d575060398111155b15614a6557614a4d603082615402565b614a5885600a615595565b614a6291906155ac565b93505b5080614a708161545b565b915050614a04565b5050919050565b828054828255906000526020600020908101928215614ac5579160200282015b82811115614ac55782518290614ab590826152e8565b5091602001919060010190614a9f565b50614ad1929150614b5b565b5090565b828054828255906000526020600020908101928215614b10579160200282015b82811115614b10578251825591602001919060010190614af5565b50614ad1929150614b78565b5080546000825560060290600052602060002090810190612a759190614b8d565b5080546000825590600052602060002090810190612a759190614b78565b80821115614ad1576000614b6f8282614bf1565b50600101614b5b565b5b80821115614ad15760008155600101614b79565b80821115614ad15780546001600160a01b03191681556000614bb26001830182614c2b565b614bc0600283016000614c2b565b614bce600383016000614c2b565b614bdc600483016000614b3d565b5060058101805460ff19169055600601614b8d565b508054614bfd9061524c565b6000825580601f10614c0d575050565b601f016020900490600052602060002090810190612a759190614b78565b5080546000825590600052602060002090810190612a759190614b5b565b600060208284031215614c5b57600080fd5b5035919050565b634e487b7160e01b600052604160045260246000fd5b604051601f8201601f1916810167ffffffffffffffff81118282101715614ca157614ca1614c62565b604052919050565b600067ffffffffffffffff821115614cc357614cc3614c62565b50601f01601f191660200190565b600082601f830112614ce257600080fd5b8135614cf5614cf082614ca9565b614c78565b818152846020838601011115614d0a57600080fd5b816020850160208301376000918101602001919091529392505050565b600080600060608486031215614d3c57600080fd5b8335925060208401359150604084013567ffffffffffffffff811115614d6157600080fd5b614d6d86828701614cd1565b9150509250925092565b600067ffffffffffffffff821115614d9157614d91614c62565b5060051b60200190565b60008060408385031215614dae57600080fd5b8235915060208084013567ffffffffffffffff80821115614dce57600080fd5b818601915086601f830112614de257600080fd5b8135614df0614cf082614d77565b81815260059190911b83018401908481019089831115614e0f57600080fd5b8585015b83811015614e4757803585811115614e2b5760008081fd5b614e398c89838a0101614cd1565b845250918601918601614e13565b508096505050505050509250929050565b6020808252825182820181905260009190848201906040850190845b81811015614e995783516001600160a01b031683529284019291840191600101614e74565b50909695505050505050565b600081518084526020808501945080840160005b83811015614ed557815187529582019590820190600101614eb9565b509495945050505050565b6020815260006132866020830184614ea5565b60008060408385031215614f0657600080fd5b82359150602083013560ff81168114614f1e57600080fd5b809150509250929050565b60008060408385031215614f3c57600080fd5b8235915060208084013567ffffffffffffffff811115614f5b57600080fd5b8401601f81018613614f6c57600080fd5b8035614f7a614cf082614d77565b81815260059190911b82018301908381019088831115614f9957600080fd5b928401925b82841015614fb757833582529284019290840190614f9e565b80955050505050509250929050565b61ffff81168114612a7557600080fd5b600060208284031215614fe857600080fd5b813561328681614fc6565b63ffffffff81168114612a7557600080fd5b6000806040838503121561501857600080fd5b823561502381614ff3565b946020939093013593505050565b6000806040838503121561504457600080fd5b50508035926020909101359150565b80356001600160a01b038116811461506a57600080fd5b919050565b6000806000806060858703121561508557600080fd5b61508e85615053565b935060208501359250604085013567ffffffffffffffff808211156150b257600080fd5b818701915087601f8301126150c657600080fd5b8135818111156150d557600080fd5b8860208285010111156150e757600080fd5b95989497505060200194505050565b6000806040838503121561510957600080fd5b8235915061511960208401615053565b90509250929050565b60005b8381101561513d578181015183820152602001615125565b50506000910152565b6000815180845261515e816020860160208601615122565b601f01601f19169290920160200192915050565b6000602080830181845280855180835260408601915060408160051b870101925083870160005b828110156151c757603f198886030184526151b5858351615146565b94509285019290850190600101615199565b5092979650505050505050565b600080604083850312156151e757600080fd5b82359150602083013567ffffffffffffffff81111561520557600080fd5b61521185828601614cd1565b9150509250929050565b60006020828403121561522d57600080fd5b61328682615053565b634e487b7160e01b600052603260045260246000fd5b600181811c9082168061526057607f821691505b60208210810361528057634e487b7160e01b600052602260045260246000fd5b50919050565b60008251615298818460208701615122565b9190910192915050565b601f821115613b2e57600081815260208120601f850160051c810160208610156152c95750805b601f850160051c820191505b818110156110a4578281556001016152d5565b815167ffffffffffffffff81111561530257615302614c62565b61531681615310845461524c565b846152a2565b602080601f83116001811461534b57600084156153335750858301515b600019600386901b1c1916600185901b1785556110a4565b600085815260208120601f198616915b8281101561537a5788860151825594840194600190910190840161535b565b50858210156153985787850151600019600388901b60f8161c191681555b5050505050600190811b01905550565b60ff8516815260ff841660208201528260408201526080606082015260006147ab6080830184615146565b634e487b7160e01b600052601160045260246000fd5b60ff818116838216019081111561184f5761184f6153d3565b8181038181111561184f5761184f6153d3565b6020815260006132866020830184615146565b634e487b7160e01b600052602160045260246000fd5b60006020828403121561545057600080fd5b815161328681614ff3565b60006001820161546d5761546d6153d3565b5060010190565b82815260406020820152600061548d6040830184614ea5565b949350505050565b6001600160a01b038416815260ff831660208201526060604082015260006154c06060830184615146565b95945050505050565b63ffffffff8181168382160190808211156154e6576154e66153d3565b5092915050565b600080600080600080600060e0888a03121561550857600080fd5b875161551381614fc6565b602089015190975061552481614ff3565b604089015190965061553581614ff3565b606089015190955061554681614ff3565b809450506080880151925060a0880151915060c0880151905092959891949750929550565b60006020828403121561557d57600080fd5b815167ffffffffffffffff8116811461328657600080fd5b808202811582820484141761184f5761184f6153d3565b8082018082111561184f5761184f6153d3565b6000816155ce576155ce6153d3565b506000190190565b634e487b7160e01b600052601260045260246000fd5b6000826155fb576155fb6155d6565b500690565b6060815260006156136060830186614ea5565b60ff9490941660208301525060400152919050565b600082615637576156376155d6565b500490565b60006020828403121561564e57600080fd5b815167ffffffffffffffff81111561566557600080fd5b8201601f8101841361567657600080fd5b8051615684614cf082614ca9565b81815285602083850101111561569957600080fd5b6154c0826020830160208601615122565b6020815260008251600381106156d057634e487b7160e01b600052602160045260246000fd5b80602084015250602083015160e060408401526156f1610100840182615146565b9050604084015161570e606085018267ffffffffffffffff169052565b5060608401516080840152608084015161572e60a085018261ffff169052565b5060a084015163ffffffff811660c08501525060c084015160e08401528091505092915050565b60006020828403121561576757600080fd5b505191905056fea2646970667358221220c3a4bf1fa02eeb04de90fa19aad756a9a1b9a295ffe84c2bb86858b533b1593764736f6c63430008120033",
    "linkReferences": {}
  },
  "methodIdentifiers": {
    "adapter()": "03eadcfc",
    "callbackGasLimit()": "24f74697",
    "callbackMaxGasFee()": "17f768c5",
    "clearTable(uint256)": "b7f6062b",
    "commit(uint256,string)": "d0a1414a",
    "commitHands(uint256,string[])": "0f343714",
    "createTable()": "b2a4c897",
    "determineRuleType(uint256,uint8)": "5b76a05a",
    "getCardPool(uint256)": "55d28efe",
    "getCurrentState(uint256)": "5748c130",
    "getHands(uint256,address)": "c19961c5",
    "getPlayers(uint256)": "460e2049",
    "getRandomSeed(uint256)": "05ad94c3",
    "joinTable(uint256)": "3823bb03",
    "nonce()": "affed0e0",
    "owner()": "8da5cb5b",
    "play(uint256,uint256,string)": "05c84024",
    "rawFulfillRandomWords(bytes32,uint256[])": "75bf929b",
    "rawFulfillRandomness(bytes32,uint256)": "94985ddd",
    "rawFulfillShuffledArray(bytes32,uint256[])": "9e5836f6",
    "renounceOwnership()": "715018a6",
    "requestConfirmations()": "b0fb162f",
    "requiredTxGas(address,uint256,bytes)": "9f15c785",
    "setCallbackGasConfig(uint32,uint256)": "8acd01a0",
    "setRequestConfirmations(uint16)": "8824f5a7",
    "transferOwnership(address)": "f2fde38b"
  },
  "id": 13
}