{
  "abi": [
    {
      "inputs": [
        {
          "internalType": "address",
          "name": "adapter",
          "type": "address"
        }
      ],
      "stateMutability": "nonpayable",
      "type": "constructor"
    },
    {
      "inputs": [
        {
          "internalType": "uint256",
          "name": "have",
          "type": "uint256"
        },
        {
          "internalType": "uint32",
          "name": "want",
          "type": "uint32"
        }
      ],
      "name": "GasLimitTooBig",
      "type": "error"
    },
    {
      "anonymous": false,
      "inputs": [
        {
          "indexed": true,
          "internalType": "address",
          "name": "previousOwner",
          "type": "address"
        },
        {
          "indexed": true,
          "internalType": "address",
          "name": "newOwner",
          "type": "address"
        }
      ],
      "name": "OwnershipTransferred",
      "type": "event"
    },
    {
      "anonymous": false,
      "inputs": [
        {
          "indexed": true,
          "internalType": "bytes32",
          "name": "requestId",
          "type": "bytes32"
        },
        {
          "indexed": false,
          "internalType": "uint256",
          "name": "randomness",
          "type": "uint256"
        }
      ],
      "name": "RandomnessFulfilled",
      "type": "event"
    },
    {
      "anonymous": false,
      "inputs": [
        {
          "indexed": false,
          "internalType": "bytes32",
          "name": "requestId",
          "type": "bytes32"
        }
      ],
      "name": "RandomnessRequested",
      "type": "event"
    },
    {
      "inputs": [],
      "name": "adapter",
      "outputs": [
        {
          "internalType": "address",
          "name": "",
          "type": "address"
        }
      ],
      "stateMutability": "view",
      "type": "function"
    },
    {
      "inputs": [],
      "name": "callbackGasLimit",
      "outputs": [
        {
          "internalType": "uint32",
          "name": "",
          "type": "uint32"
        }
      ],
      "stateMutability": "view",
      "type": "function"
    },
    {
      "inputs": [],
      "name": "callbackMaxGasFee",
      "outputs": [
        {
          "internalType": "uint256",
          "name": "",
          "type": "uint256"
        }
      ],
      "stateMutability": "view",
      "type": "function"
    },
    {
      "inputs": [],
      "name": "getRandomSeed",
      "outputs": [],
      "stateMutability": "nonpayable",
      "type": "function"
    },
    {
      "inputs": [],
      "name": "nonce",
      "outputs": [
        {
          "internalType": "uint256",
          "name": "",
          "type": "uint256"
        }
      ],
      "stateMutability": "view",
      "type": "function"
    },
    {
      "inputs": [],
      "name": "owner",
      "outputs": [
        {
          "internalType": "address",
          "name": "",
          "type": "address"
        }
      ],
      "stateMutability": "view",
      "type": "function"
    },
    {
      "inputs": [
        {
          "internalType": "bytes32",
          "name": "requestId",
          "type": "bytes32"
        },
        {
          "internalType": "uint256[]",
          "name": "randomWords",
          "type": "uint256[]"
        }
      ],
      "name": "rawFulfillRandomWords",
      "outputs": [],
      "stateMutability": "nonpayable",
      "type": "function"
    },
    {
      "inputs": [
        {
          "internalType": "bytes32",
          "name": "requestId",
          "type": "bytes32"
        },
        {
          "internalType": "uint256",
          "name": "randomness",
          "type": "uint256"
        }
      ],
      "name": "rawFulfillRandomness",
      "outputs": [],
      "stateMutability": "nonpayable",
      "type": "function"
    },
    {
      "inputs": [
        {
          "internalType": "bytes32",
          "name": "requestId",
          "type": "bytes32"
        },
        {
          "internalType": "uint256[]",
          "name": "shuffledArray",
          "type": "uint256[]"
        }
      ],
      "name": "rawFulfillShuffledArray",
      "outputs": [],
      "stateMutability": "nonpayable",
      "type": "function"
    },
    {
      "inputs": [],
      "name": "renounceOwnership",
      "outputs": [],
      "stateMutability": "nonpayable",
      "type": "function"
    },
    {
      "inputs": [
        {
          "internalType": "address",
          "name": "to",
          "type": "address"
        },
        {
          "internalType": "uint256",
          "name": "value",
          "type": "uint256"
        },
        {
          "internalType": "bytes",
          "name": "data",
          "type": "bytes"
        }
      ],
      "name": "requiredTxGas",
      "outputs": [
        {
          "internalType": "uint256",
          "name": "",
          "type": "uint256"
        }
      ],
      "stateMutability": "nonpayable",
      "type": "function"
    },
    {
      "inputs": [
        {
          "internalType": "uint32",
          "name": "_callbackGasLimit",
          "type": "uint32"
        },
        {
          "internalType": "uint256",
          "name": "_callbackMaxGasFee",
          "type": "uint256"
        }
      ],
      "name": "setCallbackGasConfig",
      "outputs": [],
      "stateMutability": "nonpayable",
      "type": "function"
    },
    {
      "inputs": [
        {
          "internalType": "address",
          "name": "newOwner",
          "type": "address"
        }
      ],
      "name": "transferOwnership",
      "outputs": [],
      "stateMutability": "nonpayable",
      "type": "function"
    }
  ],
  "bytecode": {
    "object": "0x60a0604052600160005534801561001557600080fd5b50604051611608380380611608833981016040819052610034916100aa565b6001600160a01b03811660805261004a33610050565b506100da565b600180546001600160a01b03838116610100818102610100600160a81b031985161790945560405193909204169182907f8be0079c531659141344cd1fd0a4f28419497f9722a3daafe3b4186f6b6457e090600090a35050565b6000602082840312156100bc57600080fd5b81516001600160a01b03811681146100d357600080fd5b9392505050565b6080516114f86101106000396000818160e9015281816102260152818161036f01528181610aa70152610df001526114f86000f3fe608060405234801561001057600080fd5b50600436106100df5760003560e01c80638da5cb5b1161008c5780639e5836f6116100665780639e5836f6146101755780639f15c785146101cc578063affed0e0146101df578063f2fde38b146101e857600080fd5b80638da5cb5b1461019b57806393b3cc6b146101b157806394985ddd146101b957600080fd5b8063715018a6116100bd578063715018a61461016b57806375bf929b146101755780638acd01a01461018857600080fd5b806303eadcfc146100e457806317f768c51461012857806324f746971461013f575b600080fd5b61010b7f000000000000000000000000000000000000000000000000000000000000000081565b6040516001600160a01b0390911681526020015b60405180910390f35b61013160025481565b60405190815260200161011f565b60015461015690600160a81b900463ffffffff1681565b60405163ffffffff909116815260200161011f565b6101736101fb565b005b610173610183366004610f51565b61020f565b610173610196366004611015565b61029d565b60015461010090046001600160a01b031661010b565b61017361030a565b6101736101c7366004611041565b610358565b6101316101da36600461107f565b6103e7565b61013160005481565b6101736101f6366004611106565b61046d565b6102036104e6565b61020d6000610546565b565b60015460ff16806102485750336001600160a01b037f000000000000000000000000000000000000000000000000000000000000000016145b6102995760405162461bcd60e51b815260206004820152601860248201527f4f6e6c7920616461707465722063616e2066756c66696c6c000000000000000060448201526064015b60405180910390fd5b5050565b6102a56104e6565b621e848063ffffffff831611156102e057604051631fbf681360e31b815263ffffffff83166004820152621e84806024820152604401610290565b6001805463ffffffff909316600160a81b0263ffffffff60a81b1990931692909217909155600255565b606060006103196000836105ad565b90507f3573455bfd612c588441d8f1bec935c6cf4d3643fc8fda959594e4ea24a234d08160405161034c91815260200190565b60405180910390a15050565b60015460ff16806103915750336001600160a01b037f000000000000000000000000000000000000000000000000000000000000000016145b6103dd5760405162461bcd60e51b815260206004820152601860248201527f4f6e6c7920616461707465722063616e2066756c66696c6c00000000000000006044820152606401610290565b6102998282610b5e565b6000805a905061042e868686868080601f0160208091040260200160405190810160405280939291908181526020018383808284376000920191909152505050505a610b9c565b61043757600080fd5b60005a610444908361113e565b9050600061045182610bb4565b90508060405162461bcd60e51b815260040161029091906111a1565b6104756104e6565b6001600160a01b0381166104da5760405162461bcd60e51b815260206004820152602660248201527f4f776e61626c653a206e6577206f776e657220697320746865207a65726f206160448201526564647265737360d01b6064820152608401610290565b6104e381610546565b50565b6001546001600160a01b0361010090910416331461020d5760405162461bcd60e51b815260206004820181905260248201527f4f776e61626c653a2063616c6c6572206973206e6f7420746865206f776e65726044820152606401610290565b600180546001600160a01b0383811661010081810274ffffffffffffffffffffffffffffffffffffffff001985161790945560405193909204169182907f8be0079c531659141344cd1fd0a4f28419497f9722a3daafe3b4186f6b6457e090600090a35050565b6001805460ff191681179055600080546040805160208082018590523382840152606080830194909452825180830390940184526080909101909152815191012060006105f982610d0f565b600154909150600160a81b900463ffffffff16600003610a825760606000866002811115610629576106296111b4565b03610695575060408051602481018390527fe5c171541b9a43bf39a8e387606b82493eb141ea04772ea12d8e1aa1e52601006044808301919091528251808303909101815260649091019091526020810180516001600160e01b03166394985ddd60e01b17905261090b565b60018660028111156106a9576106a96111b4565b036107f8576000858060200190518101906106c491906111ca565b905060008163ffffffff1667ffffffffffffffff8111156106e7576106e7610f0a565b604051908082528060200260200182016040528015610710578160200160208202803683370190505b50905060005b8263ffffffff1681101561079f57604080517fe5c171541b9a43bf39a8e387606b82493eb141ea04772ea12d8e1aa1e526010060208201529081018290526060016040516020818303038152906040528051906020012060001c828281518110610782576107826111e7565b602090810291909101015280610797816111fd565b915050610716565b506040516375bf929b60e01b906107bc9086908490602401611216565b60408051601f198184030181529190526020810180516001600160e01b03166001600160e01b031990931692909217909152925061090b915050565b600286600281111561080c5761080c6111b4565b0361090b5760008580602001905181019061082791906111ca565b905060008163ffffffff1667ffffffffffffffff81111561084a5761084a610f0a565b604051908082528060200260200182016040528015610873578160200160208202803683370190505b50905060005b8263ffffffff168110156108b7578082828151811061089a5761089a6111e7565b6020908102919091010152806108af816111fd565b915050610879565b50604051634f2c1b7b60e11b906108d49086908490602401611216565b60408051601f198184030181529190526020810180516001600160e01b03166001600160e01b031990931692909217909152925050505b600080306001600160a01b0316639f15c78560e01b3060008660405160240161093693929190611264565b60408051601f198184030181529181526020820180516001600160e01b03166001600160e01b03199094169390931790925290516109749190611298565b6000604051808303816000865af19150503d80600081146109b1576040519150601f19603f3d011682016040523d82523d6000602084013e6109b6565b606091505b509150915060006109c682610d41565b9050621e84808111156109f857604051631fbf681360e31b815260048101829052621e84806024820152604401610290565b82158015610a0557508015155b610a515760405162461bcd60e51b815260206004820181905260248201527f66756c66696c6c52616e646f6d6e657373206472792d72756e206661696c65646044820152606401610290565b610a5d617530826112b4565b600160156101000a81548163ffffffff021916908363ffffffff160217905550505050505b604051631daa446f60e21b8152306004820152610b4b90869086906001600160a01b037f000000000000000000000000000000000000000000000000000000000000000016906376a911bc90602401602060405180830381865afa158015610aee573d6000803e3d6000fd5b505050506040513d601f19601f82011682018060405250810190610b1291906112d8565b60006006600160159054906101000a900463ffffffff16600254600014610b3b57600254610d7d565b610b463a6003611302565b610d7d565b6001805460ff1916905595945050505050565b817f9b0aa3f92f46e24caa76b000bdf0dd495b9b390c320cf6585ae10a12b7d09edb82604051610b9091815260200190565b60405180910390a25050565b6000806000845160208601878987f195945050505050565b60408051606480825260a08201909252606091906000908260208201818036833701905050905060005b8415610c48576000610bf1600a8761132f565b9050610bfe600a87611343565b9550610c0b816030611357565b60f81b8383610c19816111fd565b945081518110610c2b57610c2b6111e7565b60200101906001600160f81b031916908160001a90535050610bde565b6000610c55826001611357565b67ffffffffffffffff811115610c6d57610c6d610f0a565b6040519080825280601f01601f191660200182016040528015610c97576020820181803683370190505b50905060005b828111610d055783610caf828561113e565b81518110610cbf57610cbf6111e7565b602001015160f81c60f81b828281518110610cdc57610cdc6111e7565b60200101906001600160f81b031916908160001a90535080610cfd816111fd565b915050610c9d565b5095945050505050565b600081604051602001610d2491815260200190565b604051602081830303815290604052805190602001209050919050565b6000604482511015610d5557506000919050565b600482019150610d7782806020019051810190610d72919061136a565b610e8a565b92915050565b60008054610d8c906001611357565b60008190555060006040518060e001604052808a6002811115610db157610db16111b4565b81526020018981526020018867ffffffffffffffff1681526020018781526020018661ffff1681526020018563ffffffff1681526020018481525090507f00000000000000000000000000000000000000000000000000000000000000006001600160a01b031663a39402d7826040518263ffffffff1660e01b8152600401610e3a91906113fe565b6020604051808303816000875af1158015610e59573d6000803e3d6000fd5b505050506040513d601f19601f82011682018060405250810190610e7d91906114a9565b9998505050505050505050565b600081815b8151811015610f03576000828281518110610eac57610eac6111e7565b016020015160f81c905060308110801590610ec8575060398111155b15610ef057610ed860308261113e565b610ee385600a611302565b610eed9190611357565b93505b5080610efb816111fd565b915050610e8f565b5050919050565b634e487b7160e01b600052604160045260246000fd5b604051601f8201601f1916810167ffffffffffffffff81118282101715610f4957610f49610f0a565b604052919050565b60008060408385031215610f6457600080fd5b8235915060208084013567ffffffffffffffff80821115610f8457600080fd5b818601915086601f830112610f9857600080fd5b813581811115610faa57610faa610f0a565b8060051b9150610fbb848301610f20565b8181529183018401918481019089841115610fd557600080fd5b938501935b83851015610ff357843582529385019390850190610fda565b8096505050505050509250929050565b63ffffffff811681146104e357600080fd5b6000806040838503121561102857600080fd5b823561103381611003565b946020939093013593505050565b6000806040838503121561105457600080fd5b50508035926020909101359150565b80356001600160a01b038116811461107a57600080fd5b919050565b6000806000806060858703121561109557600080fd5b61109e85611063565b935060208501359250604085013567ffffffffffffffff808211156110c257600080fd5b818701915087601f8301126110d657600080fd5b8135818111156110e557600080fd5b8860208285010111156110f757600080fd5b95989497505060200194505050565b60006020828403121561111857600080fd5b61112182611063565b9392505050565b634e487b7160e01b600052601160045260246000fd5b81810381811115610d7757610d77611128565b60005b8381101561116c578181015183820152602001611154565b50506000910152565b6000815180845261118d816020860160208601611151565b601f01601f19169290920160200192915050565b6020815260006111216020830184611175565b634e487b7160e01b600052602160045260246000fd5b6000602082840312156111dc57600080fd5b815161112181611003565b634e487b7160e01b600052603260045260246000fd5b60006001820161120f5761120f611128565b5060010190565b6000604082018483526020604081850152818551808452606086019150828701935060005b818110156112575784518352938301939183019160010161123b565b5090979650505050505050565b6001600160a01b038416815260ff8316602082015260606040820152600061128f6060830184611175565b95945050505050565b600082516112aa818460208701611151565b9190910192915050565b63ffffffff8181168382160190808211156112d1576112d1611128565b5092915050565b6000602082840312156112ea57600080fd5b815167ffffffffffffffff8116811461112157600080fd5b8082028115828204841417610d7757610d77611128565b634e487b7160e01b600052601260045260246000fd5b60008261133e5761133e611319565b500690565b60008261135257611352611319565b500490565b80820180821115610d7757610d77611128565b60006020828403121561137c57600080fd5b815167ffffffffffffffff8082111561139457600080fd5b818401915084601f8301126113a857600080fd5b8151818111156113ba576113ba610f0a565b6113cd601f8201601f1916602001610f20565b91508082528560208285010111156113e457600080fd5b6113f5816020840160208601611151565b50949350505050565b60208152600082516003811061142457634e487b7160e01b600052602160045260246000fd5b80602084015250602083015160e06040840152611445610100840182611175565b90506040840151611462606085018267ffffffffffffffff169052565b5060608401516080840152608084015161148260a085018261ffff169052565b5060a084015163ffffffff811660c08501525060c084015160e08401528091505092915050565b6000602082840312156114bb57600080fd5b505191905056fea26469706673582212204a971143faa521c62c320a7b34cbec8ffc662dbbdb3b57cb3b62f3e700e5853764736f6c63430008120033",
    "linkReferences": {}
  },
  "methodIdentifiers": {
    "adapter()": "03eadcfc",
    "callbackGasLimit()": "24f74697",
    "callbackMaxGasFee()": "17f768c5",
    "getRandomSeed()": "93b3cc6b",
    "nonce()": "affed0e0",
    "owner()": "8da5cb5b",
    "rawFulfillRandomWords(bytes32,uint256[])": "75bf929b",
    "rawFulfillRandomness(bytes32,uint256)": "94985ddd",
    "rawFulfillShuffledArray(bytes32,uint256[])": "9e5836f6",
    "renounceOwnership()": "715018a6",
    "requiredTxGas(address,uint256,bytes)": "9f15c785",
    "setCallbackGasConfig(uint32,uint256)": "8acd01a0",
    "transferOwnership(address)": "f2fde38b"
  },
  "id": 9
}