{
  "abi": [
    {
      "inputs": [
        {
          "internalType": "address",
          "name": "adapter",
          "type": "address"
        }
      ],
      "stateMutability": "nonpayable",
      "type": "constructor"
    },
    {
      "inputs": [
        {
          "internalType": "uint256",
          "name": "have",
          "type": "uint256"
        },
        {
          "internalType": "uint32",
          "name": "want",
          "type": "uint32"
        }
      ],
      "name": "GasLimitTooBig",
      "type": "error"
    },
    {
      "anonymous": false,
      "inputs": [
        {
          "indexed": true,
          "internalType": "uint256",
          "name": "tableId",
          "type": "uint256"
        },
        {
          "indexed": true,
          "internalType": "address",
          "name": "player",
          "type": "address"
        },
        {
          "indexed": true,
          "internalType": "uint256",
          "name": "round",
          "type": "uint256"
        },
        {
          "indexed": false,
          "internalType": "uint256",
          "name": "commitment",
          "type": "uint256"
        }
      ],
      "name": "CardCommitted",
      "type": "event"
    },
    {
      "anonymous": false,
      "inputs": [
        {
          "indexed": true,
          "internalType": "uint256",
          "name": "tableId",
          "type": "uint256"
        },
        {
          "indexed": true,
          "internalType": "address",
          "name": "player",
          "type": "address"
        },
        {
          "indexed": false,
          "internalType": "uint256",
          "name": "set",
          "type": "uint256"
        },
        {
          "indexed": false,
          "internalType": "uint256",
          "name": "round",
          "type": "uint256"
        },
        {
          "indexed": false,
          "internalType": "uint256",
          "name": "index",
          "type": "uint256"
        },
        {
          "indexed": false,
          "internalType": "uint256",
          "name": "card",
          "type": "uint256"
        }
      ],
      "name": "CardPlayed",
      "type": "event"
    },
    {
      "anonymous": false,
      "inputs": [
        {
          "indexed": true,
          "internalType": "uint256",
          "name": "tableId",
          "type": "uint256"
        },
        {
          "indexed": true,
          "internalType": "bytes32",
          "name": "requestId",
          "type": "bytes32"
        },
        {
          "indexed": false,
          "internalType": "uint256[]",
          "name": "cardPool",
          "type": "uint256[]"
        },
        {
          "indexed": false,
          "internalType": "uint8",
          "name": "ruleType",
          "type": "uint8"
        },
        {
          "indexed": false,
          "internalType": "uint256",
          "name": "randomness",
          "type": "uint256"
        }
      ],
      "name": "CardPoolGenerated",
      "type": "event"
    },
    {
      "anonymous": false,
      "inputs": [
        {
          "indexed": true,
          "internalType": "uint256",
          "name": "tableId",
          "type": "uint256"
        },
        {
          "indexed": true,
          "internalType": "address",
          "name": "player",
          "type": "address"
        },
        {
          "indexed": false,
          "internalType": "uint256",
          "name": "set",
          "type": "uint256"
        },
        {
          "indexed": false,
          "internalType": "uint256",
          "name": "round",
          "type": "uint256"
        }
      ],
      "name": "CheatDetected",
      "type": "event"
    },
    {
      "anonymous": false,
      "inputs": [
        {
          "indexed": true,
          "internalType": "uint256",
          "name": "tableId",
          "type": "uint256"
        },
        {
          "indexed": true,
          "internalType": "address",
          "name": "winner",
          "type": "address"
        }
      ],
      "name": "GameEnded",
      "type": "event"
    },
    {
      "anonymous": false,
      "inputs": [
        {
          "indexed": true,
          "internalType": "uint256",
          "name": "tableId",
          "type": "uint256"
        },
        {
          "indexed": true,
          "internalType": "address",
          "name": "player",
          "type": "address"
        },
        {
          "indexed": false,
          "internalType": "uint256[]",
          "name": "hands",
          "type": "uint256[]"
        }
      ],
      "name": "HandsCommitted",
      "type": "event"
    },
    {
      "anonymous": false,
      "inputs": [
        {
          "indexed": true,
          "internalType": "address",
          "name": "previousOwner",
          "type": "address"
        },
        {
          "indexed": true,
          "internalType": "address",
          "name": "newOwner",
          "type": "address"
        }
      ],
      "name": "OwnershipTransferred",
      "type": "event"
    },
    {
      "anonymous": false,
      "inputs": [
        {
          "indexed": true,
          "internalType": "uint256",
          "name": "tableId",
          "type": "uint256"
        },
        {
          "indexed": true,
          "internalType": "bytes32",
          "name": "requestId",
          "type": "bytes32"
        }
      ],
      "name": "RandomnessRequested",
      "type": "event"
    },
    {
      "anonymous": false,
      "inputs": [
        {
          "indexed": true,
          "internalType": "uint256",
          "name": "tableId",
          "type": "uint256"
        },
        {
          "indexed": true,
          "internalType": "uint256",
          "name": "set",
          "type": "uint256"
        },
        {
          "indexed": true,
          "internalType": "uint256",
          "name": "round",
          "type": "uint256"
        },
        {
          "indexed": false,
          "internalType": "address",
          "name": "winner",
          "type": "address"
        },
        {
          "indexed": false,
          "internalType": "uint256",
          "name": "points",
          "type": "uint256"
        }
      ],
      "name": "RoundEnded",
      "type": "event"
    },
    {
      "anonymous": false,
      "inputs": [
        {
          "indexed": true,
          "internalType": "uint256",
          "name": "tableId",
          "type": "uint256"
        },
        {
          "indexed": true,
          "internalType": "address",
          "name": "player",
          "type": "address"
        },
        {
          "indexed": false,
          "internalType": "uint8",
          "name": "ruleType",
          "type": "uint8"
        }
      ],
      "name": "RuleTypeDetermined",
      "type": "event"
    },
    {
      "anonymous": false,
      "inputs": [
        {
          "indexed": true,
          "internalType": "uint256",
          "name": "tableId",
          "type": "uint256"
        },
        {
          "indexed": true,
          "internalType": "uint256",
          "name": "set",
          "type": "uint256"
        },
        {
          "indexed": false,
          "internalType": "address",
          "name": "winner",
          "type": "address"
        }
      ],
      "name": "SetEnded",
      "type": "event"
    },
    {
      "anonymous": false,
      "inputs": [
        {
          "indexed": true,
          "internalType": "uint256",
          "name": "tableId",
          "type": "uint256"
        },
        {
          "indexed": true,
          "internalType": "address",
          "name": "player",
          "type": "address"
        }
      ],
      "name": "TableCreated",
      "type": "event"
    },
    {
      "anonymous": false,
      "inputs": [
        {
          "indexed": true,
          "internalType": "uint256",
          "name": "tableId",
          "type": "uint256"
        },
        {
          "indexed": true,
          "internalType": "address",
          "name": "player",
          "type": "address"
        }
      ],
      "name": "TableJoined",
      "type": "event"
    },
    {
      "inputs": [],
      "name": "adapter",
      "outputs": [
        {
          "internalType": "address",
          "name": "",
          "type": "address"
        }
      ],
      "stateMutability": "view",
      "type": "function"
    },
    {
      "inputs": [],
      "name": "callbackGasLimit",
      "outputs": [
        {
          "internalType": "uint32",
          "name": "",
          "type": "uint32"
        }
      ],
      "stateMutability": "view",
      "type": "function"
    },
    {
      "inputs": [],
      "name": "callbackMaxGasFee",
      "outputs": [
        {
          "internalType": "uint256",
          "name": "",
          "type": "uint256"
        }
      ],
      "stateMutability": "view",
      "type": "function"
    },
    {
      "inputs": [
        {
          "internalType": "uint256",
          "name": "tableId",
          "type": "uint256"
        }
      ],
      "name": "clearTable",
      "outputs": [],
      "stateMutability": "nonpayable",
      "type": "function"
    },
    {
      "inputs": [
        {
          "internalType": "uint256",
          "name": "tableId",
          "type": "uint256"
        },
        {
          "internalType": "uint256",
          "name": "commitment",
          "type": "uint256"
        }
      ],
      "name": "commit",
      "outputs": [],
      "stateMutability": "nonpayable",
      "type": "function"
    },
    {
      "inputs": [
        {
          "internalType": "uint256",
          "name": "tableId",
          "type": "uint256"
        },
        {
          "internalType": "uint256[]",
          "name": "hands",
          "type": "uint256[]"
        }
      ],
      "name": "commitHands",
      "outputs": [],
      "stateMutability": "nonpayable",
      "type": "function"
    },
    {
      "inputs": [],
      "name": "createTable",
      "outputs": [],
      "stateMutability": "nonpayable",
      "type": "function"
    },
    {
      "inputs": [
        {
          "internalType": "uint256",
          "name": "tableId",
          "type": "uint256"
        },
        {
          "internalType": "uint8",
          "name": "ruleType",
          "type": "uint8"
        }
      ],
      "name": "determineRuleType",
      "outputs": [],
      "stateMutability": "nonpayable",
      "type": "function"
    },
    {
      "inputs": [
        {
          "internalType": "uint256",
          "name": "tableId",
          "type": "uint256"
        }
      ],
      "name": "getCardPool",
      "outputs": [
        {
          "internalType": "uint256[]",
          "name": "",
          "type": "uint256[]"
        }
      ],
      "stateMutability": "view",
      "type": "function"
    },
    {
      "inputs": [
        {
          "internalType": "uint256",
          "name": "tableId",
          "type": "uint256"
        }
      ],
      "name": "getCurrentState",
      "outputs": [
        {
          "internalType": "uint256",
          "name": "",
          "type": "uint256"
        },
        {
          "internalType": "uint256",
          "name": "",
          "type": "uint256"
        }
      ],
      "stateMutability": "view",
      "type": "function"
    },
    {
      "inputs": [
        {
          "internalType": "uint256",
          "name": "tableId",
          "type": "uint256"
        },
        {
          "internalType": "address",
          "name": "player",
          "type": "address"
        }
      ],
      "name": "getHands",
      "outputs": [
        {
          "internalType": "uint256[]",
          "name": "",
          "type": "uint256[]"
        }
      ],
      "stateMutability": "view",
      "type": "function"
    },
    {
      "inputs": [
        {
          "internalType": "uint256",
          "name": "tableId",
          "type": "uint256"
        }
      ],
      "name": "getPlayers",
      "outputs": [
        {
          "internalType": "address[]",
          "name": "",
          "type": "address[]"
        }
      ],
      "stateMutability": "view",
      "type": "function"
    },
    {
      "inputs": [
        {
          "internalType": "uint256",
          "name": "tableId",
          "type": "uint256"
        }
      ],
      "name": "getRandomSeed",
      "outputs": [],
      "stateMutability": "nonpayable",
      "type": "function"
    },
    {
      "inputs": [
        {
          "internalType": "uint256",
          "name": "tableId",
          "type": "uint256"
        }
      ],
      "name": "joinTable",
      "outputs": [],
      "stateMutability": "nonpayable",
      "type": "function"
    },
    {
      "inputs": [],
      "name": "nonce",
      "outputs": [
        {
          "internalType": "uint256",
          "name": "",
          "type": "uint256"
        }
      ],
      "stateMutability": "view",
      "type": "function"
    },
    {
      "inputs": [],
      "name": "owner",
      "outputs": [
        {
          "internalType": "address",
          "name": "",
          "type": "address"
        }
      ],
      "stateMutability": "view",
      "type": "function"
    },
    {
      "inputs": [
        {
          "internalType": "uint256",
          "name": "tableId",
          "type": "uint256"
        },
        {
          "internalType": "uint256",
          "name": "index",
          "type": "uint256"
        },
        {
          "internalType": "uint256",
          "name": "card",
          "type": "uint256"
        },
        {
          "internalType": "uint256",
          "name": "salt",
          "type": "uint256"
        },
        {
          "internalType": "uint256",
          "name": "hiddenSalt",
          "type": "uint256"
        }
      ],
      "name": "play",
      "outputs": [],
      "stateMutability": "nonpayable",
      "type": "function"
    },
    {
      "inputs": [
        {
          "internalType": "bytes32",
          "name": "requestId",
          "type": "bytes32"
        },
        {
          "internalType": "uint256[]",
          "name": "randomWords",
          "type": "uint256[]"
        }
      ],
      "name": "rawFulfillRandomWords",
      "outputs": [],
      "stateMutability": "nonpayable",
      "type": "function"
    },
    {
      "inputs": [
        {
          "internalType": "bytes32",
          "name": "requestId",
          "type": "bytes32"
        },
        {
          "internalType": "uint256",
          "name": "randomness",
          "type": "uint256"
        }
      ],
      "name": "rawFulfillRandomness",
      "outputs": [],
      "stateMutability": "nonpayable",
      "type": "function"
    },
    {
      "inputs": [
        {
          "internalType": "bytes32",
          "name": "requestId",
          "type": "bytes32"
        },
        {
          "internalType": "uint256[]",
          "name": "shuffledArray",
          "type": "uint256[]"
        }
      ],
      "name": "rawFulfillShuffledArray",
      "outputs": [],
      "stateMutability": "nonpayable",
      "type": "function"
    },
    {
      "inputs": [],
      "name": "renounceOwnership",
      "outputs": [],
      "stateMutability": "nonpayable",
      "type": "function"
    },
    {
      "inputs": [],
      "name": "requestConfirmations",
      "outputs": [
        {
          "internalType": "uint16",
          "name": "",
          "type": "uint16"
        }
      ],
      "stateMutability": "view",
      "type": "function"
    },
    {
      "inputs": [
        {
          "internalType": "address",
          "name": "to",
          "type": "address"
        },
        {
          "internalType": "uint256",
          "name": "value",
          "type": "uint256"
        },
        {
          "internalType": "bytes",
          "name": "data",
          "type": "bytes"
        }
      ],
      "name": "requiredTxGas",
      "outputs": [
        {
          "internalType": "uint256",
          "name": "",
          "type": "uint256"
        }
      ],
      "stateMutability": "nonpayable",
      "type": "function"
    },
    {
      "inputs": [
        {
          "internalType": "uint32",
          "name": "_callbackGasLimit",
          "type": "uint32"
        },
        {
          "internalType": "uint256",
          "name": "_callbackMaxGasFee",
          "type": "uint256"
        }
      ],
      "name": "setCallbackGasConfig",
      "outputs": [],
      "stateMutability": "nonpayable",
      "type": "function"
    },
    {
      "inputs": [
        {
          "internalType": "uint16",
          "name": "_requestConfirmations",
          "type": "uint16"
        }
      ],
      "name": "setRequestConfirmations",
      "outputs": [],
      "stateMutability": "nonpayable",
      "type": "function"
    },
    {
      "inputs": [
        {
          "internalType": "bytes32",
          "name": "",
          "type": "bytes32"
        }
      ],
      "name": "tableIds",
      "outputs": [
        {
          "internalType": "uint256",
          "name": "",
          "type": "uint256"
        }
      ],
      "stateMutability": "view",
      "type": "function"
    },
    {
      "inputs": [
        {
          "internalType": "uint256",
          "name": "",
          "type": "uint256"
        }
      ],
      "name": "tables",
      "outputs": [
        {
          "internalType": "uint256",
          "name": "id",
          "type": "uint256"
        },
        {
          "internalType": "uint8",
          "name": "ruleType",
          "type": "uint8"
        },
        {
          "internalType": "uint8",
          "name": "randomnessState",
          "type": "uint8"
        },
        {
          "internalType": "uint8",
          "name": "currentSet",
          "type": "uint8"
        },
        {
          "internalType": "uint8",
          "name": "currentRound",
          "type": "uint8"
        },
        {
          "internalType": "address",
          "name": "lastSetWinner",
          "type": "address"
        },
        {
          "internalType": "address",
          "name": "winner",
          "type": "address"
        }
      ],
      "stateMutability": "view",
      "type": "function"
    },
    {
      "inputs": [
        {
          "internalType": "address",
          "name": "newOwner",
          "type": "address"
        }
      ],
      "name": "transferOwnership",
      "outputs": [],
      "stateMutability": "nonpayable",
      "type": "function"
    }
  ],
  "bytecode": {
    "object": "0x60a060405260016000553480156200001657600080fd5b5060405162004f2538038062004f258339810160408190526200003991620000b2565b6001600160a01b038116608052620000513362000058565b50620000e4565b600180546001600160a01b03838116610100818102610100600160a81b031985161790945560405193909204169182907f8be0079c531659141344cd1fd0a4f28419497f9722a3daafe3b4186f6b6457e090600090a35050565b600060208284031215620000c557600080fd5b81516001600160a01b0381168114620000dd57600080fd5b9392505050565b608051614e0262000123600039600081816101e20152818161172c01528181611cea0152818161283c0152818161290001526136540152614e026000f3fe608060405234801561001057600080fd5b50600436106101c35760003560e01c806375bf929b116100f95780639f15c78511610097578063b2a4c89711610071578063b2a4c8971461049e578063b7f6062b146104a6578063c19961c5146104b9578063f2fde38b146104cc57600080fd5b80639f15c78514610461578063affed0e014610474578063b0fb162f1461047d57600080fd5b80638acd01a0116100d35780638acd01a0146104255780638da5cb5b1461043857806394985ddd1461044e5780639e5836f6146103ec57600080fd5b806375bf929b146103ec5780637fe7c4b6146103ff5780638824f5a71461041257600080fd5b8063460e2049116101665780635b76a05a116101405780635b76a05a146103125780635bf56bc414610325578063715018a61461033857806371671bf21461034057600080fd5b8063460e2049146102aa57806355d28efe146102ca5780635748c130146102ea57600080fd5b806317f768c5116101a257806317f768c51461023457806318a25ad01461024b57806324f746971461026b5780633823bb031461029757600080fd5b806250805f146101c857806303eadcfc146101dd57806305ad94c314610221575b600080fd5b6101db6101d636600461469f565b6104df565b005b6102047f000000000000000000000000000000000000000000000000000000000000000081565b6040516001600160a01b0390911681526020015b60405180910390f35b6101db61022f3660046146e6565b61085f565b61023d60025481565b604051908152602001610218565b61023d6102593660046146e6565b60046020526000908152604090205481565b60015461028290600160a81b900463ffffffff1681565b60405163ffffffff9091168152602001610218565b6101db6102a53660046146e6565b6108f1565b6102bd6102b83660046146e6565b610c00565b60405161021891906146ff565b6102dd6102d83660046146e6565b610d8e565b6040516102189190614787565b6102fd6102f83660046146e6565b610e47565b60408051928352602083019190915201610218565b6101db6103203660046147a1565b610ea5565b6101db6103333660046147d7565b6111a2565b6101db611701565b6103a361034e3660046146e6565b600560205260009081526040902080546003820154600490920154909160ff8082169261010083048216926201000081048316926301000000820416916001600160a01b036401000000009092048216911687565b6040805197885260ff968716602089015294861694870194909452918416606086015290921660808401526001600160a01b0391821660a08401521660c082015260e001610218565b6101db6103fa36600461469f565b611715565b6101db61040d3660046147f9565b61179e565b6101db610420366004614844565b611c46565b6101db610433366004614873565b611c66565b60015461010090046001600160a01b0316610204565b6101db61045c3660046147d7565b611cd3565b61023d61046f3660046148bb565b611d62565b61023d60005481565b60035461048b9061ffff1681565b60405161ffff9091168152602001610218565b6101db611de8565b6101db6104b43660046146e6565b612075565b6102dd6104c7366004614942565b61213d565b6101db6104da36600461496e565b6122dc565b60008281526005602052604090206004015482906001600160a01b03161561053b5760405162461bcd60e51b815260206004820152600a60248201526911d85b5948195b99195960b21b60448201526064015b60405180910390fd5b60008381526005602052604090206002015460141461059c5760405162461bcd60e51b815260206004820152601a60248201527f4361726420706f6f6c206973206e6f742067656e6572617465640000000000006044820152606401610532565b81516005146105dd5760405162461bcd60e51b815260206004820152600d60248201526c496e76616c69642068616e647360981b6044820152606401610532565b600083815260056020526040812060010180543392906105ff576105ff614989565b60009182526020909120600690910201546001600160a01b0316036106ed576000838152600560205260408120600101805490919061064057610640614989565b6000918252602090912060016006909202010154156106a15760405162461bcd60e51b815260206004820152601760248201527f48616e647320616c726561647920636f6d6d69747465640000000000000000006044820152606401610532565b600083815260056020526040812060010180548492906106c3576106c3614989565b906000526020600020906006020160010190805190602001906106e79291906144d9565b50610818565b600083815260056020526040902060019081018054339290811061071357610713614989565b60009182526020909120600690910201546001600160a01b0316036107e1576005600084815260200190815260200160002060010160018154811061075a5761075a614989565b6000918252602090912060016006909202010154156107bb5760405162461bcd60e51b815260206004820152601760248201527f48616e647320616c726561647920636f6d6d69747465640000000000000000006044820152606401610532565b60008381526005602052604090206001908101805484929081106106c3576106c3614989565b60405162461bcd60e51b815260206004820152600c60248201526b2737ba103090383630bcb2b960a11b6044820152606401610532565b336001600160a01b0316837f1ea4b8172e49a1a4307f7da7f6bfda044425f9e9e6a04b0e8884789bccf5110c846040516108529190614787565b60405180910390a3505050565b600081815260056020526040902060030154610100900460ff166001036108835750565b60606000610892600083612355565b60008181526004602090815260408083208790558683526005909152808220600301805461ff00191661010017905551919250829185917f587602b661da57eff43c58d2ebb4b7c66d08862f786faf29f390136b3309a12891a3505050565b60008181526005602052604090206004015481906001600160a01b0316156109485760405162461bcd60e51b815260206004820152600a60248201526911d85b5948195b99195960b21b6044820152606401610532565b600082815260056020526040812054900361099c5760405162461bcd60e51b81526020600482015260146024820152731518589b1948191bd95cc81b9bdd08195e1a5cdd60621b6044820152606401610532565b6000828152600560205260409020600101546002116109ed5760405162461bcd60e51b815260206004820152600d60248201526c1518589b19481a5cc8199d5b1b609a1b6044820152606401610532565b6000828152600560208181526040808420815160c08082018452338252835196875286850184528185019690965282518581529586018352600190910194909391840192909190820160a080368337505050815260408051600580825260c08201909252602092830192909190820160a080368337505050815260408051600580825260c08201909252602092830192909190820160a0803683370190505081526000602091820181905283546001808201865594825290829020835160069092020180546001600160a01b0319166001600160a01b0390921691909117815582820151805193949193610ae9939285019291909101906144d9565b5060408201518051610b059160028401916020909101906144d9565b5060608201518051610b219160038401916020909101906144d9565b5060808201518051610b3d9160048401916020909101906144d9565b5060a091909101516005909101805460ff191660ff90921691909117905560005b6005811015610bce57600083815260056020526040902060019081018054603492908110610b8e57610b8e614989565b90600052602060002090600602016003018281548110610bb057610bb0614989565b60009182526020909120015580610bc6816149b5565b915050610b5e565b50604051339083907f8da26e3d4618534e5b0f9beebe60b2b635aaf7133ed1d582dfc4ff91d0be3d6590600090a35050565b60008181526005602052604081205460609103610c565760405162461bcd60e51b81526020600482015260146024820152731518589b1948191bd95cc81b9bdd08195e1a5cdd60621b6044820152606401610532565b60408051600280825260608201835260009260208301908036833750505060008481526005602052604090206001015490915015610d885760008381526005602052604081206001018054909190610cb057610cb0614989565b6000918252602082206006909102015482516001600160a01b03909116918391610cdc57610cdc614989565b6001600160a01b0390921660209283029190910182015260008481526005909152604090206001908101541115610d885760056000848152602001908152602001600020600101600181548110610d3557610d35614989565b600091825260209091206006909102015481516001600160a01b039091169082906001908110610d6757610d67614989565b60200260200101906001600160a01b031690816001600160a01b0316815250505b92915050565b60008181526005602052604081205460609103610de45760405162461bcd60e51b81526020600482015260146024820152731518589b1948191bd95cc81b9bdd08195e1a5cdd60621b6044820152606401610532565b60008281526005602090815260409182902060020180548351818402810184019094528084529091830182828015610e3b57602002820191906000526020600020905b815481526020019060010190808311610e27575b50505050509050919050565b6000818152600560205260408120600301548190610e6f9062010000900460ff1660016149ce565b600084815260056020526040902060030154610e96906301000000900460ff1660016149ce565b60ff9182169591169350915050565b60008281526005602052604090206004015482906001600160a01b031615610efc5760405162461bcd60e51b815260206004820152600a60248201526911d85b5948195b99195960b21b6044820152606401610532565b6000838152600560205260408120549003610f505760405162461bcd60e51b81526020600482015260146024820152731518589b1948191bd95cc81b9bdd08195e1a5cdd60621b6044820152606401610532565b60008381526005602052604081206001018054339290610f7257610f72614989565b60009182526020909120600690910201546001600160a01b03161480610fd557506000838152600560205260409020600190810180543392908110610fb957610fb9614989565b60009182526020909120600690910201546001600160a01b0316145b6110105760405162461bcd60e51b815260206004820152600c60248201526b2737ba103090383630bcb2b960a11b6044820152606401610532565b60008381526005602052604090206003015460ff16156110725760405162461bcd60e51b815260206004820152601c60248201527f52756c65207479706520616c72656164792064657465726d696e6564000000006044820152606401610532565b8160ff166001148061108757508160ff166002145b6110c75760405162461bcd60e51b8152602060048201526011602482015270496e76616c69642072756c65207479706560781b6044820152606401610532565b600083815260056020526040902060030154336401000000009091046001600160a01b03160361114c5760405162461bcd60e51b815260206004820152602a60248201527f4c617374207365742077696e6e65722063616e6e6f742064657465726d696e656044820152692072756c65207479706560b01b6064820152608401610532565b600083815260056020908152604091829020600301805460ff191660ff86169081179091559151918252339185917fff25e3459847a609630f6b1c4ae8ed5a3efa8900ac082126527000d7e465b6069101610852565b60008281526005602052604090206004015482906001600160a01b0316156111f95760405162461bcd60e51b815260206004820152600a60248201526911d85b5948195b99195960b21b6044820152606401610532565b600083815260056020526040812054900361124d5760405162461bcd60e51b81526020600482015260146024820152731518589b1948191bd95cc81b9bdd08195e1a5cdd60621b6044820152606401610532565b6000838152600560205260409020600201546014146112ae5760405162461bcd60e51b815260206004820152601a60248201527f4361726420706f6f6c206973206e6f742067656e6572617465640000000000006044820152606401610532565b60008381526005602052604090206003015460ff16600114806112e5575060008381526005602052604090206003015460ff166002145b6113315760405162461bcd60e51b815260206004820152601860248201527f52756c652074797065206e6f742064657465726d696e656400000000000000006044820152606401610532565b6000838152600560205260408120600101805490919061135357611353614989565b6000918252602090912060016006909202010154158015906113af57506005600084815260200190815260200160002060010160018154811061139857611398614989565b600091825260209091206001600690920201015415155b6113f15760405162461bcd60e51b815260206004820152601360248201527212185b991cc81b9bdd0818dbdb5b5a5d1d1959606a1b6044820152606401610532565b6000838152600560205260408120600101805433929061141357611413614989565b60009182526020909120600690910201546001600160a01b031603611571576000838152600560205260408120600101805490919061145457611454614989565b90600052602060002090600602016002016005600085815260200190815260200160002060030160039054906101000a900460ff1660ff168154811061149c5761149c614989565b90600052602060002001546000146114f65760405162461bcd60e51b815260206004820152601960248201527f436f6d6d69746d656e7420616c726561647920706c61796564000000000000006044820152606401610532565b6000838152600560205260408120600101805484929061151857611518614989565b90600052602060002090600602016002016005600086815260200190815260200160002060030160039054906101000a900460ff1660ff168154811061156057611560614989565b6000918252602090912001556116a6565b600083815260056020526040902060019081018054339290811061159757611597614989565b60009182526020909120600690910201546001600160a01b0316036107e157600560008481526020019081526020016000206001016001815481106115de576115de614989565b90600052602060002090600602016002016005600085815260200190815260200160002060030160039054906101000a900460ff1660ff168154811061162657611626614989565b90600052602060002001546000146116805760405162461bcd60e51b815260206004820152601960248201527f436f6d6d69746d656e7420616c726561647920706c61796564000000000000006044820152606401610532565b600083815260056020526040902060019081018054849290811061151857611518614989565b600083815260056020908152604091829020600301549151848152630100000090920460ff1691339186917f9e35972e95a2421b22092fe9e297e85319ba683d7020d86af10a644966bc8eea910160405180910390a4505050565b6117096129ba565b6117136000612a1a565b565b60015460ff168061174e5750336001600160a01b037f000000000000000000000000000000000000000000000000000000000000000016145b61179a5760405162461bcd60e51b815260206004820152601860248201527f4f6e6c7920616461707465722063616e2066756c66696c6c00000000000000006044820152606401610532565b5050565b60008581526005602052604090206004015485906001600160a01b0316156117f55760405162461bcd60e51b815260206004820152600a60248201526911d85b5948195b99195960b21b6044820152606401610532565b60008681526005602052604081205490036118495760405162461bcd60e51b81526020600482015260146024820152731518589b1948191bd95cc81b9bdd08195e1a5cdd60621b6044820152606401610532565b6000868152600560205260409020600201546014146118aa5760405162461bcd60e51b815260206004820152601a60248201527f4361726420706f6f6c206973206e6f742067656e6572617465640000000000006044820152606401610532565b60008681526005602052604090206003015460ff16600114806118e1575060008681526005602052604090206003015460ff166002145b61192d5760405162461bcd60e51b815260206004820152601860248201527f52756c652074797065206e6f742064657465726d696e656400000000000000006044820152606401610532565b6005851061196d5760405162461bcd60e51b815260206004820152600d60248201526c092dcecc2d8d2c840d2dcc8caf609b1b6044820152606401610532565b6000868152600560205260408120600101805433929061198f5761198f614989565b60009182526020909120600690910201546001600160a01b031603611a3d576119bd86600087878787612a81565b15611c3e57600086815260056020526040812060010180548692906119e4576119e4614989565b90600052602060002090600602016003016005600089815260200190815260200160002060030160039054906101000a900460ff1660ff1681548110611a2c57611a2c614989565b600091825260209091200155611abc565b6000868152600560205260409020600190810180543392908110611a6357611a63614989565b60009182526020909120600690910201546001600160a01b0316036107e157611a9186600187878787612a81565b15611c3e5760008681526005602052604090206001908101805486929081106119e4576119e4614989565b60008681526005602090815260409182902060030154825160ff6201000083048116825263010000009092049091169181019190915290810186905260608101859052339087907f7cf09429f14132d5cdad292f0637a4a63e0b9356e9e0ad74eab33a4595b956ac9060800160405180910390a360008681526005602052604081206001018054909190611b5257611b52614989565b90600052602060002090600602016003016005600088815260200190815260200160002060030160039054906101000a900460ff1660ff1681548110611b9a57611b9a614989565b9060005260206000200154603414158015611c30575060056000878152602001908152602001600020600101600181548110611bd857611bd8614989565b90600052602060002090600602016003016005600088815260200190815260200160002060030160039054906101000a900460ff1660ff1681548110611c2057611c20614989565b9060005260206000200154603414155b15611c3e57611c3e86612f72565b505050505050565b611c4e6129ba565b6003805461ffff191661ffff92909216919091179055565b611c6e6129ba565b621e848063ffffffff83161115611ca957604051631fbf681360e31b815263ffffffff83166004820152621e84806024820152604401610532565b6001805463ffffffff909316600160a81b0263ffffffff60a81b1990931692909217909155600255565b60015460ff1680611d0c5750336001600160a01b037f000000000000000000000000000000000000000000000000000000000000000016145b611d585760405162461bcd60e51b815260206004820152601860248201527f4f6e6c7920616461707465722063616e2066756c66696c6c00000000000000006044820152606401610532565b61179a828261324e565b6000805a9050611da9868686868080601f0160208091040260200160405190810160405280939291908181526020018383808284376000920191909152505050505a613406565b611db257600080fd5b60005a611dbf90836149e7565b90506000611dcc8261341e565b90508060405162461bcd60e51b81526004016105329190614a4a565b60004233604051602001611e1892919091825260601b6bffffffffffffffffffffffff1916602082015260340190565b60408051601f1981840301815282825280516020918201206000818152600580845284822083815582875284870195869052918390529092529251929350611e6692600290910191906144d9565b506000818152600560208181526040808420815160c08082018452338252835196875286850184528185019690965282518581529586018352600190910194909391840192909190820160a080368337505050815260408051600580825260c08201909252602092830192909190820160a080368337505050815260408051600580825260c08201909252602092830192909190820160a0803683370190505081526000602091820181905283546001808201865594825290829020835160069092020180546001600160a01b0319166001600160a01b0390921691909117815582820151805193949193611f63939285019291909101906144d9565b5060408201518051611f7f9160028401916020909101906144d9565b5060608201518051611f9b9160038401916020909101906144d9565b5060808201518051611fb79160048401916020909101906144d9565b5060a091909101516005909101805460ff191660ff90921691909117905560005b600581101561204457600082815260056020526040812060010180546034929061200457612004614989565b9060005260206000209060060201600301828154811061202657612026614989565b6000918252602090912001558061203c816149b5565b915050611fd8565b50604051339082907fe93806e02d09f53787d307ada312314ec4cb949dc9bedc8503f94bd46e45dc6b90600090a350565b61207d6129ba565b60008181526005602052604081205490036120d15760405162461bcd60e51b81526020600482015260146024820152731518589b1948191bd95cc81b9bdd08195e1a5cdd60621b6044820152606401610532565b6000818152600560205260408120818155906120f06001830182614524565b6120fe600283016000614545565b506003810180547fffffffffffffffff00000000000000000000000000000000000000000000000016905560040180546001600160a01b031916905550565b600082815260056020526040812054606091036121935760405162461bcd60e51b81526020600482015260146024820152731518589b1948191bd95cc81b9bdd08195e1a5cdd60621b6044820152606401610532565b600083815260056020526040812060010180546001600160a01b03851692906121be576121be614989565b60009182526020909120600690910201546001600160a01b03160361226657600083815260056020526040812060010180549091906121ff576121ff614989565b906000526020600020906006020160010180548060200260200160405190810160405280929190818152602001828054801561225a57602002820191906000526020600020905b815481526020019060010190808311612246575b50505050509050610d88565b6000838152600560205260409020600190810180546001600160a01b0385169290811061229557612295614989565b60009182526020909120600690910201546001600160a01b0316036107e157600560008481526020019081526020016000206001016001815481106121ff576121ff614989565b6122e46129ba565b6001600160a01b0381166123495760405162461bcd60e51b815260206004820152602660248201527f4f776e61626c653a206e6577206f776e657220697320746865207a65726f206160448201526564647265737360d01b6064820152608401610532565b61235281612a1a565b50565b6001805460ff191681179055600080546040805160208082018590523382840152606080830194909452825180830390940184526080909101909152815191012060006123a182613579565b600154909150600160a81b900463ffffffff1660000361282a57606060008660028111156123d1576123d1614a5d565b0361243d575060408051602481018390527fe5c171541b9a43bf39a8e387606b82493eb141ea04772ea12d8e1aa1e52601006044808301919091528251808303909101815260649091019091526020810180516001600160e01b03166394985ddd60e01b1790526126b3565b600186600281111561245157612451614a5d565b036125a05760008580602001905181019061246c9190614a73565b905060008163ffffffff1667ffffffffffffffff81111561248f5761248f6145d8565b6040519080825280602002602001820160405280156124b8578160200160208202803683370190505b50905060005b8263ffffffff1681101561254757604080517fe5c171541b9a43bf39a8e387606b82493eb141ea04772ea12d8e1aa1e526010060208201529081018290526060016040516020818303038152906040528051906020012060001c82828151811061252a5761252a614989565b60209081029190910101528061253f816149b5565b9150506124be565b506040516375bf929b60e01b906125649086908490602401614a90565b60408051601f198184030181529190526020810180516001600160e01b03166001600160e01b03199093169290921790915292506126b3915050565b60028660028111156125b4576125b4614a5d565b036126b3576000858060200190518101906125cf9190614a73565b905060008163ffffffff1667ffffffffffffffff8111156125f2576125f26145d8565b60405190808252806020026020018201604052801561261b578160200160208202803683370190505b50905060005b8263ffffffff1681101561265f578082828151811061264257612642614989565b602090810291909101015280612657816149b5565b915050612621565b50604051634f2c1b7b60e11b9061267c9086908490602401614a90565b60408051601f198184030181529190526020810180516001600160e01b03166001600160e01b031990931692909217909152925050505b600080306001600160a01b0316639f15c78560e01b306000866040516024016126de93929190614ab1565b60408051601f198184030181529181526020820180516001600160e01b03166001600160e01b031990941693909317909252905161271c9190614ae5565b6000604051808303816000865af19150503d8060008114612759576040519150601f19603f3d011682016040523d82523d6000602084013e61275e565b606091505b5091509150600061276e826135ab565b9050621e84808111156127a057604051631fbf681360e31b815260048101829052621e84806024820152604401610532565b821580156127ad57508015155b6127f95760405162461bcd60e51b815260206004820181905260248201527f66756c66696c6c52616e646f6d6e657373206472792d72756e206661696c65646044820152606401610532565b61280561753082614b01565b600160156101000a81548163ffffffff021916908363ffffffff160217905550505050505b60035461ffff166000036128db5760007f00000000000000000000000000000000000000000000000000000000000000006001600160a01b031663ef6f42736040518163ffffffff1660e01b815260040160e060405180830381865afa158015612898573d6000803e3d6000fd5b505050506040513d601f19601f820116820180604052508101906128bc9190614b25565b50506003805461ffff191661ffff969096169590951790945550505050505b604051631daa446f60e21b81523060048201526129a790869086906001600160a01b037f000000000000000000000000000000000000000000000000000000000000000016906376a911bc90602401602060405180830381865afa158015612947573d6000803e3d6000fd5b505050506040513d601f19601f8201168201806040525081019061296b9190614ba3565b60035460015460025460009261ffff1691600160a81b900463ffffffff169015612997576002546135e1565b6129a23a6003614bcd565b6135e1565b6001805460ff1916905595945050505050565b6001546001600160a01b036101009091041633146117135760405162461bcd60e51b815260206004820181905260248201527f4f776e61626c653a2063616c6c6572206973206e6f7420746865206f776e65726044820152606401610532565b600180546001600160a01b0383811661010081810274ffffffffffffffffffffffffffffffffffffffff001985161790945560405193909204169182907f8be0079c531659141344cd1fd0a4f28419497f9722a3daafe3b4186f6b6457e090600090a35050565b600086815260056020526040812060038101546001909101805460ff6201000084048116936301000000900416919089908110612ac057612ac0614989565b600091825260208220600160069092020101549003612b175760405162461bcd60e51b815260206004820152601360248201527212185b991cc81b9bdd0818dbdb5b5a5d1d1959606a1b6044820152606401610532565b6000898152600560205260409020600101805489908110612b3a57612b3a614989565b90600052602060002090600602016003018160ff1681548110612b5f57612b5f614989565b9060005260206000200154603414612bb95760405162461bcd60e51b815260206004820152601360248201527f4361726420616c726561647920706c61796564000000000000000000000000006044820152606401610532565b6000898152600560205260409020600101805489908110612bdc57612bdc614989565b90600052602060002090600602016002018160ff1681548110612c0157612c01614989565b9060005260206000200154600003612c5b5760405162461bcd60e51b815260206004820152601560248201527f436f6d6d69746d656e74206e6f7420706c6179656400000000000000000000006044820152606401610532565b604080516020810188905290810186905260600160408051601f19818403018152918152815160209283012060008c81526005909352912060010180548a908110612ca857612ca8614989565b90600052602060002090600602016002018260ff1681548110612ccd57612ccd614989565b906000526020600020015414612d255760405162461bcd60e51b815260206004820152601e60248201527f4361726420646f6573206e6f74206d6174636820636f6d6d69746d656e7400006044820152606401610532565b612d2f89876136ee565b612e2d576000898152600560205260409020600101805489908110612d5657612d56614989565b6000918252602091829020600690910201546040805160ff80871682528516938101939093526001600160a01b03909116918b917ff4f4725e5d1f6fadad9e35abae394b22e313face11d212bb1d06a23b00fa6f5b910160405180910390a36000898152600560205260409020600190810190612dd4908a906149e7565b81548110612de457612de4614989565b600091825260208083206006909202909101548b835260059091526040822060040180546001600160a01b0319166001600160a01b039092169190911790559250612f68915050565b861580612e3a5750866001145b15612ee657604080516020810188905290810185905260600160408051601f19818403018152918152815160209283012060008c81526005909352912060010180548a908110612e8c57612e8c614989565b90600052602060002090600602016001018881548110612eae57612eae614989565b906000526020600020015414612ee1576000898152600560205260409020600101805489908110612d5657612d56614989565b612f61565b600089815260056020526040902060010180548791908a908110612f0c57612f0c614989565b90600052602060002090600602016001018881548110612f2e57612f2e614989565b906000526020600020015414612f61576000898152600560205260409020600101805489908110612d5657612d56614989565b6001925050505b9695505050505050565b600081815260056020526040812060038101546001909101805460ff620100008404811694630100000090940416929182916130489187918691908590612fbb57612fbb614989565b90600052602060002090600602016003018660ff1681548110612fe057612fe0614989565b9060005260206000200154600560008a815260200190815260200160002060010160018154811061301357613013614989565b90600052602060002090600602016003018760ff168154811061303857613038614989565b90600052602060002001546137cb565b90925090506130588360016149ce565b604080516001600160a01b03851681526020810184905260ff9283169287169188917fea3598217c46acdf0eb2bb730b2fdcafd0d8756de5818271897eb732451eeac4910160405180910390a48260ff16600403613200576130b985613a0a565b6130c285613cce565b6130cd8460016149ce565b6000868152600560209081526040918290206003015491516401000000009092046001600160a01b0316825260ff929092169187917f3bb684f72c05a742d9d163e494d38cec31dc2d83b5e5268ad1970cb29b516645910160405180910390a3600061313886614112565b6001600160a01b031614613194576000858152600560205260408082206004015490516001600160a01b039091169187917f3d5fcd8fa3235aeb3897f25c8ea49989174981afcb01b9d03189d1056a16775b9190a35050505050565b60008581526005602052604090206003018054600191906002906131c290849062010000900460ff166149ce565b825460ff9182166101009390930a9283029190920219909116179055506000858152600560205260409020600301805463ff00000019169055613247565b6000858152600560205260409020600390810180546001929061322e9084906301000000900460ff166149ce565b92506101000a81548160ff021916908360ff1602179055505b5050505050565b600082815260046020526040812054906132696034846142db565b6040805160148082526102a0820190925291925060009190602082016102808036833701905050905060005b60148110156132e7578281815181106132b0576132b0614989565b60200260200101518282815181106132ca576132ca614989565b6020908102919091010152806132df816149b5565b915050613295565b506000838152600560209081526040909120825161330d926002909201918401906144d9565b5060008381526005602052604090206003015464010000000090046001600160a01b03166133aa576000613342600286614bfa565b61334d906001614c0e565b6000858152600560209081526040808320600301805460ff191660ff86169081179091559051908152929350909186917fff25e3459847a609630f6b1c4ae8ed5a3efa8900ac082126527000d7e465b606910160405180910390a3505b60008381526005602052604090819020600301549051869185917f6d2b20099f9fb6d0bdbb303f3d924200f3065c3b3a04cd44856df15618ba0055916133f791869160ff16908a90614c21565b60405180910390a35050505050565b6000806000845160208601878987f195945050505050565b60408051606480825260a08201909252606091906000908260208201818036833701905050905060005b84156134b257600061345b600a87614bfa565b9050613468600a87614c49565b9550613475816030614c0e565b60f81b8383613483816149b5565b94508151811061349557613495614989565b60200101906001600160f81b031916908160001a90535050613448565b60006134bf826001614c0e565b67ffffffffffffffff8111156134d7576134d76145d8565b6040519080825280601f01601f191660200182016040528015613501576020820181803683370190505b50905060005b82811161356f578361351982856149e7565b8151811061352957613529614989565b602001015160f81c60f81b82828151811061354657613546614989565b60200101906001600160f81b031916908160001a90535080613567816149b5565b915050613507565b5095945050505050565b60008160405160200161358e91815260200190565b604051602081830303815290604052805190602001209050919050565b60006044825110156135bf57506000919050565b600482019150610d88828060200190518101906135dc9190614c5d565b614437565b600080546135f0906001614c0e565b60008190555060006040518060e001604052808a600281111561361557613615614a5d565b81526020018981526020018867ffffffffffffffff1681526020018781526020018661ffff1681526020018563ffffffff1681526020018481525090507f00000000000000000000000000000000000000000000000000000000000000006001600160a01b031663a39402d7826040518263ffffffff1660e01b815260040161369e9190614cf1565b6020604051808303816000875af11580156136bd573d6000803e3d6000fd5b505050506040513d601f19601f820116820180604052508101906136e19190614d9c565b9998505050505050505050565b60008281526005602052604081205481036137425760405162461bcd60e51b81526020600482015260146024820152731518589b1948191bd95cc81b9bdd08195e1a5cdd60621b6044820152606401610532565b603382111561375357506000610d88565b60005b6000848152600560205260409020600201548110156137c157600084815260056020526040902060020180548491908390811061379557613795614989565b9060005260206000200154036137af576001915050610d88565b806137b9816149b5565b915050613756565b5060009392505050565b6000806000806137da866144b7565b915091506000806137ea876144b7565b60008c815260056020526040902060030154919350915060ff1660010361397a5781840361395e57808311156138cb5761382481846149e7565b945084156138c65760008a8152600560205260408120600101805487929061384e5761384e614989565b90600052602060002090600602016004018a60ff168154811061387357613873614989565b9060005260206000200181905550600560008b81526020019081526020016000206001016000815481106138a9576138a9614989565b60009182526020909120600690910201546001600160a01b031695505b6139fd565b6138d583826149e7565b945084156138c65760008a815260056020526040902060019081018054879290811061390357613903614989565b90600052602060002090600602016004018a60ff168154811061392857613928614989565b9060005260206000200181905550600560008b81526020019081526020016000206001016001815481106138a9576138a9614989565b80831115613970576138d581846149e7565b61382483826149e7565b60008a81526005602052604090206003015460ff166002036139c1578184036139af5780831115613970576138d581846149e7565b808311156138cb5761382481846149e7565b60405162461bcd60e51b8152602060048201526011602482015270496e76616c69642072756c65207479706560781b6044820152606401610532565b5050505094509492505050565b6000818152600560205260408120549003613a5e5760405162461bcd60e51b81526020600482015260146024820152731518589b1948191bd95cc81b9bdd08195e1a5cdd60621b6044820152606401610532565b60008060005b6005811015613b3a5760008481526005602052604081206001018054909190613a8f57613a8f614989565b90600052602060002090600602016004018181548110613ab157613ab1614989565b906000526020600020015483613ac79190614c0e565b600085815260056020526040902060019081018054929550918110613aee57613aee614989565b90600052602060002090600602016004018181548110613b1057613b10614989565b906000526020600020015482613b269190614c0e565b915080613b32816149b5565b915050613a64565b5080821115613c3757600160056000858152602001908152602001600020600101600081548110613b6d57613b6d614989565b6000918252602082206005600690920201018054909190613b9290849060ff166149ce565b92506101000a81548160ff021916908360ff16021790555060056000848152602001908152602001600020600101600081548110613bd257613bd2614989565b60009182526020808320600692909202909101548583526005909152604090912060030180547fffffffffffffffff0000000000000000000000000000000000000000ffffffff166001600160a01b0390921664010000000002919091179055505050565b80821015613cc95760008381526005602052604090206001908101805482908110613c6457613c64614989565b6000918252602082206005600690920201018054909190613c8990849060ff166149ce565b92506101000a81548160ff021916908360ff16021790555060056000848152602001908152602001600020600101600181548110613bd257613bd2614989565b505050565b604080516000808252602080830180855285835260059091529290209051613cfc92600290920191906144d9565b506000818152600560209081526040808320600301805461ffff1916905580518381529182019052905060008281526005602052604081206001018054909190613d4857613d48614989565b90600052602060002090600602016001019080519060200190613d6c9291906144d9565b5060408051600580825260c08201909252906020820160a08036833750505060008281526005602052604081206001018054909190613dad57613dad614989565b90600052602060002090600602016002019080519060200190613dd19291906144d9565b5060408051600580825260c08201909252906020820160a08036833750505060008281526005602052604081206001018054909190613e1257613e12614989565b90600052602060002090600602016003019080519060200190613e369291906144d9565b5060005b6005811015613ea6576000828152600560205260408120600101805460349290613e6657613e66614989565b90600052602060002090600602016003018281548110613e8857613e88614989565b60009182526020909120015580613e9e816149b5565b915050613e3a565b5060408051600580825260c08201909252906020820160a08036833750505060008281526005602052604081206001018054909190613ee757613ee7614989565b90600052602060002090600602016004019080519060200190613f0b9291906144d9565b50604080516000808252602080830184528482526005905291909120600190810180549091908110613f3f57613f3f614989565b90600052602060002090600602016001019080519060200190613f639291906144d9565b5060408051600580825260c08201909252906020820160a0803683375050506000828152600560205260409020600190810180549091908110613fa857613fa8614989565b90600052602060002090600602016002019080519060200190613fcc9291906144d9565b5060408051600580825260c08201909252906020820160a080368337505050600082815260056020526040902060019081018054909190811061401157614011614989565b906000526020600020906006020160030190805190602001906140359291906144d9565b5060005b60058110156140a95760008281526005602052604090206001908101805460349290811061406957614069614989565b9060005260206000209060060201600301828154811061408b5761408b614989565b600091825260209091200155806140a1816149b5565b915050614039565b5060408051600580825260c08201909252906020820160a08036833750505060008281526005602052604090206001908101805490919081106140ee576140ee614989565b9060005260206000209060060201600401908051906020019061179a9291906144d9565b60008181526005602052604081205481036141665760405162461bcd60e51b81526020600482015260146024820152731518589b1948191bd95cc81b9bdd08195e1a5cdd60621b6044820152606401610532565b6000828152600560205260408120600101805490919061418857614188614989565b600091825260209091206005600690920201015460ff1660020361420d57600082815260056020526040812060010180549091906141c8576141c8614989565b600091825260208083206006909202909101548483526005909152604090912060040180546001600160a01b0319166001600160a01b039092169190911790556142bc565b6005600083815260200190815260200160002060010160018154811061423557614235614989565b600091825260209091206005600690920201015460ff166002036142bc576005600083815260200190815260200160002060010160018154811061427b5761427b614989565b600091825260208083206006909202909101548483526005909152604090912060040180546001600160a01b0319166001600160a01b039092169190911790555b506000908152600560205260409020600401546001600160a01b031690565b606060008367ffffffffffffffff8111156142f8576142f86145d8565b604051908082528060200260200182016040528015614321578160200160208202803683370190505b50905060005b8481101561435f578082828151811061434257614342614989565b602090810291909101015280614357816149b5565b915050614327565b5080516000805b600061437184614db5565b935083111561442c576143848387614bfa565b91508560405160200161439991815260200190565b6040516020818303038152906040528051906020012060001c95508383815181106143c6576143c6614989565b602002602001015190508382815181106143e2576143e2614989565b60200260200101518484815181106143fc576143fc614989565b6020026020010181815250508084838151811061441b5761441b614989565b602002602001018181525050614366565b509195945050505050565b600081815b81518110156144b057600082828151811061445957614459614989565b016020015160f81c905060308110801590614475575060398111155b1561449d576144856030826149e7565b61449085600a614bcd565b61449a9190614c0e565b93505b50806144a8816149b5565b91505061443c565b5050919050565b6000806144c5600d84614c49565b6144d0600d85614bfa565b91509150915091565b828054828255906000526020600020908101928215614514579160200282015b828111156145145782518255916020019190600101906144f9565b5061452092915061455f565b5090565b50805460008255600602906000526020600020908101906123529190614574565b508054600082559060005260206000209081019061235291905b5b808211156145205760008155600101614560565b808211156145205780546001600160a01b031916815560006145996001830182614545565b6145a7600283016000614545565b6145b5600383016000614545565b6145c3600483016000614545565b5060058101805460ff19169055600601614574565b634e487b7160e01b600052604160045260246000fd5b604051601f8201601f1916810167ffffffffffffffff81118282101715614617576146176145d8565b604052919050565b600082601f83011261463057600080fd5b8135602067ffffffffffffffff82111561464c5761464c6145d8565b8160051b61465b8282016145ee565b928352848101820192828101908785111561467557600080fd5b83870192505b848310156146945782358252918301919083019061467b565b979650505050505050565b600080604083850312156146b257600080fd5b82359150602083013567ffffffffffffffff8111156146d057600080fd5b6146dc8582860161461f565b9150509250929050565b6000602082840312156146f857600080fd5b5035919050565b6020808252825182820181905260009190848201906040850190845b818110156147405783516001600160a01b03168352928401929184019160010161471b565b50909695505050505050565b600081518084526020808501945080840160005b8381101561477c57815187529582019590820190600101614760565b509495945050505050565b60208152600061479a602083018461474c565b9392505050565b600080604083850312156147b457600080fd5b82359150602083013560ff811681146147cc57600080fd5b809150509250929050565b600080604083850312156147ea57600080fd5b50508035926020909101359150565b600080600080600060a0868803121561481157600080fd5b505083359560208501359550604085013594606081013594506080013592509050565b61ffff8116811461235257600080fd5b60006020828403121561485657600080fd5b813561479a81614834565b63ffffffff8116811461235257600080fd5b6000806040838503121561488657600080fd5b823561489181614861565b946020939093013593505050565b80356001600160a01b03811681146148b657600080fd5b919050565b600080600080606085870312156148d157600080fd5b6148da8561489f565b935060208501359250604085013567ffffffffffffffff808211156148fe57600080fd5b818701915087601f83011261491257600080fd5b81358181111561492157600080fd5b88602082850101111561493357600080fd5b95989497505060200194505050565b6000806040838503121561495557600080fd5b823591506149656020840161489f565b90509250929050565b60006020828403121561498057600080fd5b61479a8261489f565b634e487b7160e01b600052603260045260246000fd5b634e487b7160e01b600052601160045260246000fd5b6000600182016149c7576149c761499f565b5060010190565b60ff8181168382160190811115610d8857610d8861499f565b81810381811115610d8857610d8861499f565b60005b83811015614a155781810151838201526020016149fd565b50506000910152565b60008151808452614a368160208601602086016149fa565b601f01601f19169290920160200192915050565b60208152600061479a6020830184614a1e565b634e487b7160e01b600052602160045260246000fd5b600060208284031215614a8557600080fd5b815161479a81614861565b828152604060208201526000614aa9604083018461474c565b949350505050565b6001600160a01b038416815260ff83166020820152606060408201526000614adc6060830184614a1e565b95945050505050565b60008251614af78184602087016149fa565b9190910192915050565b63ffffffff818116838216019080821115614b1e57614b1e61499f565b5092915050565b600080600080600080600060e0888a031215614b4057600080fd5b8751614b4b81614834565b6020890151909750614b5c81614861565b6040890151909650614b6d81614861565b6060890151909550614b7e81614861565b809450506080880151925060a0880151915060c0880151905092959891949750929550565b600060208284031215614bb557600080fd5b815167ffffffffffffffff8116811461479a57600080fd5b8082028115828204841417610d8857610d8861499f565b634e487b7160e01b600052601260045260246000fd5b600082614c0957614c09614be4565b500690565b80820180821115610d8857610d8861499f565b606081526000614c34606083018661474c565b60ff9490941660208301525060400152919050565b600082614c5857614c58614be4565b500490565b600060208284031215614c6f57600080fd5b815167ffffffffffffffff80821115614c8757600080fd5b818401915084601f830112614c9b57600080fd5b815181811115614cad57614cad6145d8565b614cc0601f8201601f19166020016145ee565b9150808252856020828501011115614cd757600080fd5b614ce88160208401602086016149fa565b50949350505050565b602081526000825160038110614d1757634e487b7160e01b600052602160045260246000fd5b80602084015250602083015160e06040840152614d38610100840182614a1e565b90506040840151614d55606085018267ffffffffffffffff169052565b50606084015160808401526080840151614d7560a085018261ffff169052565b5060a084015163ffffffff811660c08501525060c084015160e08401528091505092915050565b600060208284031215614dae57600080fd5b5051919050565b600081614dc457614dc461499f565b50600019019056fea2646970667358221220bd781c85c526b0b1c54b99f7b5789ab90a3cab8c454540d9fe514d6644b4655664736f6c63430008120033",
    "linkReferences": {}
  },
  "methodIdentifiers": {
    "adapter()": "03eadcfc",
    "callbackGasLimit()": "24f74697",
    "callbackMaxGasFee()": "17f768c5",
    "clearTable(uint256)": "b7f6062b",
    "commit(uint256,uint256)": "5bf56bc4",
    "commitHands(uint256,uint256[])": "0050805f",
    "createTable()": "b2a4c897",
    "determineRuleType(uint256,uint8)": "5b76a05a",
    "getCardPool(uint256)": "55d28efe",
    "getCurrentState(uint256)": "5748c130",
    "getHands(uint256,address)": "c19961c5",
    "getPlayers(uint256)": "460e2049",
    "getRandomSeed(uint256)": "05ad94c3",
    "joinTable(uint256)": "3823bb03",
    "nonce()": "affed0e0",
    "owner()": "8da5cb5b",
    "play(uint256,uint256,uint256,uint256,uint256)": "7fe7c4b6",
    "rawFulfillRandomWords(bytes32,uint256[])": "75bf929b",
    "rawFulfillRandomness(bytes32,uint256)": "94985ddd",
    "rawFulfillShuffledArray(bytes32,uint256[])": "9e5836f6",
    "renounceOwnership()": "715018a6",
    "requestConfirmations()": "b0fb162f",
    "requiredTxGas(address,uint256,bytes)": "9f15c785",
    "setCallbackGasConfig(uint32,uint256)": "8acd01a0",
    "setRequestConfirmations(uint16)": "8824f5a7",
    "tableIds(bytes32)": "18a25ad0",
    "tables(uint256)": "71671bf2",
    "transferOwnership(address)": "f2fde38b"
  },
  "id": 10
}