{
  "abi": [
    {
      "type": "constructor",
      "inputs": [
        {
          "name": "randcastAdapter",
          "type": "address",
          "internalType": "address"
        }
      ],
      "stateMutability": "nonpayable"
    },
    {
      "type": "function",
      "name": "CARD_POOL_SIZE",
      "inputs": [],
      "outputs": [
        {
          "name": "",
          "type": "uint32",
          "internalType": "uint32"
        }
      ],
      "stateMutability": "view"
    },
    {
      "type": "function",
      "name": "HIGH_QUALITY_CARD_IDS",
      "inputs": [
        {
          "name": "",
          "type": "uint256",
          "internalType": "uint256"
        }
      ],
      "outputs": [
        {
          "name": "",
          "type": "uint32",
          "internalType": "uint32"
        }
      ],
      "stateMutability": "view"
    },
    {
      "type": "function",
      "name": "LOW_QUALITY_CARD_IDS",
      "inputs": [
        {
          "name": "",
          "type": "uint256",
          "internalType": "uint256"
        }
      ],
      "outputs": [
        {
          "name": "",
          "type": "uint32",
          "internalType": "uint32"
        }
      ],
      "stateMutability": "view"
    },
    {
      "type": "function",
      "name": "MIDDLE_QUALITY_CARD_IDS",
      "inputs": [
        {
          "name": "",
          "type": "uint256",
          "internalType": "uint256"
        }
      ],
      "outputs": [
        {
          "name": "",
          "type": "uint32",
          "internalType": "uint32"
        }
      ],
      "stateMutability": "view"
    },
    {
      "type": "function",
      "name": "adapter",
      "inputs": [],
      "outputs": [
        {
          "name": "",
          "type": "address",
          "internalType": "address"
        }
      ],
      "stateMutability": "view"
    },
    {
      "type": "function",
      "name": "callbackGasLimit",
      "inputs": [],
      "outputs": [
        {
          "name": "",
          "type": "uint32",
          "internalType": "uint32"
        }
      ],
      "stateMutability": "view"
    },
    {
      "type": "function",
      "name": "callbackMaxGasFee",
      "inputs": [],
      "outputs": [
        {
          "name": "",
          "type": "uint256",
          "internalType": "uint256"
        }
      ],
      "stateMutability": "view"
    },
    {
      "type": "function",
      "name": "cardPools",
      "inputs": [
        {
          "name": "",
          "type": "uint256",
          "internalType": "uint256"
        },
        {
          "name": "",
          "type": "uint8",
          "internalType": "uint8"
        },
        {
          "name": "",
          "type": "uint256",
          "internalType": "uint256"
        }
      ],
      "outputs": [
        {
          "name": "",
          "type": "uint256",
          "internalType": "uint256"
        }
      ],
      "stateMutability": "view"
    },
    {
      "type": "function",
      "name": "claimVictory",
      "inputs": [
        {
          "name": "tableId",
          "type": "uint256",
          "internalType": "uint256"
        }
      ],
      "outputs": [],
      "stateMutability": "nonpayable"
    },
    {
      "type": "function",
      "name": "clearTable",
      "inputs": [
        {
          "name": "tableId",
          "type": "uint256",
          "internalType": "uint256"
        }
      ],
      "outputs": [],
      "stateMutability": "nonpayable"
    },
    {
      "type": "function",
      "name": "commitPickedCards",
      "inputs": [
        {
          "name": "tableId",
          "type": "uint256",
          "internalType": "uint256"
        },
        {
          "name": "commitments",
          "type": "uint256[]",
          "internalType": "uint256[]"
        }
      ],
      "outputs": [],
      "stateMutability": "nonpayable"
    },
    {
      "type": "function",
      "name": "commitSequence",
      "inputs": [
        {
          "name": "tableId",
          "type": "uint256",
          "internalType": "uint256"
        },
        {
          "name": "jointCommitment",
          "type": "uint256",
          "internalType": "uint256"
        }
      ],
      "outputs": [],
      "stateMutability": "nonpayable"
    },
    {
      "type": "function",
      "name": "createTable",
      "inputs": [],
      "outputs": [],
      "stateMutability": "nonpayable"
    },
    {
      "type": "function",
      "name": "getNonce",
      "inputs": [
        {
          "name": "subId",
          "type": "uint64",
          "internalType": "uint64"
        }
      ],
      "outputs": [
        {
          "name": "",
          "type": "uint256",
          "internalType": "uint256"
        }
      ],
      "stateMutability": "view"
    },
    {
      "type": "function",
      "name": "getPlayers",
      "inputs": [
        {
          "name": "tableId",
          "type": "uint256",
          "internalType": "uint256"
        }
      ],
      "outputs": [
        {
          "name": "",
          "type": "address[]",
          "internalType": "address[]"
        }
      ],
      "stateMutability": "view"
    },
    {
      "type": "function",
      "name": "hands",
      "inputs": [
        {
          "name": "",
          "type": "uint256",
          "internalType": "uint256"
        },
        {
          "name": "",
          "type": "address",
          "internalType": "address"
        },
        {
          "name": "",
          "type": "uint256",
          "internalType": "uint256"
        }
      ],
      "outputs": [
        {
          "name": "index",
          "type": "uint32",
          "internalType": "uint32"
        },
        {
          "name": "id",
          "type": "uint32",
          "internalType": "uint32"
        },
        {
          "name": "cardType",
          "type": "uint8",
          "internalType": "enum GameLobby.CardType"
        },
        {
          "name": "commitment",
          "type": "uint256",
          "internalType": "uint256"
        },
        {
          "name": "creationRound",
          "type": "uint8",
          "internalType": "uint8"
        },
        {
          "name": "used",
          "type": "bool",
          "internalType": "bool"
        }
      ],
      "stateMutability": "view"
    },
    {
      "type": "function",
      "name": "joinTable",
      "inputs": [
        {
          "name": "tableId",
          "type": "uint256",
          "internalType": "uint256"
        }
      ],
      "outputs": [],
      "stateMutability": "nonpayable"
    },
    {
      "type": "function",
      "name": "owner",
      "inputs": [],
      "outputs": [
        {
          "name": "",
          "type": "address",
          "internalType": "address"
        }
      ],
      "stateMutability": "view"
    },
    {
      "type": "function",
      "name": "playerStates",
      "inputs": [
        {
          "name": "",
          "type": "uint256",
          "internalType": "uint256"
        },
        {
          "name": "",
          "type": "address",
          "internalType": "address"
        }
      ],
      "outputs": [
        {
          "name": "sequenceCommitment",
          "type": "uint256",
          "internalType": "uint256"
        },
        {
          "name": "cardPicked",
          "type": "bool",
          "internalType": "bool"
        },
        {
          "name": "wonInnings",
          "type": "uint8",
          "internalType": "uint8"
        }
      ],
      "stateMutability": "view"
    },
    {
      "type": "function",
      "name": "randomnessRequests",
      "inputs": [
        {
          "name": "",
          "type": "bytes32",
          "internalType": "bytes32"
        }
      ],
      "outputs": [
        {
          "name": "tableId",
          "type": "uint256",
          "internalType": "uint256"
        },
        {
          "name": "randomnessType",
          "type": "uint8",
          "internalType": "enum GameLobby.RandomnessType"
        },
        {
          "name": "qualityToReforge",
          "type": "uint256",
          "internalType": "uint256"
        },
        {
          "name": "randomness",
          "type": "uint256",
          "internalType": "uint256"
        },
        {
          "name": "player",
          "type": "address",
          "internalType": "address"
        },
        {
          "name": "finished",
          "type": "bool",
          "internalType": "bool"
        }
      ],
      "stateMutability": "view"
    },
    {
      "type": "function",
      "name": "rawFulfillRandomWords",
      "inputs": [
        {
          "name": "requestId",
          "type": "bytes32",
          "internalType": "bytes32"
        },
        {
          "name": "randomWords",
          "type": "uint256[]",
          "internalType": "uint256[]"
        }
      ],
      "outputs": [],
      "stateMutability": "nonpayable"
    },
    {
      "type": "function",
      "name": "rawFulfillRandomness",
      "inputs": [
        {
          "name": "requestId",
          "type": "bytes32",
          "internalType": "bytes32"
        },
        {
          "name": "randomness",
          "type": "uint256",
          "internalType": "uint256"
        }
      ],
      "outputs": [],
      "stateMutability": "nonpayable"
    },
    {
      "type": "function",
      "name": "rawFulfillShuffledArray",
      "inputs": [
        {
          "name": "requestId",
          "type": "bytes32",
          "internalType": "bytes32"
        },
        {
          "name": "shuffledArray",
          "type": "uint256[]",
          "internalType": "uint256[]"
        }
      ],
      "outputs": [],
      "stateMutability": "nonpayable"
    },
    {
      "type": "function",
      "name": "reforgeCard",
      "inputs": [
        {
          "name": "tableId",
          "type": "uint256",
          "internalType": "uint256"
        },
        {
          "name": "material",
          "type": "tuple[]",
          "internalType": "struct GameLobby.RevealedCard[]",
          "components": [
            {
              "name": "index",
              "type": "uint32",
              "internalType": "uint32"
            },
            {
              "name": "id",
              "type": "uint32",
              "internalType": "uint32"
            },
            {
              "name": "salt",
              "type": "uint256",
              "internalType": "uint256"
            }
          ]
        }
      ],
      "outputs": [],
      "stateMutability": "nonpayable"
    },
    {
      "type": "function",
      "name": "renounceOwnership",
      "inputs": [],
      "outputs": [],
      "stateMutability": "nonpayable"
    },
    {
      "type": "function",
      "name": "requestConfirmations",
      "inputs": [],
      "outputs": [
        {
          "name": "",
          "type": "uint16",
          "internalType": "uint16"
        }
      ],
      "stateMutability": "view"
    },
    {
      "type": "function",
      "name": "requiredTxGas",
      "inputs": [
        {
          "name": "to",
          "type": "address",
          "internalType": "address"
        },
        {
          "name": "value",
          "type": "uint256",
          "internalType": "uint256"
        },
        {
          "name": "data",
          "type": "bytes",
          "internalType": "bytes"
        }
      ],
      "outputs": [
        {
          "name": "",
          "type": "uint256",
          "internalType": "uint256"
        }
      ],
      "stateMutability": "nonpayable"
    },
    {
      "type": "function",
      "name": "revealSequence",
      "inputs": [
        {
          "name": "tableId",
          "type": "uint256",
          "internalType": "uint256"
        },
        {
          "name": "sequence",
          "type": "tuple[]",
          "internalType": "struct GameLobby.RevealedCard[]",
          "components": [
            {
              "name": "index",
              "type": "uint32",
              "internalType": "uint32"
            },
            {
              "name": "id",
              "type": "uint32",
              "internalType": "uint32"
            },
            {
              "name": "salt",
              "type": "uint256",
              "internalType": "uint256"
            }
          ]
        }
      ],
      "outputs": [],
      "stateMutability": "nonpayable"
    },
    {
      "type": "function",
      "name": "setCallbackGasConfig",
      "inputs": [
        {
          "name": "_callbackGasLimit",
          "type": "uint32",
          "internalType": "uint32"
        },
        {
          "name": "_callbackMaxGasFee",
          "type": "uint256",
          "internalType": "uint256"
        }
      ],
      "outputs": [],
      "stateMutability": "nonpayable"
    },
    {
      "type": "function",
      "name": "setRequestConfirmations",
      "inputs": [
        {
          "name": "_requestConfirmations",
          "type": "uint16",
          "internalType": "uint16"
        }
      ],
      "outputs": [],
      "stateMutability": "nonpayable"
    },
    {
      "type": "function",
      "name": "summitReforge",
      "inputs": [
        {
          "name": "tableId",
          "type": "uint256",
          "internalType": "uint256"
        },
        {
          "name": "requestId",
          "type": "bytes32",
          "internalType": "bytes32"
        },
        {
          "name": "nonce",
          "type": "uint8",
          "internalType": "uint8"
        }
      ],
      "outputs": [],
      "stateMutability": "nonpayable"
    },
    {
      "type": "function",
      "name": "tables",
      "inputs": [
        {
          "name": "",
          "type": "uint256",
          "internalType": "uint256"
        }
      ],
      "outputs": [
        {
          "name": "id",
          "type": "uint256",
          "internalType": "uint256"
        },
        {
          "name": "currentRound",
          "type": "uint8",
          "internalType": "uint8"
        },
        {
          "name": "currentInning",
          "type": "uint8",
          "internalType": "uint8"
        },
        {
          "name": "firstPlayerOffensive",
          "type": "bool",
          "internalType": "bool"
        },
        {
          "name": "nextCommitmentTime",
          "type": "uint256",
          "internalType": "uint256"
        },
        {
          "name": "nextRevealTime",
          "type": "uint256",
          "internalType": "uint256"
        },
        {
          "name": "winner",
          "type": "address",
          "internalType": "address"
        }
      ],
      "stateMutability": "view"
    },
    {
      "type": "function",
      "name": "transferOwnership",
      "inputs": [
        {
          "name": "newOwner",
          "type": "address",
          "internalType": "address"
        }
      ],
      "outputs": [],
      "stateMutability": "nonpayable"
    },
    {
      "type": "function",
      "name": "upgradeCard",
      "inputs": [
        {
          "name": "tableId",
          "type": "uint256",
          "internalType": "uint256"
        },
        {
          "name": "material",
          "type": "tuple[]",
          "internalType": "struct GameLobby.RevealedCard[]",
          "components": [
            {
              "name": "index",
              "type": "uint32",
              "internalType": "uint32"
            },
            {
              "name": "id",
              "type": "uint32",
              "internalType": "uint32"
            },
            {
              "name": "salt",
              "type": "uint256",
              "internalType": "uint256"
            }
          ]
        }
      ],
      "outputs": [],
      "stateMutability": "nonpayable"
    },
    {
      "type": "event",
      "name": "CardDrawn",
      "inputs": [
        {
          "name": "tableId",
          "type": "uint256",
          "indexed": true,
          "internalType": "uint256"
        },
        {
          "name": "player",
          "type": "address",
          "indexed": true,
          "internalType": "address"
        },
        {
          "name": "round",
          "type": "uint8",
          "indexed": false,
          "internalType": "uint8"
        },
        {
          "name": "inning",
          "type": "uint8",
          "indexed": false,
          "internalType": "uint8"
        },
        {
          "name": "cards",
          "type": "tuple[]",
          "indexed": false,
          "internalType": "struct GameLobby.RevealedCard[]",
          "components": [
            {
              "name": "index",
              "type": "uint32",
              "internalType": "uint32"
            },
            {
              "name": "id",
              "type": "uint32",
              "internalType": "uint32"
            },
            {
              "name": "salt",
              "type": "uint256",
              "internalType": "uint256"
            }
          ]
        }
      ],
      "anonymous": false
    },
    {
      "type": "event",
      "name": "CardPicked",
      "inputs": [
        {
          "name": "tableId",
          "type": "uint256",
          "indexed": true,
          "internalType": "uint256"
        },
        {
          "name": "player",
          "type": "address",
          "indexed": true,
          "internalType": "address"
        },
        {
          "name": "round",
          "type": "uint8",
          "indexed": true,
          "internalType": "uint8"
        },
        {
          "name": "commitments",
          "type": "uint256[]",
          "indexed": false,
          "internalType": "uint256[]"
        }
      ],
      "anonymous": false
    },
    {
      "type": "event",
      "name": "CardPoolGenerated",
      "inputs": [
        {
          "name": "tableId",
          "type": "uint256",
          "indexed": true,
          "internalType": "uint256"
        },
        {
          "name": "requestId",
          "type": "bytes32",
          "indexed": true,
          "internalType": "bytes32"
        },
        {
          "name": "currentRound",
          "type": "uint8",
          "indexed": true,
          "internalType": "uint8"
        },
        {
          "name": "cardPool",
          "type": "uint32[]",
          "indexed": false,
          "internalType": "uint32[]"
        },
        {
          "name": "randomness",
          "type": "uint256",
          "indexed": false,
          "internalType": "uint256"
        }
      ],
      "anonymous": false
    },
    {
      "type": "event",
      "name": "CardReforgeGenerated",
      "inputs": [
        {
          "name": "tableId",
          "type": "uint256",
          "indexed": true,
          "internalType": "uint256"
        },
        {
          "name": "player",
          "type": "address",
          "indexed": true,
          "internalType": "address"
        },
        {
          "name": "requestId",
          "type": "bytes32",
          "indexed": true,
          "internalType": "bytes32"
        },
        {
          "name": "qualityToReforge",
          "type": "uint256",
          "indexed": false,
          "internalType": "uint256"
        },
        {
          "name": "randomness",
          "type": "uint256",
          "indexed": false,
          "internalType": "uint256"
        }
      ],
      "anonymous": false
    },
    {
      "type": "event",
      "name": "CardReforgeRequested",
      "inputs": [
        {
          "name": "tableId",
          "type": "uint256",
          "indexed": true,
          "internalType": "uint256"
        },
        {
          "name": "player",
          "type": "address",
          "indexed": true,
          "internalType": "address"
        },
        {
          "name": "round",
          "type": "uint8",
          "indexed": false,
          "internalType": "uint8"
        },
        {
          "name": "inning",
          "type": "uint8",
          "indexed": false,
          "internalType": "uint8"
        },
        {
          "name": "requestId",
          "type": "bytes32",
          "indexed": false,
          "internalType": "bytes32"
        },
        {
          "name": "qualityToReforge",
          "type": "uint256",
          "indexed": false,
          "internalType": "uint256"
        },
        {
          "name": "materials",
          "type": "tuple[]",
          "indexed": false,
          "internalType": "struct GameLobby.RevealedCard[]",
          "components": [
            {
              "name": "index",
              "type": "uint32",
              "internalType": "uint32"
            },
            {
              "name": "id",
              "type": "uint32",
              "internalType": "uint32"
            },
            {
              "name": "salt",
              "type": "uint256",
              "internalType": "uint256"
            }
          ]
        }
      ],
      "anonymous": false
    },
    {
      "type": "event",
      "name": "CardReforged",
      "inputs": [
        {
          "name": "tableId",
          "type": "uint256",
          "indexed": true,
          "internalType": "uint256"
        },
        {
          "name": "player",
          "type": "address",
          "indexed": true,
          "internalType": "address"
        },
        {
          "name": "round",
          "type": "uint8",
          "indexed": false,
          "internalType": "uint8"
        },
        {
          "name": "inning",
          "type": "uint8",
          "indexed": false,
          "internalType": "uint8"
        },
        {
          "name": "card",
          "type": "tuple",
          "indexed": false,
          "internalType": "struct GameLobby.RevealedCard",
          "components": [
            {
              "name": "index",
              "type": "uint32",
              "internalType": "uint32"
            },
            {
              "name": "id",
              "type": "uint32",
              "internalType": "uint32"
            },
            {
              "name": "salt",
              "type": "uint256",
              "internalType": "uint256"
            }
          ]
        }
      ],
      "anonymous": false
    },
    {
      "type": "event",
      "name": "CardUpgraded",
      "inputs": [
        {
          "name": "tableId",
          "type": "uint256",
          "indexed": true,
          "internalType": "uint256"
        },
        {
          "name": "player",
          "type": "address",
          "indexed": true,
          "internalType": "address"
        },
        {
          "name": "round",
          "type": "uint8",
          "indexed": false,
          "internalType": "uint8"
        },
        {
          "name": "inning",
          "type": "uint8",
          "indexed": false,
          "internalType": "uint8"
        },
        {
          "name": "card",
          "type": "uint32",
          "indexed": false,
          "internalType": "uint32"
        },
        {
          "name": "materials",
          "type": "tuple[]",
          "indexed": false,
          "internalType": "struct GameLobby.RevealedCard[]",
          "components": [
            {
              "name": "index",
              "type": "uint32",
              "internalType": "uint32"
            },
            {
              "name": "id",
              "type": "uint32",
              "internalType": "uint32"
            },
            {
              "name": "salt",
              "type": "uint256",
              "internalType": "uint256"
            }
          ]
        }
      ],
      "anonymous": false
    },
    {
      "type": "event",
      "name": "GameEnded",
      "inputs": [
        {
          "name": "tableId",
          "type": "uint256",
          "indexed": true,
          "internalType": "uint256"
        },
        {
          "name": "winner",
          "type": "address",
          "indexed": true,
          "internalType": "address"
        }
      ],
      "anonymous": false
    },
    {
      "type": "event",
      "name": "GameStarted",
      "inputs": [
        {
          "name": "tableId",
          "type": "uint256",
          "indexed": true,
          "internalType": "uint256"
        },
        {
          "name": "firstPlayerOffensive",
          "type": "bool",
          "indexed": false,
          "internalType": "bool"
        },
        {
          "name": "nextCommitmentTime",
          "type": "uint256",
          "indexed": false,
          "internalType": "uint256"
        }
      ],
      "anonymous": false
    },
    {
      "type": "event",
      "name": "InningEnded",
      "inputs": [
        {
          "name": "tableId",
          "type": "uint256",
          "indexed": true,
          "internalType": "uint256"
        },
        {
          "name": "round",
          "type": "uint8",
          "indexed": true,
          "internalType": "uint8"
        },
        {
          "name": "inning",
          "type": "uint8",
          "indexed": true,
          "internalType": "uint8"
        },
        {
          "name": "winner",
          "type": "address",
          "indexed": false,
          "internalType": "address"
        },
        {
          "name": "randomness",
          "type": "uint256",
          "indexed": false,
          "internalType": "uint256"
        },
        {
          "name": "nextCommitmentTime",
          "type": "uint256",
          "indexed": false,
          "internalType": "uint256"
        }
      ],
      "anonymous": false
    },
    {
      "type": "event",
      "name": "OwnershipTransferred",
      "inputs": [
        {
          "name": "previousOwner",
          "type": "address",
          "indexed": true,
          "internalType": "address"
        },
        {
          "name": "newOwner",
          "type": "address",
          "indexed": true,
          "internalType": "address"
        }
      ],
      "anonymous": false
    },
    {
      "type": "event",
      "name": "RandomnessRequested",
      "inputs": [
        {
          "name": "tableId",
          "type": "uint256",
          "indexed": true,
          "internalType": "uint256"
        },
        {
          "name": "requestId",
          "type": "bytes32",
          "indexed": true,
          "internalType": "bytes32"
        },
        {
          "name": "sender",
          "type": "address",
          "indexed": true,
          "internalType": "address"
        },
        {
          "name": "randomnessType",
          "type": "uint8",
          "indexed": false,
          "internalType": "enum GameLobby.RandomnessType"
        }
      ],
      "anonymous": false
    },
    {
      "type": "event",
      "name": "RoundEnded",
      "inputs": [
        {
          "name": "tableId",
          "type": "uint256",
          "indexed": true,
          "internalType": "uint256"
        },
        {
          "name": "round",
          "type": "uint8",
          "indexed": true,
          "internalType": "uint8"
        }
      ],
      "anonymous": false
    },
    {
      "type": "event",
      "name": "SequenceCommitted",
      "inputs": [
        {
          "name": "tableId",
          "type": "uint256",
          "indexed": true,
          "internalType": "uint256"
        },
        {
          "name": "player",
          "type": "address",
          "indexed": true,
          "internalType": "address"
        },
        {
          "name": "round",
          "type": "uint8",
          "indexed": false,
          "internalType": "uint8"
        },
        {
          "name": "inning",
          "type": "uint8",
          "indexed": false,
          "internalType": "uint8"
        },
        {
          "name": "commitment",
          "type": "uint256",
          "indexed": false,
          "internalType": "uint256"
        }
      ],
      "anonymous": false
    },
    {
      "type": "event",
      "name": "SequenceRevealed",
      "inputs": [
        {
          "name": "tableId",
          "type": "uint256",
          "indexed": true,
          "internalType": "uint256"
        },
        {
          "name": "player",
          "type": "address",
          "indexed": true,
          "internalType": "address"
        },
        {
          "name": "round",
          "type": "uint8",
          "indexed": false,
          "internalType": "uint8"
        },
        {
          "name": "inning",
          "type": "uint8",
          "indexed": false,
          "internalType": "uint8"
        },
        {
          "name": "cards",
          "type": "tuple[]",
          "indexed": false,
          "internalType": "struct GameLobby.RevealedCard[]",
          "components": [
            {
              "name": "index",
              "type": "uint32",
              "internalType": "uint32"
            },
            {
              "name": "id",
              "type": "uint32",
              "internalType": "uint32"
            },
            {
              "name": "salt",
              "type": "uint256",
              "internalType": "uint256"
            }
          ]
        }
      ],
      "anonymous": false
    },
    {
      "type": "event",
      "name": "TableCreated",
      "inputs": [
        {
          "name": "tableId",
          "type": "uint256",
          "indexed": true,
          "internalType": "uint256"
        },
        {
          "name": "player",
          "type": "address",
          "indexed": true,
          "internalType": "address"
        }
      ],
      "anonymous": false
    },
    {
      "type": "event",
      "name": "TableJoined",
      "inputs": [
        {
          "name": "tableId",
          "type": "uint256",
          "indexed": true,
          "internalType": "uint256"
        },
        {
          "name": "player",
          "type": "address",
          "indexed": true,
          "internalType": "address"
        }
      ],
      "anonymous": false
    },
    {
      "type": "error",
      "name": "CardAlreadyPicked",
      "inputs": []
    },
    {
      "type": "error",
      "name": "CardNotInCardPool",
      "inputs": []
    },
    {
      "type": "error",
      "name": "CommitmentTimeExpired",
      "inputs": []
    },
    {
      "type": "error",
      "name": "DifferentCardIdFromHand",
      "inputs": []
    },
    {
      "type": "error",
      "name": "EmptyCardNotAllowed",
      "inputs": []
    },
    {
      "type": "error",
      "name": "GameAlreadyEnded",
      "inputs": []
    },
    {
      "type": "error",
      "name": "GasLimitTooBig",
      "inputs": [
        {
          "name": "have",
          "type": "uint256",
          "internalType": "uint256"
        },
        {
          "name": "want",
          "type": "uint32",
          "internalType": "uint32"
        }
      ]
    },
    {
      "type": "error",
      "name": "InvalidCardCommitment",
      "inputs": []
    },
    {
      "type": "error",
      "name": "InvalidMaterialLength",
      "inputs": []
    },
    {
      "type": "error",
      "name": "InvalidPickedCommitments",
      "inputs": []
    },
    {
      "type": "error",
      "name": "InvalidReforgeMaterial",
      "inputs": []
    },
    {
      "type": "error",
      "name": "InvalidReforgeNonce",
      "inputs": []
    },
    {
      "type": "error",
      "name": "InvalidRound",
      "inputs": []
    },
    {
      "type": "error",
      "name": "InvalidSequenceCommitment",
      "inputs": []
    },
    {
      "type": "error",
      "name": "InvalidSequenceLength",
      "inputs": []
    },
    {
      "type": "error",
      "name": "InvalidUpgradeMaterial",
      "inputs": []
    },
    {
      "type": "error",
      "name": "InvalidVictory",
      "inputs": []
    },
    {
      "type": "error",
      "name": "MaxUpgraded",
      "inputs": []
    },
    {
      "type": "error",
      "name": "NoSubscriptionBound",
      "inputs": []
    },
    {
      "type": "error",
      "name": "NotAPlayer",
      "inputs": []
    },
    {
      "type": "error",
      "name": "NotEnoughReforgeMaterial",
      "inputs": []
    },
    {
      "type": "error",
      "name": "NotTheSameUpgradeMaterial",
      "inputs": []
    },
    {
      "type": "error",
      "name": "ReforgeRequestNotFound",
      "inputs": []
    },
    {
      "type": "error",
      "name": "RevealTimeExpired",
      "inputs": []
    },
    {
      "type": "error",
      "name": "SequenceAlreadyCommitted",
      "inputs": []
    },
    {
      "type": "error",
      "name": "SequenceAlreadyRevealed",
      "inputs": []
    },
    {
      "type": "error",
      "name": "SequenceNotCommitted",
      "inputs": []
    },
    {
      "type": "error",
      "name": "TableFull",
      "inputs": []
    },
    {
      "type": "error",
      "name": "TableNotExist",
      "inputs": []
    }
  ],
  "bytecode": {
    "object": "0x6101c0604052600260a0908152600360c052600460e0819052600a6101005260126101205260146101405260166101605260186101805260196101a05262000049916009620001be565b5060408051610120810182526001815260066020820152600791810191909152600c6060820152600d6080820152600e60a0820152601560c0820152601760e0820152601b610100820152620000a4906005906009620001be565b50604080516101208101825260058152600860208201526009918101829052600b6060820152600f6080820152601060a0820152601160c0820152601360e0820152601a610100820152620000fd9160069190620001be565b503480156200010b57600080fd5b50604051620061f6380380620061f68339810160408190526200012e9162000288565b6001600160a01b038116608052620001463362000164565b506001805463ffffffff60a81b1916613d0960af1b179055620002ba565b600180546001600160a01b03838116610100818102610100600160a81b031985161790945560405193909204169182907f8be0079c531659141344cd1fd0a4f28419497f9722a3daafe3b4186f6b6457e090600090a35050565b828054828255906000526020600020906007016008900481019282156200025f5791602002820160005b838211156200022b57835183826101000a81548163ffffffff021916908360ff1602179055509260200192600401602081600301049283019260010302620001e8565b80156200025d5782816101000a81549063ffffffff02191690556004016020816003010492830192600103026200022b565b505b506200026d92915062000271565b5090565b5b808211156200026d576000815560010162000272565b6000602082840312156200029b57600080fd5b81516001600160a01b0381168114620002b357600080fd5b9392505050565b608051615ef6620003006000396000818161023c015281816110db015281816115b60152818161345b015281816135580152818161422c0152614b260152615ef66000f3fe608060405234801561001057600080fd5b50600436106102055760003560e01c80638acd01a01161011a578063b7f6062b116100ad578063df79b41f1161007c578063df79b41f146105a3578063ea61e0df146105ab578063efac430c146105d0578063f2fde38b146105e3578063f92683c5146105f657600080fd5b8063b7f6062b1461050b578063c0338ba31461051e578063d592e6af1461057d578063dc77bb7e1461059057600080fd5b80639f15c785116100e95780639f15c785146104bc578063aa476f6b146104cf578063b0fb162f146104e2578063b2a4c8971461050357600080fd5b80638acd01a0146104805780638da5cb5b1461049357806394985ddd146104a95780639e5836f61461044757600080fd5b80634bfac36e1161019d578063715018a61161016c578063715018a6146103a057806371671bf2146103a857806375bf929b146104475780637c09b6851461045a5780638824f5a71461046d57600080fd5b80634bfac36e146102ff5780634ff776b8146103125780635086a298146103255780635e619b781461033857600080fd5b806324f74697116101d957806324f74697146102a05780632b092ac9146102b75780633823bb03146102ca578063460e2049146102df57600080fd5b8062d0286c1461020a57806303eadcfc1461023757806317f768c5146102765780631b45cd0d1461028d575b600080fd5b61021d610218366004614fa4565b610609565b60405163ffffffff90911681526020015b60405180910390f35b61025e7f000000000000000000000000000000000000000000000000000000000000000081565b6040516001600160a01b03909116815260200161022e565b61027f60025481565b60405190815260200161022e565b61027f61029b366004614fd2565b610643565b60015461021d90600160a81b900463ffffffff1681565b61021d6102c5366004614fa4565b61066d565b6102dd6102d8366004614fa4565b61067d565b005b6102f26102ed366004614fa4565b6107b4565b60405161022e9190614fef565b61021d61030d366004614fa4565b610823565b6102dd610320366004614fa4565b610833565b6102dd6103333660046150df565b610b90565b61038e610346366004614fa4565b60086020526000908152604090208054600182015460028301546003840154600490940154929360ff92831693919290916001600160a01b03811691600160a01b9091041686565b60405161022e969594939291906151e5565b6102dd6110b0565b6104036103b6366004614fa4565b60076020526000908152604090208054600282015460038301546004840154600590940154929360ff8084169461010085048216946201000090049091169291906001600160a01b031687565b6040805197885260ff968716602089015294909516938601939093529015156060850152608084015260a08301526001600160a01b031660c082015260e00161022e565b6102dd61045536600461528e565b6110c4565b6102dd6104683660046150df565b61114d565b6102dd61047b3660046152e4565b611512565b6102dd61048e366004615301565b611532565b60015461010090046001600160a01b031661025e565b6102dd6104b736600461532d565b61159f565b61027f6104ca36600461536b565b611629565b6102dd6104dd366004615402565b6116af565b6003546104f09061ffff1681565b60405161ffff909116815260200161022e565b6102dd611b76565b6102dd610519366004614fa4565b611c20565b61055f61052c366004615437565b60096020908152600092835260408084209091529082529020600181015460029091015460ff8082169161010090041683565b60408051938452911515602084015260ff169082015260600161022e565b6102dd61058b36600461532d565b611ca6565b61027f61059e366004615463565b611fa4565b61021d601481565b6105be6105b9366004615498565b611fe2565b60405161022e969594939291906154cd565b6102dd6105de36600461528e565b612057565b6102dd6105f1366004615513565b612445565b6102dd6106043660046150df565b6124be565b6004818154811061061957600080fd5b9060005260206000209060089182820401919006600402915054906101000a900463ffffffff1681565b6001600160401b038116600090815260208190526040812054610667906001615544565b92915050565b6006818154811061061957600080fd5b60008181526007602052604081205490036106ab57604051630b16c9e160e01b815260040160405180910390fd5b6000818152600760205260409020600501546001600160a01b0316156106e45760405163246450af60e21b815260040160405180910390fd5b600081815260076020526040902060010154600203610715576040516265ab3360e91b815260040160405180910390fd5b600081815260076020908152604080832060019081018054918201815584528284200180546001600160a01b03191633179055805160c081019091528381529081018281526000602082018190526040820181905233606083015260809091015290506107828282612a49565b50604051339083907f8da26e3d4618534e5b0f9beebe60b2b635aaf7133ed1d582dfc4ff91d0be3d6590600090a35050565b60008181526007602090815260409182902060010180548351818402810184019094528084526060939283018282801561081757602002820191906000526020600020905b81546001600160a01b031681526001909101906020018083116107f9575b50505050509050919050565b6005818154811061061957600080fd5b60008181526007602052604081205482910361086257604051630b16c9e160e01b815260040160405180910390fd5b6000818152600760205260409020600501546001600160a01b03161561089b5760405163246450af60e21b815260040160405180910390fd5b600081815260076020526040812060010180543392906108bd576108bd615557565b6000918252602090912001546001600160a01b0316148015906109195750600081815260076020526040902060019081018054339290811061090157610901615557565b6000918252602090912001546001600160a01b031614155b156109375760405163abca351760e01b815260040160405180910390fd5b60008281526007602052604081206001018054339190839061095b5761095b615557565b6000918252602090912001546001600160a01b0316146109b1576000838152600760205260408120600101805490919061099757610997615557565b6000918252602090912001546001600160a01b03166109ef565b600760008481526020019081526020016000206001016001815481106109d9576109d9615557565b6000918252602090912001546001600160a01b03165b60008481526007602052604090206003015490915042118015610a2d5750600083815260096020908152604080832033845290915290206001015415155b8015610a5c575060008381526009602090815260408083206001600160a01b0385168452909152902060010154155b15610ab55760008381526007602052604080822060050180546001600160a01b031916339081179091559051909185917f3d5fcd8fa3235aeb3897f25c8ea49989174981afcb01b9d03189d1056a16775b9190a3505050565b60008381526007602052604090206004015442118015610aed5750600083815260096020908152604080832033845290915290205415155b8015610b19575060008381526009602090815260408083206001600160a01b0385168452909152902054155b15610b725760008381526007602052604080822060050180546001600160a01b031916339081179091559051909185917f3d5fcd8fa3235aeb3897f25c8ea49989174981afcb01b9d03189d1056a16775b9190a3505050565b604051633642c60b60e21b815260040160405180910390fd5b505050565b600082815260076020526040812054839103610bbf57604051630b16c9e160e01b815260040160405180910390fd5b6000818152600760205260409020600501546001600160a01b031615610bf85760405163246450af60e21b815260040160405180910390fd5b60008181526007602052604081206001018054339290610c1a57610c1a615557565b6000918252602090912001546001600160a01b031614801590610c7657506000818152600760205260409020600190810180543392908110610c5e57610c5e615557565b6000918252602090912001546001600160a01b031614155b15610c945760405163abca351760e01b815260040160405180910390fd5b600083815260096020908152604080832033845290915290205415610ccc5760405163276029a360e11b815260040160405180910390fd5b600083815260076020526040902060040154421115610cfe5760405163f991b12f60e01b815260040160405180910390fd5b60008381526007602052604090206002015460ff16158015610d2257508151600314155b15610d405760405163013541a760e11b815260040160405180910390fd5b60008381526007602052604090206002015460ff166001148015610d6657508151600514155b15610d845760405163013541a760e11b815260040160405180910390fd5b600083815260076020526040902060029081015460ff16148015610daa57508151600714155b15610dc85760405163013541a760e11b815260040160405180910390fd5b610dd28383612b35565b600082516001600160401b03811115610ded57610ded61503c565b604051908082528060200260200182016040528015610e16578160200160208202803683370190505b50905060005b8351811015610f0357838181518110610e3757610e37615557565b60200260200101516020015163ffffffff16600014610ec257610e7385858381518110610e6657610e66615557565b6020026020010151612c8b565b838181518110610e8557610e85615557565b602002602001015160200151828281518110610ea357610ea3615557565b602002602001019063ffffffff16908163ffffffff1681525050610ef1565b6000828281518110610ed657610ed6615557565b602002602001019063ffffffff16908163ffffffff16815250505b80610efb8161556d565b915050610e1c565b50600084815260096020908152604080832033845282529091208251610f2b92840190614e5e565b5060008481526007602052604090819020600201549051339186917f9411d23a5860f0c3c850116e7c6b52618d5c390e4b068da2e0e6c48362ffc25891610f809160ff808316926101009004169089906155ec565b60405180910390a3600084815260076020526040812060010180543391908390610fac57610fac615557565b6000918252602090912001546001600160a01b0316146110025760008581526007602052604081206001018054909190610fe857610fe8615557565b6000918252602090912001546001600160a01b0316611040565b6007600086815260200190815260200160002060010160018154811061102a5761102a615557565b6000918252602090912001546001600160a01b03165b60008681526009602090815260408083206001600160a01b0385168452909152902054909150156110a9576040805160c0810182528681526001602082015260009181018290526060810182905233608082015260a08101919091526110a68682612a49565b50505b5050505050565b6110b8612f6c565b6110c26000612fcc565b565b60015460ff16806110fd5750336001600160a01b037f000000000000000000000000000000000000000000000000000000000000000016145b6111495760405162461bcd60e51b815260206004820152601860248201527713db9b1e481859185c1d195c8818d85b88199d5b199a5b1b60421b60448201526064015b60405180910390fd5b5050565b60008281526007602052604081205483910361117c57604051630b16c9e160e01b815260040160405180910390fd5b6000818152600760205260409020600501546001600160a01b0316156111b55760405163246450af60e21b815260040160405180910390fd5b600081815260076020526040812060010180543392906111d7576111d7615557565b6000918252602090912001546001600160a01b0316148015906112335750600081815260076020526040902060019081018054339290811061121b5761121b615557565b6000918252602090912001546001600160a01b031614155b156112515760405163abca351760e01b815260040160405180910390fd5b6000838152600a6020908152604080832033845290915281205490805b84518110156114285761128d86868381518110610e6657610e66615557565b60008582815181106112a1576112a1615557565b60200260200101516000015190508363ffffffff168163ffffffff1610158061131657506000878152600a602090815260408083203384529091529020805463ffffffff83169081106112f6576112f6615557565b906000526020600020906003020160020160019054906101000a900460ff165b156113345760405163273409a560e01b815260040160405180910390fd5b6000878152600a60209081526040808320338452909152902080546001919063ffffffff841690811061136957611369615557565b6000918252602090912060026003909202010180549115156101000261ff001990921691909117905561139e601b600161561a565b6000888152600a602090815260408083203384529091529020805463ffffffff84169081106113cf576113cf615557565b60009182526020909120600390910201546113f79190600160201b900463ffffffff16615654565b61140290600161561a565b6114129063ffffffff1684615544565b92505080806114209061556d565b91505061126e565b50600081900361144b57604051637bbd05c160e01b815260040160405180910390fd5b6040805160c0810182528681526002602082015260009181016003841161147c57611477600185615677565b61147f565b60025b815260006020820181905233604083015260609091018190529091506114a58783612a49565b60008881526007602052604090819020600201549051919250339189917fb278c3842a512e530ac40d56d12d3d055b490469606c939a7c3d4be09d1602dc916115019160ff80821692610100909204169087908a908e9061568a565b60405180910390a350505050505050565b61151a612f6c565b6003805461ffff191661ffff92909216919091179055565b61153a612f6c565b621e848063ffffffff8316111561157557604051631fbf681360e31b815263ffffffff83166004820152621e84806024820152604401611140565b6001805463ffffffff909316600160a81b0263ffffffff60a81b1990931692909217909155600255565b60015460ff16806115d85750336001600160a01b037f000000000000000000000000000000000000000000000000000000000000000016145b61161f5760405162461bcd60e51b815260206004820152601860248201527713db9b1e481859185c1d195c8818d85b88199d5b199a5b1b60421b6044820152606401611140565b6111498282613026565b6000805a9050611670868686868080601f0160208091040260200160405190810160405280939291908181526020018383808284376000920191909152505050505a6132c7565b61167957600080fd5b60005a6116869083615677565b90506000611693826132df565b90508060405162461bcd60e51b81526004016111409190615716565b6000838152600760205260408120548491036116de57604051630b16c9e160e01b815260040160405180910390fd5b6000818152600760205260409020600501546001600160a01b0316156117175760405163246450af60e21b815260040160405180910390fd5b6000818152600760205260408120600101805433929061173957611739615557565b6000918252602090912001546001600160a01b0316148015906117955750600081815260076020526040902060019081018054339290811061177d5761177d615557565b6000918252602090912001546001600160a01b031614155b156117b35760405163abca351760e01b815260040160405180910390fd5b60028260ff1611156117d8576040516350c8610f60e11b815260040160405180910390fd5b6000838152600860209081526040808320815160c08101909252805482526001810154919290919083019060ff166002811115611817576118176151bf565b6002811115611828576118286151bf565b815260028201546020820152600382015460408201526004909101546001600160a01b038082166060840152600160a01b90910460ff1615156080928301529082015191925033911614158061187f57508060a001515b1561189d576040516315eb743160e31b815260040160405180910390fd5b6000858152600a602090815260408083203384529091528082205490830151909190156118de5782604001516001146118d75760066118e1565b60056118e1565b60045b80548060200260200160405190810160405280929190818152602001828054801561195757602002820191906000526020600020906000905b82829054906101000a900463ffffffff1663ffffffff168152602001906004019060208260030104928301926001038202915080841161191a5790505b50505050509050600081825185606001518860405160200161199092919091825260f81b6001600160f81b031916602082015260210190565b6040516020818303038152906040528051906020012060001c6119b39190615729565b815181106119c3576119c3615557565b60209081029190910181015160008a8152600a83526040808220338352845290819020815160c08101835263ffffffff8089168252841694810194909452919350909190810160038152600060208083018290528c82526007815260408083206002015460ff168185015260609093018290528454600181018655948252908190208351600395860290910180549285015163ffffffff908116600160201b0267ffffffffffffffff1990941692169190911791909117808255918301519293909291839160ff60401b1990911690600160401b908490811115611aa957611aa96151bf565b021790555060608281015160018084019190915560808401516002938401805460a096870151151561010090810261ffff1990921660ff94851617919091179091559489019190915260408051928301815263ffffffff8089168452861660208085019190915260008483018190528e81526007909152819020909301549251919333938d937fae5fa64caeab1f79caf996408a70891cdf7b1fe5a55cf062e7ca99fd21bea6c693611b639383821693041690879061573d565b60405180910390a3505050505050505050565b60004233604051602001611ba692919091825260601b6bffffffffffffffffffffffff1916602082015260340190565b60408051601f198184030181528282528051602091820120600081815260078352928320818155600190810180549182018155845291832090910180546001600160a01b031916339081179091559093509183917fe93806e02d09f53787d307ada312314ec4cb949dc9bedc8503f94bd46e45dc6b91a350565b611c28612f6c565b6000818152600760205260408120549003611c5657604051630b16c9e160e01b815260040160405180910390fd5b600081815260076020526040812081815590611c756001830182614f0d565b5060028101805462ffffff19169055600060038201819055600482015560050180546001600160a01b031916905550565b600082815260076020526040812054839103611cd557604051630b16c9e160e01b815260040160405180910390fd5b6000818152600760205260409020600501546001600160a01b031615611d0e5760405163246450af60e21b815260040160405180910390fd5b60008181526007602052604081206001018054339290611d3057611d30615557565b6000918252602090912001546001600160a01b031614801590611d8c57506000818152600760205260409020600190810180543392908110611d7457611d74615557565b6000918252602090912001546001600160a01b031614155b15611daa5760405163abca351760e01b815260040160405180910390fd5b600083815260096020908152604080832033845290915290206001015415611de55760405163ef6940fd60e01b815260040160405180910390fd5b600083815260076020526040902060030154421115611e1757604051632329388160e11b815260040160405180910390fd5b6000838152600960209081526040808320338085529083528184206001908101879055878552600790935290832090910180548390611e5857611e58615557565b6000918252602090912001546001600160a01b031614611eae5760008481526007602052604081206001018054909190611e9457611e94615557565b6000918252602090912001546001600160a01b0316611eec565b60076000858152602001908152602001600020600101600181548110611ed657611ed6615557565b6000918252602090912001546001600160a01b03165b60008581526009602090815260408083206001600160a01b038516845290915290206001015490915015611f3857611f25426014615544565b6000858152600760205260409020600401555b60008481526007602090815260409182902060020154825160ff808316825261010090920490911691810191909152908101849052339085907fad706ebb0f6ccc981bf80e73413329b439d29963352be96937178a038f00414e9060600160405180910390a350505050565b600b6020528260005260406000206020528160005260406000208181548110611fcc57600080fd5b9060005260206000200160009250925050505481565b600a602052826000526040600020602052816000526040600020818154811061200a57600080fd5b600091825260209091206003909102018054600182015460029092015463ffffffff8083169650600160201b830416945060ff600160401b90920482169350808216916101009091041686565b60008281526007602052604081205483910361208657604051630b16c9e160e01b815260040160405180910390fd5b6000818152600760205260409020600501546001600160a01b0316156120bf5760405163246450af60e21b815260040160405180910390fd5b600081815260076020526040812060010180543392906120e1576120e1615557565b6000918252602090912001546001600160a01b03161480159061213d5750600081815260076020526040902060019081018054339290811061212557612125615557565b6000918252602090912001546001600160a01b031614155b1561215b5760405163abca351760e01b815260040160405180910390fd5b60008381526007602052604090206002015460ff1615801561217f57508151600314155b1561219d57604051633f8f035360e21b815260040160405180910390fd5b60008381526007602052604090206002015460ff1660011480156121c357508151600514155b156121e157604051633f8f035360e21b815260040160405180910390fd5b600083815260076020526040902060029081015460ff1614801561220757508151600714155b1561222557604051633f8f035360e21b815260040160405180910390fd5b600083815260096020908152604080832033845290915290206002015460ff161561226357604051632554542f60e01b815260040160405180910390fd5b6000838152600a60209081526040808320338452909152812054905b83518110156123c2576000858152600a602090815260408083203384528252808320815160c08101835263ffffffff87168152928301849052929082019081526020018684815181106122d4576122d4615557565b602090810291909101810151825260008981526007825260408082206002015460ff168484015292830181905284546001810186559481528190208351600395860290910180549285015163ffffffff908116600160201b0267ffffffffffffffff1990941692169190911791909117808255918301519293909291839160ff60401b1990911690600160401b908490811115612373576123736151bf565b02179055506060820151600182015560808201516002909101805460a09093015115156101000261ffff1990931660ff90921691909117919091179055806123ba8161556d565b91505061227f565b506000848152600960209081526040808320338085529083528184206002908101805460ff1916600117905588855260079093529281902090910154905160ff91909116919086907f10697f9ff3d9c24bcd45c87519f7269a527baafe6eb4f03f4acbe16dd6323e49906124379088906157ad565b60405180910390a450505050565b61244d612f6c565b6001600160a01b0381166124b25760405162461bcd60e51b815260206004820152602660248201527f4f776e61626c653a206e6577206f776e657220697320746865207a65726f206160448201526564647265737360d01b6064820152608401611140565b6124bb81612fcc565b50565b6000828152600760205260408120548391036124ed57604051630b16c9e160e01b815260040160405180910390fd5b6000818152600760205260409020600501546001600160a01b0316156125265760405163246450af60e21b815260040160405180910390fd5b6000818152600760205260408120600101805433929061254857612548615557565b6000918252602090912001546001600160a01b0316148015906125a45750600081815260076020526040902060019081018054339290811061258c5761258c615557565b6000918252602090912001546001600160a01b031614155b156125c25760405163abca351760e01b815260040160405180910390fd5b81516002146125e457604051632bda80bb60e01b815260040160405180910390fd5b6000838152600a60209081526040808320338452909152812054905b83518110156127c35761261f85858381518110610e6657610e66615557565b60008460008151811061263457612634615557565b60200260200101516000015190508263ffffffff168163ffffffff161015806126a957506000868152600a602090815260408083203384529091529020805463ffffffff831690811061268957612689615557565b906000526020600020906003020160020160019054906101000a900460ff165b156126c7576040516330dbc66d60e21b815260040160405180910390fd5b60026126d5601b600161561a565b6000888152600a602090815260408083203384529091529020805463ffffffff851690811061270657612706615557565b600091825260209091206003909102015461272e9190600160201b900463ffffffff16615654565b63ffffffff161061275257604051638b84799760e01b815260040160405180910390fd5b6000868152600a60209081526040808320338452909152902080546001919063ffffffff841690811061278757612787615557565b906000526020600020906003020160020160016101000a81548160ff0219169083151502179055505080806127bb9061556d565b915050612600565b506000848152600a6020908152604080832033845290915281208451859083906127ef576127ef615557565b60200260200101516000015163ffffffff168154811061281157612811615557565b6000918252602080832060039290920290910154878352600a825260408084203385529092529082208651600160201b90920463ffffffff169350908690600190811061286057612860615557565b60200260200101516000015163ffffffff168154811061288257612882615557565b600091825260209091206003909102015463ffffffff600160201b90910481169150821681146128c5576040516308a0d39560e01b815260040160405180910390fd5b6000868152600a60209081526040808320338452825291829020825160c0810190935263ffffffff8616835291908101612900601b8661561a565b63ffffffff16815260200160028152600060208083018290528a82526007815260408083206002015460ff168185015260609093018290528454600181018655948252908190208351600395860290910180549285015163ffffffff908116600160201b0267ffffffffffffffff1990941692169190911791909117808255918301519293909291839160ff60401b1990911690600160401b9084908111156129ab576129ab6151bf565b02179055506060820151600182015560808201516002918201805460a090940151151561010090810261ffff1990951660ff938416179490941790556000898152600760205260409081902090920154915133938a937f4a25fe3df37049cb2c31ed3cf3cd6d36932e24a3f3193ffb32005a7838ff5a8893612a399382821693909204169089908c906157c0565b60405180910390a3505050505050565b60006060612a58600082613439565b60008181526008602090815260409091208551815590850151600180830180549496508794909160ff1990911690836002811115612a9857612a986151bf565b021790555060408281015160028301556060830151600383015560808301516004909201805460a0909401511515600160a01b026001600160a81b03199094166001600160a01b0390931692909217929092179055602084015190513391849187917f1be19209e569fe27d743425d054fc55bee059b32ab29da2d6e7e8fb2c43c870d91612b2691906157fb565b60405180910390a45092915050565b600082815260096020908152604080832033845290915281206001015490819003612b7357604051630524053960e31b815260040160405180910390fd5b6040805160008082526020820190925260005b8451811015612c6457848181518110612ba157612ba1615557565b602002602001015160000151858281518110612bbf57612bbf615557565b602002602001015160200151868381518110612bdd57612bdd615557565b602002602001015160400151604051602001612c179392919063ffffffff9384168152919092166020820152604081019190915260600190565b60408051601f198184030181529082905280516020918201209450612c4091849186910161580e565b60405160208183030381529060405291508080612c5c9061556d565b915050612b86565b508051602082012083146110a957604051630504d48b60e21b815260040160405180910390fd5b6000828152600a6020908152604080832033845290915290208151815463ffffffff909116908110612cbf57612cbf615557565b6000918252602090912060039091020154600160201b900463ffffffff1615612d5b576020818101516000848152600a83526040808220338352909352919091208251815463ffffffff93841693909116908110612d1f57612d1f615557565b6000918252602090912060039091020154600160201b900463ffffffff1614611149576040516320fd20af60e01b815260040160405180910390fd5b6000828152600a6020908152604080832033845290915281208251815463ffffffff909116908110612d8f57612d8f615557565b6000918252602090912060039182020154600160401b900460ff1690811115612dba57612dba6151bf565b0361114957806020015163ffffffff16600003612dea5760405163e091c15b60e01b815260040160405180910390fd5b6000828152600a6020908152604080832033845290915281208251815463ffffffff909116908110612e1e57612e1e615557565b6000918252602080832060016003909302019190910154845185830151604080880151815163ffffffff948516968101969096529290911690840152606083015292506080016040516020818303038152906040528051906020012060001c9050818114612e9f5760405163fa56fbe560e01b815260040160405180910390fd5b6020808401516000868152600a835260408082203383529093529190912084518154612efe9388939092909163ffffffff909116908110612ee257612ee2615557565b600091825260209091206002600390920201015460ff1661364d565b6020808401516000868152600a83526040808220338352909352919091208451815463ffffffff909116908110612f3757612f37615557565b906000526020600020906003020160000160046101000a81548163ffffffff021916908363ffffffff16021790555050505050565b6001546001600160a01b036101009091041633146110c25760405162461bcd60e51b815260206004820181905260248201527f4f776e61626c653a2063616c6c6572206973206e6f7420746865206f776e65726044820152606401611140565b600180546001600160a01b03838116610100818102610100600160a81b031985161790945560405193909204169182907f8be0079c531659141344cd1fd0a4f28419497f9722a3daafe3b4186f6b6457e090600090a35050565b6000828152600860209081526040808320815160c08101909252805482526001810154919290919083019060ff166002811115613065576130656151bf565b6002811115613076576130766151bf565b815260028201546020820152600382015460408201526004909101546001600160a01b038116606080840191909152600160a01b90910460ff161515608090920191909152810183905290506000816020015160028111156130da576130da6151bf565b0361321e57805160009081526007602052604081206002015460ff16906131018483613726565b83516000908152600b602090815260408083208380528252909120825192935061312f929091840190614f2b565b50600061313d600286615729565b84516000908152600760205260408120600201805462010000931593840262ff000019909116179055909150613174426078615544565b8551600090815260076020908152604091829020600301839055600160a08901528751825186151581529182018490529293507f3ae9ff3091c7ac315bf63bb4b966cea05dd66570c68efeb8548522772f31eb19910160405180910390a28360ff168786600001517f673e6939fea446589fb3c08f7ecd2abdde9c3a79f371769be6a972ca2480775f868a60405161320d929190615830565b60405180910390a450505050505050565b600181602001516002811115613236576132366151bf565b036132545780516132489084846138bb565b600160a0820152505050565b60028160200151600281111561326c5761326c6151bf565b03610b8b576080810151815160408084015181519081526020810186905286936001600160a01b031692917f17cc7618de6a1c1545cc113b2a8f215ff89402a2a2671a63ebdc45bb328c7c3f910160405180910390a4505050565b6000806000845160208601878987f195945050505050565b60408051606480825260a08201909252606091906000908260208201818036833701905050905060005b841561337357600061331c600a87615729565b9050613329600a8761587e565b9550613336816030615544565b60f81b83836133448161556d565b94508151811061335657613356615557565b60200101906001600160f81b031916908160001a90535050613309565b6000613380826001615544565b6001600160401b038111156133975761339761503c565b6040519080825280601f01601f1916602001820160405280156133c1576020820181803683370190505b50905060005b82811161342f57836133d98285615677565b815181106133e9576133e9615557565b602001015160f81c60f81b82828151811061340657613406615557565b60200101906001600160f81b031916908160001a905350806134278161556d565b9150506133c7565b5095945050505050565b604051631daa446f60e21b815230600482015260009081906001600160a01b037f000000000000000000000000000000000000000000000000000000000000000016906376a911bc90602401602060405180830381865afa1580156134a2573d6000803e3d6000fd5b505050506040513d601f19601f820116820180604052508101906134c69190615892565b9050806001600160401b03166000036134f257604051635585f3e960e01b815260040160405180910390fd5b600154600160a81b900463ffffffff16600003613546576000613516858584613d31565b90506135246175308261561a565b600160156101000a81548163ffffffff021916908363ffffffff160217905550505b60035461ffff166000036135f75760007f00000000000000000000000000000000000000000000000000000000000000006001600160a01b031663ef6f42736040518163ffffffff1660e01b815260040160e060405180830381865afa1580156135b4573d6000803e3d6000fd5b505050506040513d601f19601f820116820180604052508101906135d891906158af565b50506003805461ffff191661ffff969096169590951790945550505050505b6136458484836000600360009054906101000a900461ffff16600160159054906101000a900463ffffffff166002546000146136355760025461419d565b6136403a600361592d565b61419d565b949350505050565b6000838152600b6020908152604080832060ff851684528252808320805482518185028101850190935280835291929091908301828280156136ae57602002820191906000526020600020905b81548152602001906001019080831161369a575b50505050509050600080600090505b8251811015613707578463ffffffff168382815181106136df576136df615557565b6020026020010151036136f55760019150613707565b806136ff8161556d565b9150506136bd565b50806110a957604051632795644d60e11b815260040160405180910390fd5b60608160ff166000036137c8576137c18360048054806020026020016040519081016040528092919081815260200182805480156137af57602002820191906000526020600020906000905b82829054906101000a900463ffffffff1663ffffffff16815260200190600401906020826003010492830192600103820291508084116137725790505b5050505050601463ffffffff166142c6565b9050610667565b8160ff16600103613835576137c18360058054806020026020016040519081016040528092919081815260200182805480156137af576000918252602091829020805463ffffffff1684529082028301929091600491018084116137725750601494506142c69350505050565b8160ff166002036138a2576137c18360068054806020026020016040519081016040528092919081815260200182805480156137af576000918252602091829020805463ffffffff1684529082028301929091600491018084116137725750601494506142c69350505050565b6040516328ad4a9560e21b815260040160405180910390fd5b60006138c784836143b5565b600085815260076020526040902060029081015491925060ff80831692610100900416908114801561390d5750600086815260076020526040902060029081015460ff16145b15613aab5760008681526009602090815260408083206007909252822060019081018054929392909190811061394557613945615557565b6000918252602080832091909101546001600160a01b03168352828101939093526040918201812060020154898252600984528282206007909452918120600101805461010090930460ff16939282906139a1576139a1615557565b60009182526020808320909101546001600160a01b0316835282019290925260400190206002015460ff6101009091041611613a1957600760008781526020019081526020016000206001016001815481106139ff576139ff615557565b6000918252602090912001546001600160a01b0316613a51565b60008681526007602052604081206001018054909190613a3b57613a3b615557565b6000918252602090912001546001600160a01b03165b60008781526007602052604080822060050180546001600160a01b0319166001600160a01b039490941693841790555188917f3d5fcd8fa3235aeb3897f25c8ea49989174981afcb01b9d03189d1056a16775b91a3613cc2565b60008681526007602052604090206002015460ff610100909104166001148015613ae95750600086815260076020526040902060029081015460ff16105b15613c4f5760008681526007602052604080822060020154905160ff9091169188917f3502d30ceab9ef8edf9d697a529b00029efc90f8f0e5876067615e91f30a655c9190a36000868152600760205260408120600201805461ff00198116825560ff1691613b5783615944565b82546101009290920a60ff818102199093169183160217909155600088815260076020526040812060020154909250613b9291879116613726565b6000888152600b60209081526040808320600783528184206002015460ff16845282529091208251929350613bcb929091840190614f2b565b506000878152600760205260409081902060020154905160ff90911690879089907f673e6939fea446589fb3c08f7ecd2abdde9c3a79f371769be6a972ca2480775f90613c1b9086908b90615830565b60405180910390a4613c2c87614698565b613c37426078615544565b60008881526007602052604090206003015550613cc2565b60008681526007602052604090206002018054610100900460ff16906001613c7683615944565b91906101000a81548160ff021916908360ff16021790555050613c9b868560026147b3565b613ca486614698565b613caf42603c615544565b6000878152600760205260409020600301555b6000868152600760209081526040918290206003015482516001600160a01b038716815291820187905281830152905160ff838116929085169189917ff97c09d4555b093c6e6952edb02fc427a47286566e477743f86bc38746424669919081900360600190a4505050505050565b6001805460ff191681179055600080613d4983614afa565b905060606000866002811115613d6157613d616151bf565b03613dcd575060408051602481018390527fe5c171541b9a43bf39a8e387606b82493eb141ea04772ea12d8e1aa1e52601006044808301919091528251808303909101815260649091019091526020810180516001600160e01b03166394985ddd60e01b179052614041565b6001866002811115613de157613de16151bf565b03613f2f57600085806020019051810190613dfc9190615963565b905060008163ffffffff166001600160401b03811115613e1e57613e1e61503c565b604051908082528060200260200182016040528015613e47578160200160208202803683370190505b50905060005b8263ffffffff16811015613ed657604080517fe5c171541b9a43bf39a8e387606b82493eb141ea04772ea12d8e1aa1e526010060208201529081018290526060016040516020818303038152906040528051906020012060001c828281518110613eb957613eb9615557565b602090810291909101015280613ece8161556d565b915050613e4d565b506040516375bf929b60e01b90613ef39086908490602401615980565b60408051601f198184030181529190526020810180516001600160e01b03166001600160e01b0319909316929092179091529250614041915050565b6002866002811115613f4357613f436151bf565b0361404157600085806020019051810190613f5e9190615963565b905060008163ffffffff166001600160401b03811115613f8057613f8061503c565b604051908082528060200260200182016040528015613fa9578160200160208202803683370190505b50905060005b8263ffffffff16811015613fed5780828281518110613fd057613fd0615557565b602090810291909101015280613fe58161556d565b915050613faf565b50604051634f2c1b7b60e11b9061400a9086908490602401615980565b60408051601f198184030181529190526020810180516001600160e01b03166001600160e01b031990931692909217909152925050505b600080306001600160a01b0316639f15c78560e01b3060008660405160240161406c93929190615999565b60408051601f198184030181529181526020820180516001600160e01b03166001600160e01b03199094169390931790925290516140aa91906159c6565b6000604051808303816000865af19150503d80600081146140e7576040519150601f19603f3d011682016040523d82523d6000602084013e6140ec565b606091505b509150915060006140fc82614c47565b9050621e848081111561412e57604051631fbf681360e31b815260048101829052621e84806024820152604401611140565b8215801561413b57508015155b6141875760405162461bcd60e51b815260206004820181905260248201527f66756c66696c6c52616e646f6d6e657373206472792d72756e206661696c65646044820152606401611140565b6001805460ff1916905598975050505050505050565b6001600160401b038516600090815260208190526040812080546001919083906141c8908490615544565b9250508190555060006040518060e001604052808a60028111156141ee576141ee6151bf565b8152602001898152602001886001600160401b031681526020018781526020018661ffff1681526020018563ffffffff1681526020018481525090507f00000000000000000000000000000000000000000000000000000000000000006001600160a01b031663a39402d7826040518263ffffffff1660e01b815260040161427691906159e2565b6020604051808303816000875af1158015614295573d6000803e3d6000fd5b505050506040513d601f19601f820116820180604052508101906142b99190615a65565b9998505050505050505050565b60606000826001600160401b038111156142e2576142e261503c565b60405190808252806020026020018201604052801561430b578160200160208202803683370190505b50905060005b838110156143ac578485518783604051602001614338929190918252602082015260400190565b6040516020818303038152906040528051906020012060001c61435b9190615729565b8151811061436b5761436b615557565b602002602001015182828151811061438557614385615557565b63ffffffff90921660209283029190910190910152806143a48161556d565b915050614311565b50949350505050565b6000828152600760205260408120600201548190819060ff1681036143e15750610bb890506096614432565b60008581526007602052604090206002015460ff1660010361440b5750611770905061012c614432565b600085815260076020526040902060029081015460ff1690036138a25750612ee090506102585b600073__$9d741b813fc76b03a4aed69df75fd23a69$__636bacc5896144588585614c7d565b6144628686614c7d565b60008a8152600960209081526040808320600790925282206001018054919291829061449057614490615557565b60009182526020808320909101546001600160a01b0316835282810193909352604091820181208d82526009845282822060079094529181206001908101805493949390919081106144e4576144e4615557565b60009182526020808320909101546001600160a01b0316835282810193909352604091820181208e825260079093528190206002015490516001600160e01b031960e088901b16815261454a959493929160ff6201000090910416908d90600401615d89565b602060405180830381865af4158015614567573d6000803e3d6000fd5b505050506040513d601f19601f8201168201806040525081019061458b9190615dec565b9050806145d457600760008781526020019081526020016000206001016001815481106145ba576145ba615557565b6000918252602090912001546001600160a01b031661460c565b600086815260076020526040812060010180549091906145f6576145f6615557565b6000918252602090912001546001600160a01b03165b60008781526009602090815260408083206001600160a01b03851684529091529020600201805491955061010090910460ff1690600161464b83615944565b82546101009290920a60ff81810219909316919092169190910217905550600095865260076020526040909520600201805462ff0000191695156201000002959095179094555092915050565b60005b6000828152600760205260409020600101548110156147975760008281526007602052604081206001018054839081106146d7576146d7615557565b60009182526020808320909101548583526009825260408084206001600160a01b039092168085529190925290822090925061471291614f6e565b60008381526009602090815260408083206001600160a01b038516845282528083206001018390558583526007909152812060020154610100900460ff1690036147845760008381526009602090815260408083206001600160a01b03851684529091529020600201805460ff191690555b508061478f8161556d565b91505061469b565b5060009081526007602052604081206003810182905560040155565b60008381526007602052604081206002015460ff8082169261010090920416905b600086815260076020526040902060010154811015614af2576000846001600160401b038111156148075761480761503c565b60405190808252806020026020018201604052801561485257816020015b60408051606081018252600080825260208083018290529282015282526000199092019101816148255790505b506000888152600760205260408120600101805492935090918490811061487b5761487b615557565b60009182526020808320909101548a8352600a825260408084206001600160a01b039092168085529190925290822054909250905b87811015614a955760006148c8601b60ff8a16615e0e565b6040805160208082018e9052818301869052825180830384018152606090920190925280519101206148fc90601b90615729565b61490790600161561a565b614911919061561a565b60008c8152600a602090815260408083206001600160a01b038916845290915290819020815160c081019092529192508061494c8587615544565b63ffffffff908116825284166020820152604001600181526000602080830182905260ff8d1660408085019190915260609093018290528454600181018655948252908190208351600395860290910180549285015163ffffffff908116600160201b0267ffffffffffffffff1990941692169190911791909117808255918301519293909291839160ff60401b1990911690600160401b9084908111156149f6576149f66151bf565b0217905550606082810151600183015560808301516002909201805460a09094015115156101000261ffff1990941660ff9093169290921792909217905560408051918201905280614a488486615544565b63ffffffff1681526020018263ffffffff1681526020016000815250858381518110614a7657614a76615557565b6020026020010181905250508080614a8d9061556d565b9150506148b0565b50816001600160a01b0316897f1207441bb32e995495e47039bba1e91085c26e2581957ded6cc9810743a5adad888887604051614ad4939291906155ec565b60405180910390a35050508080614aea9061556d565b9150506147d4565b505050505050565b60006001600160401b03821615614b115781614b99565b604051631daa446f60e21b81523060048201527f00000000000000000000000000000000000000000000000000000000000000006001600160a01b0316906376a911bc90602401602060405180830381865afa158015614b75573d6000803e3d6000fd5b505050506040513d601f19601f82011682018060405250810190614b999190615892565b9150816001600160401b0316600003614bc557604051635585f3e960e01b815260040160405180910390fd5b6000614c3560008430614bd787610643565b604080514660208201529081018590526001600160401b03841660608201526001600160a01b038316608082015260a0810182905260009060c0016040516020818303038152906040528051906020012060001c9050949350505050565b9050614c4081614dac565b9392505050565b6000604482511015614c5b57506000919050565b60048201915061066782806020019051810190614c789190615e36565b614dde565b614ceb604080516101a081018252600080825260208201819052918101829052606081018290526080810182905260a0810182905260c0810182905260e081018290526101008101829052610120810182905290610140820190815260006020820152606060409091015290565b604080516101a081018252600080825263ffffffff86811660208401819052838501528516606083015260646080808401829052600a60a0850181905260c085015260c860e085015261010084018290526101208401919091526101408301829052610160830191909152825181815261102081019093529091610180830191816020015b604080516080810182526000808252602080830182905292820181905260608201528252600019909201910181614d7057505090529392505050565b600081604051602001614dc191815260200190565b604051602081830303815290604052805190602001209050919050565b600081815b8151811015614e57576000828281518110614e0057614e00615557565b016020015160f81c905060308110801590614e1c575060398111155b15614e4457614e2c603082615677565b614e3785600a61592d565b614e419190615544565b93505b5080614e4f8161556d565b915050614de3565b5050919050565b82805482825590600052602060002090600701600890048101928215614efd5791602002820160005b83821115614ecb57835183826101000a81548163ffffffff021916908363ffffffff1602179055509260200192600401602081600301049283019260010302614e87565b8015614efb5782816101000a81549063ffffffff0219169055600401602081600301049283019260010302614ecb565b505b50614f09929150614f8f565b5090565b50805460008255906000526020600020908101906124bb9190614f8f565b828054828255906000526020600020908101928215614efd579160200282015b82811115614efd578251829063ffffffff16905591602001919060010190614f4b565b5080546000825560070160089004906000526020600020908101906124bb91905b5b80821115614f095760008155600101614f90565b600060208284031215614fb657600080fd5b5035919050565b6001600160401b03811681146124bb57600080fd5b600060208284031215614fe457600080fd5b8135614c4081614fbd565b6020808252825182820181905260009190848201906040850190845b818110156150305783516001600160a01b03168352928401929184019160010161500b565b50909695505050505050565b634e487b7160e01b600052604160045260246000fd5b604051606081016001600160401b03811182821017156150745761507461503c565b60405290565b604051601f8201601f191681016001600160401b03811182821017156150a2576150a261503c565b604052919050565b60006001600160401b038211156150c3576150c361503c565b5060051b60200190565b63ffffffff811681146124bb57600080fd5b60008060408084860312156150f357600080fd5b833592506020808501356001600160401b0381111561511157600080fd5b8501601f8101871361512257600080fd5b8035615135615130826150aa565b61507a565b8181526060918202830184019184820191908a84111561515457600080fd5b938501935b838510156151ae5780858c0312156151715760008081fd5b615179615052565b8535615184816150cd565b815285870135615193816150cd565b81880152858801358882015283529384019391850191615159565b508096505050505050509250929050565b634e487b7160e01b600052602160045260246000fd5b600381106124bb576124bb6151bf565b86815260c081016151f5876151d5565b6020820196909652604081019490945260608401929092526001600160a01b03166080830152151560a090910152919050565b600082601f83011261523957600080fd5b81356020615249615130836150aa565b82815260059290921b8401810191818101908684111561526857600080fd5b8286015b84811015615283578035835291830191830161526c565b509695505050505050565b600080604083850312156152a157600080fd5b8235915060208301356001600160401b038111156152be57600080fd5b6152ca85828601615228565b9150509250929050565b61ffff811681146124bb57600080fd5b6000602082840312156152f657600080fd5b8135614c40816152d4565b6000806040838503121561531457600080fd5b823561531f816150cd565b946020939093013593505050565b6000806040838503121561534057600080fd5b50508035926020909101359150565b80356001600160a01b038116811461536657600080fd5b919050565b6000806000806060858703121561538157600080fd5b61538a8561534f565b93506020850135925060408501356001600160401b03808211156153ad57600080fd5b818701915087601f8301126153c157600080fd5b8135818111156153d057600080fd5b8860208285010111156153e257600080fd5b95989497505060200194505050565b803560ff8116811461536657600080fd5b60008060006060848603121561541757600080fd5b833592506020840135915061542e604085016153f1565b90509250925092565b6000806040838503121561544a57600080fd5b8235915061545a6020840161534f565b90509250929050565b60008060006060848603121561547857600080fd5b83359250615488602085016153f1565b9150604084013590509250925092565b6000806000606084860312156154ad57600080fd5b833592506154886020850161534f565b600481106124bb576124bb6151bf565b63ffffffff87811682528616602082015260c081016154eb866154bd565b85604083015284606083015260ff8416608083015282151560a0830152979650505050505050565b60006020828403121561552557600080fd5b614c408261534f565b634e487b7160e01b600052601160045260246000fd5b808201808211156106675761066761552e565b634e487b7160e01b600052603260045260246000fd5b60006001820161557f5761557f61552e565b5060010190565b600081518084526020808501945080840160005b838110156155e1576155ce87835163ffffffff80825116835280602083015116602084015250604081015160408301525050565b606096909601959082019060010161559a565b509495945050505050565b60ff8416815260ff831660208201526060604082015260006156116060830184615586565b95945050505050565b63ffffffff8181168382160190808211156156375761563761552e565b5092915050565b634e487b7160e01b600052601260045260246000fd5b600063ffffffff8084168061566b5761566b61563e565b92169190910492915050565b818103818111156106675761066761552e565b60ff8616815260ff8516602082015283604082015282606082015260a0608082015260006156bb60a0830184615586565b979650505050505050565b60005b838110156156e15781810151838201526020016156c9565b50506000910152565b600081518084526157028160208601602086016156c6565b601f01601f19169290920160200192915050565b602081526000614c4060208301846156ea565b6000826157385761573861563e565b500690565b60ff84811682528316602082015260a08101613645604083018463ffffffff80825116835280602083015116602084015250604081015160408301525050565b600081518084526020808501945080840160005b838110156155e157815187529582019590820190600101615791565b602081526000614c40602083018461577d565b60ff8516815260ff8416602082015263ffffffff831660408201526080606082015260006157f16080830184615586565b9695505050505050565b60208101615808836151d5565b91905290565b60408152600061582160408301856156ea565b90508260208301529392505050565b604080825283519082018190526000906020906060840190828701845b8281101561586f57815163ffffffff168452928401929084019060010161584d565b50505092019290925292915050565b60008261588d5761588d61563e565b500490565b6000602082840312156158a457600080fd5b8151614c4081614fbd565b600080600080600080600060e0888a0312156158ca57600080fd5b87516158d5816152d4565b60208901519097506158e6816150cd565b60408901519096506158f7816150cd565b6060890151909550615908816150cd565b809450506080880151925060a0880151915060c0880151905092959891949750929550565b80820281158282048414176106675761066761552e565b600060ff821660ff810361595a5761595a61552e565b60010192915050565b60006020828403121561597557600080fd5b8151614c40816150cd565b828152604060208201526000613645604083018461577d565b6001600160a01b038416815260ff83166020820152606060408201819052600090615611908301846156ea565b600082516159d88184602087016156c6565b9190910192915050565b60208152600082516159f3816151d5565b80602084015250602083015160e06040840152615a146101008401826156ea565b90506001600160401b0360408501511660608401526060840151608084015261ffff60808501511660a084015263ffffffff60a08501511660c084015260c084015160e08401528091505092915050565b600060208284031215615a7757600080fd5b5051919050565b615a87816154bd565b9052565b600081518084526020808501945080840160005b838110156155e1578151805163ffffffff9081168952848201511515858a015260408083015160ff16908a0152606091820151169088015260809096019590820190600101615a9f565b60006101a0825184526020830151615b09602086018263ffffffff169052565b506040830151615b21604086018263ffffffff169052565b506060830151615b39606086018263ffffffff169052565b506080830151615b51608086018263ffffffff169052565b5060a0830151615b6960a086018263ffffffff169052565b5060c0830151615b8160c086018263ffffffff169052565b5060e0830151615b9960e086018263ffffffff169052565b506101008381015163ffffffff81168683015250506101208381015163ffffffff811686830152505061014080840151615bd582870182615a7e565b50506101608381015163ffffffff1690850152610180808401518186018390526157f183870182615a8b565b805480835260008281526020808220940193909190825b82600782011015615c9057815463ffffffff8082168852602082811c821690890152604082811c821690890152606082811c821690890152608082811c82169089015260a082811c82169089015260c082811c9091169088015260e090811c9087015261010090950194600190910190600801615c18565b90549082811015615cae5763ffffffff821686526020909501946001015b82811015615cce57602082901c63ffffffff168652602095909501946001015b82811015615ced5763ffffffff604083901c1686526020909501946001015b82811015615d0c5763ffffffff606083901c1686526020909501946001015b82811015615d2b5763ffffffff608083901c1686526020909501946001015b82811015615d4a5763ffffffff60a083901c1686526020909501946001015b82811015615d695763ffffffff60c083901c1686526020909501946001015b82811015615d7f5760e082901c86526020860195505b5093949350505050565b60c081526000615d9c60c0830189615ae9565b8281036020840152615dae8189615ae9565b90508281036040840152615dc28188615c01565b90508281036060840152615dd68187615c01565b9415156080840152505060a00152949350505050565b600060208284031215615dfe57600080fd5b81518015158114614c4057600080fd5b63ffffffff818116838216028082169190828114615e2e57615e2e61552e565b505092915050565b600060208284031215615e4857600080fd5b81516001600160401b0380821115615e5f57600080fd5b818401915084601f830112615e7357600080fd5b815181811115615e8557615e8561503c565b615e98601f8201601f191660200161507a565b9150808252856020828501011115615eaf57600080fd5b6143ac8160208401602086016156c656fea2646970667358221220f79b40e78d314ddd78f0cf53c0072c21b86d0a3758eef36a6389a3cc0b6d169264736f6c63430008120033",
    "linkReferences": {
      "src/library/GameFight.sol": {
        "GameFight": [
          {
            "start": 18230,
            "length": 20
          }
        ]
      }
    }
  },
  "methodIdentifiers": {
    "CARD_POOL_SIZE()": "df79b41f",
    "HIGH_QUALITY_CARD_IDS(uint256)": "2b092ac9",
    "LOW_QUALITY_CARD_IDS(uint256)": "00d0286c",
    "MIDDLE_QUALITY_CARD_IDS(uint256)": "4bfac36e",
    "adapter()": "03eadcfc",
    "callbackGasLimit()": "24f74697",
    "callbackMaxGasFee()": "17f768c5",
    "cardPools(uint256,uint8,uint256)": "dc77bb7e",
    "claimVictory(uint256)": "4ff776b8",
    "clearTable(uint256)": "b7f6062b",
    "commitPickedCards(uint256,uint256[])": "efac430c",
    "commitSequence(uint256,uint256)": "d592e6af",
    "createTable()": "b2a4c897",
    "getNonce(uint64)": "1b45cd0d",
    "getPlayers(uint256)": "460e2049",
    "hands(uint256,address,uint256)": "ea61e0df",
    "joinTable(uint256)": "3823bb03",
    "owner()": "8da5cb5b",
    "playerStates(uint256,address)": "c0338ba3",
    "randomnessRequests(bytes32)": "5e619b78",
    "rawFulfillRandomWords(bytes32,uint256[])": "75bf929b",
    "rawFulfillRandomness(bytes32,uint256)": "94985ddd",
    "rawFulfillShuffledArray(bytes32,uint256[])": "9e5836f6",
    "reforgeCard(uint256,(uint32,uint32,uint256)[])": "7c09b685",
    "renounceOwnership()": "715018a6",
    "requestConfirmations()": "b0fb162f",
    "requiredTxGas(address,uint256,bytes)": "9f15c785",
    "revealSequence(uint256,(uint32,uint32,uint256)[])": "5086a298",
    "setCallbackGasConfig(uint32,uint256)": "8acd01a0",
    "setRequestConfirmations(uint16)": "8824f5a7",
    "summitReforge(uint256,bytes32,uint8)": "aa476f6b",
    "tables(uint256)": "71671bf2",
    "transferOwnership(address)": "f2fde38b",
    "upgradeCard(uint256,(uint32,uint32,uint256)[])": "f92683c5"
  },
  "id": 9
}